:1000000080314028080008007E14803100308600CE
:10001000003087002E00161C0E280F2817280C1CF5
:1000200012281328172895315D2580313E28161E89
:100030001A281B2823280C1E1E281F282328953128
:10004000B02580313E280B1F262827283E281A1C61
:100050002A282B283328101C2E282F2833289731A4
:10006000662780313E281B1C362837283E28111C65
:100070003A283B283E289631842680317E1009009C
:100080008031422893308400953085002100120091
:10009000EA001200EB001200EC001200ED0012006A
:1000A000EE001200EF00FA01FB012000E601E7017B
:1000B000E801E901A0308400003085004A30953124
:1000C0008D2580312200B001B1017E1020008731E2
:1000D000002FF80023000F0C890C0139F4001108DF
:1000E0001F397404031D752876286A281114111805
:1000F0007A287B2877280F0C890C0139F400110825
:100100001F397404031D852886287B284E308A31C8
:100110004522803123000F0C890C0139F4001108AD
:100120001F397404031D952896288A287808FA3800
:100130008A314522803123000F0C890C0139F400EB
:1001400011081F397404031DA628A7289B287808C6
:10015000FE388A314522803123000F0C890C013989
:10016000F40011081F397404031DB728B828AC28FF
:100170000000230091149118BE28BF28BB280F0C43
:10018000890C0139F40011081F397404031DC928B2
:10019000CA28BF284F308A314522803123000F0CF6
:1001A000890C0139F40011081F397404031DD92882
:1001B000DA28CE289731AD278031F60023000F0CC6
:1001C000890C0139F40011081F397404031DE92852
:1001D000EA28DE2891161116111AEF28F028EC28CB
:1001E00091149118F428F528F1280F0C890C013985
:1001F000F40011081F397404031DFF280029F52895
:100200004E308A314522803123000F0C890C013990
:10021000F40011081F397404031D0F291029042943
:100220007808FA388A314522803123000F0C890C76
:100230000139F40011081F397404031D20292129F4
:1002400015297808FE388A314522803123000F0CA9
:10025000890C0139F40011081F397404031D312978
:1002600032292629000023009114911838293929B0
:1002700035290F0C890C0139F40011081F39740459
:10028000031D4329442939294F308A3145228031C1
:1002900023000F0C890C0139F40011081F39740474
:1002A000031D5329542948299731AD278031F70080
:1002B00023000F0C890C0139F40011081F39740454
:1002C000031D63296429582991161116111A6929E9
:1002D0006A296629911491186E296F296B290F0CD0
:1002E000890C0139F40011081F397404031D7929A0
:1002F0007A296F294E308A314522803123000F0C34
:10030000890C0139F40011081F397404031D89296F
:100310008A297E297808FA388A31452280312300DB
:100320000F0C890C0139F40011081F397404031DE6
:100330009A299B298F29111511199F29A0299C29D8
:100340007708F4000430F436890BA3290F307405C4
:10035000F5007608F039750408003F30F200973157
:10036000512781312E30F200973151278131200001
:100370006808D2006708D3007A08D40003307B06EF
:100380000319C329C429D62909307B060319C929B1
:10039000CA29D6290A307B060319CF29D029D629A4
:1003A0000B307B06031DD529D629E22921006C08D4
:1003B0002000D20021004C082000D30021004D086D
:1003C0002000D4003F30A8005208A9008831F9204D
:1003D00081313A302000C1004230A8005308A90002
:1003E0008831F92081313A302000C4004530A8001E
:1003F0005408A9008831F920813143302000CA0017
:100400005430CB004C30CC0021005108031D092A88
:100410000A2A102A61302000D0000030D100152AAD
:1004200041302000D0000030D1005008CD005230C3
:10043000CE002E30A80021006B082000A9008831D2
:10044000F920813120302000B0004330B1004C3021
:10045000BB0021006A08303E2000BD00803095318D
:10046000992581312000A001003097313C2781314E
:100470003F302000A0000030A10097319427813147
:100480009631EC268131200020082104031D492AE1
:100490004A2A402AC0309531992581312000A00197
:1004A000083097313C2781312E302000A0000030E9
:1004B000A1009731942781319631EC2681312000BB
:1004C00020082104031D652A662A5C2A80309531A4
:1004D00099258131B82AA001A00A003097313C2724
:1004E0008131E42A0430A000003097313C2781316B
:1004F000E42A0730A000003097313C278131E42AFC
:100500000B30A000003097313C278131E42AA00154
:10051000A00A003097313C278131E42A0430A00042
:10052000003097313C278131E42A0730A0000030A9
:1005300097313C278131E42A0C30A00000309731FC
:100540003C278131E42A0D30A000003097313C2750
:100550008131E42A0E30A000003097313C278131F0
:10056000E42A0F30A000003097313C278131E42A83
:100570007B082000AC00AD012D08003A0319C12A08
:10058000E42A2C08003A03196B2A013A0319722A4B
:10059000033A0319792A013A0319802A073A031901
:1005A0009C2A013A0319A32A033A0319AA2A013AF9
:1005B0000319B12A0E3A0319872A033A03198E2A1E
:1005C000013A0319952AE42A08002100CB012000F2
:1005D0006903031DEC2AED2ADB2BB02B1830F20047
:1005E0000030F3006808013EF400003003180130C9
:1005F000F5008A319022823172082000E8006808F4
:10060000F6000930963159268231062C3C30F20032
:100610000030F3006708013EF40000300318013099
:10062000F5008A319022823172082000E7006708C5
:10063000F6000A30963159268231062C3C30F20001
:100640000030F3007A08013EF40000300318013056
:10065000F5008A31902282317208FA00062C0930A6
:10066000FB00062C1830F2000030F30021006C086B
:10067000013EF400003003180130F5008A31902269
:10068000823172082100EC006C08F60004309631CB
:1006900059268231062C3C30F2000030F300210054
:1006A0004C08013EF400003003180130F5008A3197
:1006B0009022823172082100CC004C08F6000530EF
:1006C000963159268231062C3C30F2000030F3007E
:1006D00021004D08013EF400003003180130F50000
:1006E0008A319022823172082100CD004D08F60037
:1006F0000630963159268231062C3330F200003014
:10070000F30021006B08013EF400003003180130B3
:10071000F5008A319022823172082100EB006B08CB
:10072000F6000730963159268231062C21006A08DE
:10073000013E0339EA006A08F6000830963159266E
:100740008231062C01302100D1065108F600033019
:10075000963159268231062C8D31D1258231062CD5
:100760007B08F800F9017908003A0319B82B062C28
:100770007808003A0319EE2A013A0319062B033AC6
:1007800003191E2B013A03192F2B073A03197D2B4E
:10079000013A0319962B033A0319A22B013A0319C4
:1007A000AC2B0E3A0319322B033A03194B2B013AA7
:1007B0000319642B062C6908031DDF2BE02BE82BA3
:1007C0000230E90001302100D4002000E601062CAF
:1007D00002306906031DED2BEE2B062C02302100A2
:1007E0005406031DF42BF52BFC2B2000E9012100FE
:1007F000D4012000E601062C5403031D002C012C1B
:10080000062C0230D40002302000E6070800230046
:100810000F0C890C0139F40011081F397404031DF1
:10082000122C132C072C11141118172C182C142C03
:100830000F0C890C0139F40011081F397404031DD1
:10084000222C232C182C9A308A3145228431230003
:100850000F0C890C0139F40011081F397404031DB1
:10086000322C332C272C01308A314522843123004D
:100870000F0C890C0139F40011081F397404031D91
:10088000422C432C372C91149118472C482C442C83
:100890000F0C890C0139F40011081F397404031D71
:1008A000522C532C482C9B308A3145228431230012
:1008B0000F0C890C0139F40011081F397404031D51
:1008C000622C632C572C9731AD278431F50023001F
:1008D0000F0C890C0139F40011081F397404031D31
:1008E000722C732C672C91161116111A782C792CF6
:1008F000752C0F0C890C0139F40011081F39740490
:10090000031D832C842C792C11151119882C892C0A
:10091000852C751F8C2C8D2C072C0F0C890C013904
:10092000F40011081F397404031D972C982C8D2C8A
:10093000111411189C2C9D2C992C0F0C890C013929
:10094000F40011081F397404031DA72CA82C9D2C3A
:100950009A308A314522843123000F0C890C0139E9
:10096000F40011081F397404031DB72CB82CAC2CEB
:1009700000308A314522843123000F0C890C013963
:10098000F40011081F397404031DC72CC82CBC2C9B
:1009900091149118CC2CCD2CC92C0F0C890C013939
:1009A000F40011081F397404031DD72CD82CCD2C4A
:1009B0009B308A314522843123000F0C890C013988
:1009C000F40011081F397404031DE72CE82CDC2CFB
:1009D0009731AD278431F50023000F0C890C0139C4
:1009E000F40011081F397404031DF72CF82CEC2CAB
:1009F00091161116111AFD2CFE2CFA2C0F0C890CD5
:100A00000139F40011081F397404031D082D092D44
:100A1000FE2C111511190D2D0E2D0A2D750808002B
:100A20002C30F2009731512785313D30F20097315B
:100A3000512785312C302000A8000530F2006608CF
:100A40009631D9268531D63E8600870101082000DF
:100A5000A9008831F92085313A302000AE002F30CE
:100A6000A8000530F20066089631D9268531D73EB8
:100A70008600870101082000A9008831F92085310E
:100A80003A302000B1003230A8000530F20066088C
:100A90009631D9268531D83E86008701010820008D
:100AA000A9008831F920853120302000B40035308C
:100AB000A8000530F20066089631D9268531D93E66
:100AC0008600870101082000A9008831F9208531BE
:100AD00043302000B7000530F20066089631D92671
:100AE0008531DA3E860087010108303E2000BB00D8
:100AF0004C30BA003D30A8000530F200660896314F
:100B0000D9268531DB3E8600870101082000A90037
:100B10008831F92085313A302000BF004030A800EC
:100B20000530F20066089631D9268531DC3E860014
:100B3000870101082000A9008831F92085313A3069
:100B40002000C2004330A8000530F200660896314C
:100B5000D9268531DD3E8600870101082000A900E5
:100B60008831F920853120302000C5004630A800AA
:100B70000530F20066089631D9268531DE3E8600C2
:100B8000870101082000A9008831F9208531433010
:100B90002000C8000530F20066089631D92685315C
:100BA000DF3E860087010108303E2000CC004C303B
:100BB000CB0080309531992585312000A00100308F
:100BC00097313C2785312C302000A0000030A10057
:100BD0009731942785319631EC2685312000200805
:100BE0002104031DF42DF52DEB2DC03095319925F1
:100BF00085312000A001083097313C2785313D30F8
:100C00002000A0000030A100973194278531963153
:100C1000EC268531200020082104031D102E112E02
:100C2000072E08005830F4005A30F50088310A20A9
:100C30008631A13020005806F130031959060319F6
:100C4000222E232E412E8B319B2386312000DB0167
:100C5000DC015C089631192686312000DB07013063
:100C6000DC070B305C02031C362E372E292EA130F8
:100C7000F600F130F7005B08F8009731C72786319E
:100C8000E72EDB01DD015D08963119268631200053
:100C9000DB070130DD070B305D02031C502E512EA7
:100CA000432E5A085B060319562E572E5E2E8B31A3
:100CB0009B238631883151208631FF2E00309631BA
:100CC000192686312100EF00013096311926863130
:100CD0002100EE0002309631192686312100ED0008
:100CE00003309631192686312100D1000430963127
:100CF000192686312100EC000530963119268631FF
:100D00002100CC0006309631192686312100CD0015
:100D100007309631192686312100EB0008309631D4
:100D2000192686312100EA000930963119268631CC
:100D30002000E8000A309631192686312000E700AD
:100D40000E30A0000030A100D630A200D730A300A2
:100D5000D830A400D930A500DA30A6008A310022AC
:100D6000863113302000A0000030A100DB30A2004B
:100D7000DC30A300DD30A400DE30A500DF30A600AB
:100D80008A310022863118302000A0000030A100F6
:100D9000E030A200E130A300E230A400E330A5007F
:100DA000E430A6008A31002286311D302000A000E8
:100DB0000030A100E530A200E630A300E730A40037
:100DC000E830A500E930A6008A310022863195314D
:100DD0004D2586312100CA01C901C801C7019531DD
:100DE000C22586312100CB012000E901FB01210051
:100DF000D4018C31CC2486318F312E2786310800E6
:100E000000302200AF000030AE000030AD000030F6
:100E1000AC0088312C2087319631322687318C31D5
:100E2000CC2487319631B52687318030953199258C
:100E300087312000A001003097313C2787310030F6
:100E40002000A0009830A100973194278731963177
:100E5000EC268731200020082104031D302F312F7C
:100E6000272F86311226873196313F26873157301A
:100E7000F2001530F30095317B2587318B313D230E
:100E800087316330F2001530F300953181258731C9
:100E900095316F258731720873040319502F512F34
:100EA000572F9531452587318931BC2187319531BF
:100EB000752587317208730403195F2F602F662F21
:100EC0009531492587318231E52287319531DF25FA
:100ED0008731003A03196D2F6E2F482F0310200021
:100EE000961F03140318752F782F200096177A2F5A
:100EF000200096138831862087319531D52587319A
:100F000075082200AB007408AA007308A9007208D3
:100F1000A80021006F082000DE00DF01E001E101F0
:100F200022002C0828022000E20022002D08293B84
:100F30002000E30022002E082A3B2000E4002200CB
:100F40002F082B3B2000E50061086502031DB22F2E
:100F500060086402031DB22F5F086302031DB22FF5
:100F60005E0862020318B52FB62FBF2F22002F088C
:100F70002E042D042C04031DBE2FBF2FCB2F2200C7
:100F80002B08AF002A08AE002908AD002808AC00E5
:100F90009631672687318B31FF238731630000004C
:100FA000482F8031402824008F01900104309100A7
:100FB00086308D00E8308C002E00101024000D08C3
:100FC0002100C60024000C082100C5002E001A14C0
:100FD0000330F2000030F3009531692587312E008F
:100FE00011101B140230F2000030F30095318725F8
:100FF0008731073024008E00080027008E17080074
:10100000803023008F0008309000910103308D0064
:10101000901208000030F200F30096310D2688315E
:10102000F6000130F2000030F30096310D268831D1
:10103000F7007408860087017608C03F7708C13F33
:101040007508860087010230F2000030F300963107
:101050000D268831810008009531A025883188311E
:10106000002088318B313D2388319531B925883175
:101070009531F525883197317D27883196310126C4
:10108000883196314C2688318731D3278831963183
:101090003F2688319531EA258831953152258831AE
:1010A00008002000A001A3012308963119268831E9
:1010B0002000A0070130A3070B302302031C612886
:1010C000622854280E30A1000030A2002208F3004C
:1010D0002108F20096310D2688312000A00701304A
:1010E000A1070030A23D0030220222300319210264
:1010F000031C7B287C286628A130F600F130F7001D
:101100002008F8009731C727883108000130FA0716
:101110003C307A02031C8D288E28BD28FA0101304C
:101120002000E7073C306702031C97289828B7285F
:10113000E7016708F6000A309631592688310130F8
:101140002000E80718306802031CA728A828B02848
:10115000E8016808F6000930963159268831BD2823
:101160006808F6000930963159268831BD2867088D
:10117000F6000A30963159268831080020002108EF
:10118000F3002008F2002208F4009731E2278831AA
:1011900020002008013EF2000030213DF30023082A
:1011A000F4009731E227883120002008023EF20047
:1011B0000030213DF3002408F4009731E227883104
:1011C00020002008033EF2000030213DF3002508F6
:1011D000F4009731E227883120002008043EF20015
:1011E0000030213DF3002608F4009731E2278831D2
:1011F00008000A30F2000030F30020002908F8004F
:10120000F9017808F4007908F5008A3190228831D4
:1012100072082000AB000A30A0000030A10064304A
:10122000F2000030F3002908F800F9017808F40012
:101230007908F5008A319022883120002B0872024B
:10124000A2000030733BA3008A31E12288312000E4
:101250002008AA002808860087012A08303E81005D
:10126000280A860087012B08303E81000800F40020
:101270004D2901307829023078290330782904304B
:101280007829053078290630782907307829003008
:1012900078290A3078290B3078297408F200F30194
:1012A0007308003A0319552947297208003A0319AF
:1012B0003929013A03193B29033A03193D29013A17
:1012C00003193F29073A03194129013A0319432910
:1012D000033A03194529013A031947290E3A03191C
:1012E0004929033A03194B29013A03193F29472990
:1012F0000800F50023000F0C890C0139F4001108D7
:101300001F397404031D852986297A29111411189F
:101310008A298B2987290F0C890C0139F4001108BF
:101320001F397404031D952996298B294E308A3163
:101330004522893123000F0C890C0139F400110872
:101340001F397404031DA529A6299A2975088A3115
:101350004522893123000F0C890C0139F400110852
:101360001F397404031DB529B629AA2911151119AD
:10137000BA29BB29B729080095314D2589312100AB
:10138000CB0120006908031DC629C729CB290130DC
:10139000E900FB01FF296903031DCF29D029E229B8
:1013A0007B08893137218931F50007307B06031D21
:1013B000DA29DB29DF292000E901FB01FF29750873
:1013C000FB00FF2902306906031DE729E829FF29F0
:1013D00021005403031DED29EE29F5292000E90120
:1013E0002100D4012000E601FF2902305406031D2C
:1013F000FA29FB29FF290130D4002000E60108006A
:1014000020002208860087012108F3002008F2004E
:1014100096310D268A31810020002308860087013D
:101420002008013EF2000030213DF30096310D26E8
:101430008A31810020002408860087012008023EAE
:10144000F2000030213DF30096310D268A318100F3
:1014500020002508860087012008033EF2000030A6
:10146000213DF30096310D268A31810020002608A7
:10147000860087012008043EF2000030213DF30081
:1014800096310D268A3181000800F300730823008D
:101490008C00901F4C2A4D2A4E2A8F2A0F3010059F
:1014A000F200083072060319562A572A6D2A0F30A7
:1014B0001005F2000B30720603195F2A602A6D2AAC
:1014C00010162E000F1C652A662A612A23000F19A8
:1014D0006A2A6B2A8F2A0F088F2A0F301005F20014
:1014E000083072060319752A762A7F2A0F301005F4
:1014F000F2000B307206031D7E2A7F2A8F2A0F18F6
:10150000822A832A7F2A0F0C890C0139F2001108E4
:101510001F397204031D8D2A8E2A832A11080800A0
:10152000F701F51F942A952A9C2AF409F509F40A73
:101530000319F50A0130F700F31F9F2AA02AA52AF4
:10154000F209F309F20A0319F30A72087304031982
:10155000AA2AAB2AD22A0130F600B52A0130F23588
:10156000F30D890BAF2A0130F607F31FB82AB92A09
:10157000AE2A73087502031DBF2A72087402031C89
:10158000C22AC32AC72A7208F4027308F53B013045
:10159000F336F20C890BC82A0130F602031DD12A5A
:1015A000D22AB92A77080319D62AD72ADC2AF409BD
:1015B000F509F40A0319F50A7508F3007408F20036
:1015C00008002000A501A11FE62AE72AEE2AA009AB
:1015D000A109A00A0319A10A0130A500A31FF12A3D
:1015E000F22AF92AA209A309A20A0319A30A0130BF
:1015F000A506A601A701200821040319002B012B31
:101600002E2B0130A4000B2B0130A035A10D890B2E
:10161000052B0130A407A11F0E2B0F2B042B01302B
:10162000A635A70D890B102B21082302031D1A2BA9
:1016300020082202031C1D2B1E2B232B2008A20294
:101640002108A33B26140130A136A00C890B242BC2
:101650000130A402031D2D2B2E2B0F2B250803195F
:10166000322B332B382BA609A709A60A0319A70A80
:101670002708A1002608A000080020009A0199016F
:10168000960197019801073095000F309100FF30C7
:101690009200FF309300FF309400FF303E00D900ED
:1016A000C430CE00EF30C3000730E400AF30B800E4
:1016B000DA01E501C401B9011830CF00E601BA0131
:1016C000C501D001DB01FF30BB00FF30C600FF3099
:1016D000D100FF30DC000730E700FF30BC00FF30F6
:1016E000C700FF30D200FF30DD000730E800D51220
:1016F000D416D3124130F2001530F3009531812514
:101700008B312E0016160C303D0090001330C500B2
:1017100014303E00A30010303D00A90015303E00FB
:10172000A4000E30960011303D00AA000430910054
:101730001430C600080005302100EF000330EE0031
:101740000A30ED00D1010C30EC00CC01CD01143099
:10175000EB000230EA002000E801E701FA01210075
:101760006F08F6000030963159268B3121006E0843
:10177000F6000130963159268B3121006D08F600B4
:101780000230963159268B3121005108F600033082
:10179000963159268B3121006C08F60004309631C1
:1017A00059268B3121004C08F60005309631592618
:1017B0008B3121004D08F6000630963159268B31C9
:1017C00021006B08F6000730963159268B31210035
:1017D0006A08F6000830963159268B318D31D125B3
:1017E0008B312100D901DA01FF30DE000330DF0048
:1017F000E301E401FF30E8000330E90008002100C4
:101800004B086D020318052C062C092CCB01200077
:10181000E9019631A4268B312000D8016808210007
:101820006C06031D142C152C262C200067082100A3
:101830004C06031D1C2C1D2C262C7A084D06031D5E
:10184000222C232C262C01302000D8002000580800
:10185000D90021005108031D2E2C2F2C342C2000E0
:1018600059082100C800462C200059080319392CBA
:101870003A2C2F2C21004808031D3F2C402C2F2CE4
:101880000130D000973113278B312F2C20006908AD
:10189000031D4B2C4C2C502C8F312E278B31622C5E
:1018A0006903031D542C552C592C8131AD218B31EA
:1018B000622C02306906031D5E2C5F2C622C853180
:1018C00010258B3108002100530859020318692C98
:1018D0006A2C7D2C5308D900200068082100D6000E
:1018E000200067082100D7007A08D8000130F600F0
:1018F0000030F7008D3148258C3121005E085302FD
:101900000318832C842C972C5308DE0020006808D1
:101910002100DB00200067082100DC007A08DD00E0
:101920000230F6000030F7008D3148258C3121005F
:101930005208640203189D2C9E2CB12C5208E4001E
:10194000200068082100E000200067082100E10075
:101950007A08E2000330F6000030F7008D314825A8
:101960008C312100690852020318B72CB82CCB2CFB
:101970005208E900200068082100E50020006708FF
:101980002100E6007A08E7000430F6000030F70096
:101990008D3148258C3108004130F900EE30890B3B
:1019A000CF2CF90BCF2C00323030893179218C319A
:1019B0003430893179218C31A630890BDD2C00320D
:1019C0003030893179218C310730F9007D30890B35
:1019D000E72CF90BE72C00003030893179218C316C
:1019E0003430893179218C31A630890BF52C0032C5
:1019F0003030893179218C312130890BFD2C000068
:101A00003030893179218C313430893179218C31F0
:101A1000A630890B092D00323030893179218C3183
:101A20002130890B112D00002030893179218C3132
:101A30002430893179218C31A630890B1D2D00325B
:101A40002030893179218C310730F9007D30890BC4
:101A5000272DF90B272D0000F40128308E317D262B
:101A60008C31F40106308E317D268C31F4010F303B
:101A70008E317D268C31F40101308E317D268C3102
:101A80000330F9009830890B432DF90B432D0800E2
:101A9000BD2D0E302000A0000030A100210056080E
:101AA0002000A200210057082000A30021005808B0
:101AB0002000A400210059082000A50021005A0898
:101AC0002000A6008831BE208D31D02D133020009B
:101AD000A0000030A10021005B082000A20021002E
:101AE0005C082000A30021005D082000A400210064
:101AF0005E082000A50021005F082000A6008831B4
:101B0000BE208D31D02D18302000A0000030A10063
:101B1000210060082000A200210061082000A3002D
:101B2000210062082000A400210063082000A50015
:101B3000210064082000A6008831BE208D31D02D00
:101B40001D302000A0000030A10021006508200009
:101B5000A200210066082000A300210067082000E1
:101B6000A400210068082000A500210069082000C9
:101B7000A6008831BE208D31D02D7708003A031998
:101B8000C22DD02D7608013A0319492D033A0319C5
:101B9000662D013A0319832D073A0319A02DD02D84
:101BA0000800F6010530F20076089631D9268D310D
:101BB000D63E8600870181010530F2007608963115
:101BC000D9268D31D73E8600870181010530F2008C
:101BD00076089631D9268D31D83E8600870181015D
:101BE0000530F20076089631D9268D31D93E86002F
:101BF000870181010530F20076089631D9268D31B2
:101C0000DA3E8600870181010130F6070430760252
:101C1000031C0B2E0C2ED22D0E302000A000003005
:101C2000A100210056082000A20021005708200032
:101C3000A300210058082000A4002100590820001A
:101C4000A50021005A082000A6008831BE208D3151
:101C500013302000A0000030A10021005B0820000C
:101C6000A20021005C082000A30021005D082000E4
:101C7000A40021005E082000A50021005F082000CC
:101C8000A6008831BE208D3118302000A000003021
:101C9000A100210060082000A200210061082000AE
:101CA000A300210062082000A40021006308200096
:101CB000A500210064082000A6008831BE208D31D7
:101CC0001D302000A0000030A10021006508200088
:101CD000A200210066082000A30021006708200060
:101CE000A400210068082000A50021006908200048
:101CF000A6008831BE208D310800F6007608F03944
:101D0000F7007608F5000430F535890B842E750848
:101D1000F039F80023000F0C890C0139F500110887
:101D20001F397504031D952E962E8A2E1114111835
:101D30009A2E9B2E972E0F0C890C0139F500110855
:101D40001F397504031DA52EA62E9B2E4E308A31F9
:101D500045228E3123000F0C890C0139F500110842
:101D60001F397504031DB52EB62EAA2E77087404EC
:101D700008388A3145228E3123000F0C890C013935
:101D8000F50011081F397504031DC72EC82EBC2E7F
:101D9000770874040C388A3145228E3123000F0CE9
:101DA000890C0139F50011081F397504031DD92E5E
:101DB000DA2ECE2E00007708740408388A314522C6
:101DC0008E3123000F0C890C0139F50011081F39E1
:101DD0007504031DEC2EED2EE12E780874040838EE
:101DE0008A3145228E3123000F0C890C0139F50010
:101DF00011081F397504031DFE2EFF2EF32E7808DF
:101E000074040C388A3145228E3123000F0C890C62
:101E10000139F50011081F397504031D102F112F0A
:101E2000052F00007808740408388A3145228E3165
:101E300023000F0C890C0139F50011081F397504B6
:101E4000031D232F242F182F11151119282F292F87
:101E5000252F1030890B2A2F003208003F30F20066
:101E6000973151278F312E30F200973151278F3122
:101E70003F302000A8006808A9008831F9208F3180
:101E80003A302000C1004230A8006708A90088311C
:101E9000F9208F313A302000C4004530A8007A087C
:101EA000A9008831F9208F3120302000C70021009F
:101EB0005008031D5C2F5D2F632F20302000D000C1
:101EC0000030D100682F43302000D0000030D10016
:101ED0005008C80021004F08031D6F2F702F762F68
:101EE00020302000D2000030D3007B2F543020005F
:101EF000D2000030D3005208C90021004E08031D53
:101F0000822F832F892F20302000D4000030D5006D
:101F10008E2F4C302000D4000030D5005408CA0069
:101F200021005108031D952F962F9C2F6130200012
:101F3000D6000030D700A12F41302000D60000305D
:101F4000D7005608CD002E30A800210053082000ED
:101F5000A9008831F9208F3120302000B0004330B3
:101F6000B1004C30BB000A30F2000030F300210019
:101F700052082000AC00AD012C08F4002D08F5003B
:101F80008A3190228F317208303E2000BD008030AF
:101F9000953199258F312000A001003097313C27E1
:101FA0008F313F302000A0000030A10097319427EE
:101FB0008F319631EC268F31200020082104031D3B
:101FC000E22FE32FD92FC030953199258F31200092
:101FD000A001083097313C278F312E302000A0001F
:101FE0000030A100973194278F319631EC268F3144
:101FF000200020082104031DFE2FFF2FF52F0800CD
:102000000034003400340034003400340034003430
:102010000034003400340034003400340034003420
:102020000034003400340034003400340034003410
:102030000034003400340034003400340034003400
:102A80000800080024000E1408002100C301C4013E
:102A900008002100C101C20108002100CE01CF01C0
:102AA000D0010800310096019030950008000130F7
:102AB0002100C3000030C40008002E000C10963125
:102AC00025269531080001302100C1000030C200E8
:102AD000080073082200A5007208A4000800210065
:102AE0004408F3004308F200080021004208F30004
:102AF0004108F200080073082200A1007208A0003B
:102B0000080073082200A7007208A60008007308D6
:102B10002200A3007208A2000800640080010131B5
:102B2000890B8E2D0034023414340C340A340334EF
:102B30000534F900F40179088E317D2695310800BD
:102B40002F0096019701980199019A019B010800B5
:102B5000F900F401F40A79088E317D2695310800D8
:102B60003E00D51EB42DB52DB82D96317526953164
:102B70000800623031008D008F0191010230930016
:102B8000920108000030F200F300973127279531B9
:102B900027008E13080001302100BD070030BE3D24
:102BA000BF3DC03D0130D500080021004008F500C0
:102BB0003F08F4003E08F3003D08F2000800210041
:102BC00055080319E42DE52DE82DD5010130E92D37
:102BD0000030080020009F01FF309D009C012E0066
:102BE0008C12803020009E000800803027008E006C
:102BF0008D0140308C0024001F08F33904389F00F9
:102C0000080080302900980099019A019B019D01DC
:102C10009C019701960195010800730830009B0004
:102C200072089A001E171E140000000030001C08D5
:102C30000800F4007408033EF2000030031801306D
:102C4000F30096310D269631080022002008210459
:102C500003192B2E2C2E312E21088A0020080A0061
:102C600096310800803023008F00083090009101D9
:102C700003308D00901620009315131608002E00C7
:102C80000C100B144030F2001530F30095317B2509
:102C900096312E00161408000130250090008F0197
:102CA00091018D018C012E009010803025008E0046
:102CB0000800F7007708033EF200003003180130E7
:102CC000F3007608F4009731E2279631080084314A
:102CD000072496312100D3009631FF26963121003A
:102CE000D2008C3163249631080022002608270484
:102CF00003197B2E7C2E812E27088A0026080A00C5
:102D000096313E00D51208002E0011102200220834
:102D1000230403198C2E8D2E922E23088A0022085C
:102D20000A009631080024000E1D972E982E9F2E23
:102D30000E1071088D0070088C000E14A32E7108FF
:102D40008D0070088C00080021004708031DA92E83
:102D5000AA2EAB2EB42E0130C702031DB02EB12E09
:102D6000B42E9531C225963108003E00B8132000DC
:102D700091139613CB30F2001530F300953169258D
:102D800096319531422596318B170B170800F400C8
:102D9000740821009E0093171313131400002100E0
:102DA0001318D32ED42ECF2E0D08F3000C08F200EA
:102DB0000800F400F301741CDE2EDF2EE12E7208F1
:102DC000F3070310F20D0310F40C7408031DE92E31
:102DD000EA2EDB2E7308080000308031692096311E
:102DE00080390319F42EF52EFB2E01302000A000AF
:102DF0000030A100FE2E2000A001A101080000303B
:102E00009631C72696317308F6007208F5007608E9
:102E1000F70004307702031C0E2F0F2F112F033001
:102E2000F70077080800210047080319182F192F09
:102E30001A2F262F0330C7000030F2000230F300B3
:102E40009731272797318731FD279731080073087D
:102E5000F5007208F400F536F40CF536F40C74083D
:102E600027008D0072080339F4000630F435890B11
:102E7000362F74088C0008002000A10021080319D7
:102E8000422F432F462FC030A200482F8030A2008F
:102E900020080F392204A200220895319925973184
:102EA0000800F30172087307860087012030810053
:102EB0000130F30710307302031C5F2F602F522F75
:102EC0007208103E86008701810108002E00101054
:102ED00021004608F1004508F0009631932697310D
:102EE0002200240825040319762F772F7C2F25082C
:102EF0008A0024080A009731080022008E018F0101
:102F000090019101920193018D0121009E019B018D
:102F10009C0194019501960197019A0199019801EC
:102F2000843093009D010800992F24089531A8252D
:102F3000973120002108A3002008A200A00A03194D
:102F4000A10A22088400230885000008A4002408A0
:102F5000031DAB2FAC2F952F08000F302300100559
:102F6000F200083072060319B62FB72FC02F0F30AA
:102F70001005F2000B307206031DBF2FC02FC12FAA
:102F800091150F1CC42FC52FC12F0C08080000304D
:102F9000F200F3007608F4009731E2279731013010
:102FA000F2000030F3007708F4009731E227973100
:102FB0000230F2000030F3007808F4009731E22785
:102FC000973108000B0D0B0D0139F5007308300027
:102FD0009B0072089A0074089C001E171E158B1324
:102FE00055309F00AA309F009E149E18F82FF92F8D
:102FF000F52F1E11750C031C8B1303188B1708007B
:1030000041346E34743465347334203464346F3432
:0C301000203449344E3449345434003428
:020000040001F9
:08000000FF3FFF3FFF3FFF3F00
:0A000E00EC3FFF3F9F3FFF3FFF3F25
:00000001FF
