:1000000080314C28080008007E14803100308600C2
:10001000003087002E00161C0E280F2817280C1CF5
:100020001228132817289E31CD2680314A28961E83
:100030001A281B2823288C1E1E281F2823289F319E
:100040009B2780314A28161E262827282F280C1E79
:100050002A282B282F289F31282780314A280B1F38
:10006000322833284A281A1C362837283F28101CE3
:100070003A283B283F2890316D2080314A281B1CAC
:10008000422843284A28111C462847284A289F31DD
:10009000AA2780317E10090080314E28C2308400AA
:1000A0009E30850021001200EB001200EC001200CF
:1000B000ED001200EE001200EF00FA01FB0120003B
:1000C000EA01EB01EC01D8308400003085001330E8
:1000D0009F310327803120308400013085003B3080
:1000E0009F3103278031A03084000130850020300B
:1000F0009F31032780317E1020009631012EBD30C4
:100100002000D700D830D8009830D9009131142180
:100110008031AC302000D700D830D8009830D900DA
:10012000913114218031C0309F3109278031200066
:10013000A0010830903158208031AC302000A00060
:100140009F31DC27803190310B2080312000200846
:100150002104031DAC28AD28A328210062086007F4
:100160002000E400E501E50D21006108200064079E
:100170002100CE0000302000653D2100CF00630348
:10018000031DC328C428D9294E084F04031DC928BC
:10019000CA280A29BD302000D7003930D80098304D
:1001A000D900210068082000E400E5016408DA00B5
:1001B0006508DB00210067082000E600E70166080B
:1001C000DC006708DD00210066082000E800E90186
:1001D0006808DE006908DF00913114218031803029
:1001E0009F31092780312000A00100309031582034
:1001F0008031BD302000A0009F31DC27803190315C
:100200000B208031200020082104031D0829092922
:10021000FF28182A6203031D0E290F294E29BD301D
:100220002000D700E930D8009830D90021006808B4
:100230002000E400E5016408DA006508DB00210025
:1002400067082000E600E7016608DC006708DD00BB
:10025000210066082000E800E9016808DE0069085E
:10026000DF0091311421803180309F3109278031A6
:100270002000A0010030903158208031BD30200096
:10028000A0009F31DC27803190310B20803120008D
:1002900020082104031D4D294E2944292100610312
:1002A000031D532954299329BD302000D7000F3056
:1002B000D8009930D900210068082000E400E50149
:1002C0006408DA006508DB00210067082000E6000A
:1002D000E7016608DC006708DD00210066082000F1
:1002E000E800E9016808DE006908DF0091311421A7
:1002F000803180309F31092780312000A0010030FB
:10030000903158208031BD302000A0009F31DC2783
:10031000803190310B208031200020082104031D02
:1003200092299329892921006003031D982999297D
:10033000182ABD302000D700FC30D8009830D900F2
:10034000210068082000E400E5016408DA0065087F
:10035000DB00210067082000E600E7016608DC00FA
:100360006708DD00210066082000E800E901680850
:10037000DE006908DF0091311421803180309F3127
:10038000092780312000A0010030903158208031B1
:10039000BD302000A0009F31DC27803190310B2040
:1003A0008031200020082104031DD729D829CE2917
:1003B000182ABD302000D7005030D8009830D9001E
:1003C000210068082000E400E5016408DA006508FF
:1003D000DB00210067082000E600E7016608DC007A
:1003E0006708DD00210066082000E800E9016808D0
:1003F000DE006908DF0091311421803180309F31A7
:10040000092780312000A001003090315820803130
:10041000BD302000A0009F31DC27803190310B20BF
:100420008031200020082104031D172A182A0E2AD3
:10043000AC302000D700AB30D8009830D900210074
:1004400065082000E400E5016408DA006508DB00C7
:10045000210064082000E600E7016608DC00670868
:10046000DD00913114218031C0309F310927803166
:100470002000A0010830903158208031AC3020009D
:10048000A0009F31DC27803190310B20803120008B
:1004900020082104031D4D2A4E2A442A0800F80092
:1004A00023000F0C890C0139F40011081F39740462
:1004B000031D5B2A5C2A502A11141118602A612A34
:1004C0005D2A0F0C890C0139F40011081F397404DE
:1004D000031D6B2A6C2A612A4E309231AE22823182
:1004E00023000F0C890C0139F40011081F39740422
:1004F000031D7B2A7C2A702A7808FA389231AE22B2
:10050000823123000F0C890C0139F40011081F39C6
:100510007404031D8C2A8D2A812A7808FE389231B2
:10052000AE22823123000F0C890C0139F40011082E
:100530001F397404031D9D2A9E2A922A000023005D
:1005400091149118A42AA52AA12A0F0C890C01390B
:10055000F40011081F397404031DAF2AB02AA52A1C
:100560004F309231AE22823123000F0C890C0139B9
:10057000F40011081F397404031DBF2AC02AB42ACD
:10058000903184208231F60023000F0C890C013950
:10059000F40011081F397404031DCF2AD02AC42A7D
:1005A00091161116111AD52AD62AD22A9114911809
:1005B000DA2ADB2AD72A0F0C890C0139F40011083A
:1005C0001F397404031DE52AE62ADB2A4E309231D6
:1005D000AE22823123000F0C890C0139F40011087E
:1005E0001F397404031DF52AF62AEA2A7808FA3816
:1005F0009231AE22823123000F0C890C0139F400B4
:1006000011081F397404031D062B072BFB2A7808D9
:10061000FE389231AE22823123000F0C890C013951
:10062000F40011081F397404031D172B182B0C2B11
:1006300000002300911491181E2B1F2B1B2B0F0C55
:10064000890C0139F40011081F397404031D292B8A
:100650002A2B1F2B4F309231AE22823123000F0CF8
:10066000890C0139F40011081F397404031D392B5A
:100670003A2B2E2B903184208231F70023000F0C6F
:10068000890C0139F40011081F397404031D492B2A
:100690004A2B3E2B91161116111A4F2B502B4C2B17
:1006A00091149118542B552B512B0F0C890C013997
:1006B000F40011081F397404031D5F2B602B552BA8
:1006C0004E309231AE22823123000F0C890C013959
:1006D000F40011081F397404031D6F2B702B642B59
:1006E0007808FA389231AE22823123000F0C890C3F
:1006F0000139F40011081F397404031D802B812B6C
:10070000752B11151119852B862B822B7708F40078
:100710000430F436890B892B0F307405F500760808
:10072000F039750408002000410886008701403F29
:10073000C300413FC4004308840044088500120000
:10074000253A031DA42BA52BA12C41088600870167
:100750000130810741310318810AEA01EB010030C1
:10076000EC00FF302200D500FF30D6002000C80189
:10077000D62BEC14410886008701013081074131F6
:100780000318810AD62B0130C800D62B41088600F9
:100790008701403FC300413FC40043088400440830
:1007A00085000008303A0319B92BC32B48080319F8
:1007B000DA2BDB2BC62B4108F8004208F9009431F4
:1007C0005824833179082000EB007808EA00EB1FF9
:1007D000EA2BEB2BF12B6C14EA09EB09EA0A03195B
:1007E000EB0A410886008701403FC300413FC40037
:1007F00043088400440885001200633A031D012C5D
:10080000022C1E2C410886008701013081074131EE
:100810000318810A420886008701010884008501C7
:10082000023081070008C7004008A6003F08A50065
:100830004708A7009431B4248331BB2C41088600BB
:100840008701403FCD00413FCE004D0884004E0857
:1008500085001200643A03192E2C2F2C392C4D08D8
:1008600084004E0885001200693A031D382C392C8B
:100870005E2C420886008701010884008501023051
:100880008107003FC900013FCA004D08013EC30077
:1008900000304E3DC4004108860087014308C03F38
:1008A0004408C13F4008B3003F08B2004A08B50001
:1008B0004908B4009631A1268331BB2C4D08840031
:1008C0004E0885001200753A031D672C682C972C82
:1008D00042088600870101088400850102308107F3
:1008E000003FC900013FCA004D08013EC30000306F
:1008F0004E3DC4004108860087014308C03F4408BC
:10090000C13F8E2C4008B3003F08B2004A08B50032
:100910004908B400953116258331BB2C4D0884005D
:100920004E0885000008753A0319822C972C200088
:100930004108860087010130810741310318810A8F
:10094000BB2C410886008701403FC300413FC400E3
:1009500043088400440885000008C500C601450816
:10096000F2004608F3004008F5003F08F400933118
:100970004A238331972C0800B6302000D70020305E
:10098000D8009830D9000530F20021005F0890317E
:10099000312084313D3E860001308700010821006E
:1009A000AC00AD012C082000DA0021002D08200049
:1009B000DB000530F20021005F08903131208431E6
:1009C0003E3E86000130870001082100AE00AF01E5
:1009D0002E082000DC0021002F082000DD0005305B
:1009E000F20021005F089031312084313F3E8600C3
:1009F0000130870001082100B000B101300820005B
:100A0000DE00210031082000DF000530F200210067
:100A10005F08903131208431403E860001308700EC
:100A200001082100B200B30132082000E0002100DB
:100A300033082000E1000530F20021005F0890310A
:100A400031208431413E86000130870001082100B9
:100A5000B400B50134082000E20021003508200070
:100A6000E30091311421843180309F310927843192
:100A70002000A0010030903158208431B630200091
:100A8000A0009F31DC27843190310B20843120007D
:100A900020082104031D4D2D4E2D442DC730D700B5
:100AA0002030D8009830D9000530F20021005F08CE
:100AB000903131208431423E8600013087000108A8
:100AC0002100AC00AD012C082000DA0021002D0827
:100AD0002000DB000530F20021005F08903131205A
:100AE0008431433E86000130870001082100AE00BA
:100AF000AF012E082000DC0021002F082000DD00BF
:100B00000530F20021005F08903131208431443EED
:100B100086000130870001082100B000B1013008D3
:100B20002000DE00210031082000DF000530F20047
:100B300021005F08903131208431453E860001302C
:100B4000870001082100B200B30132082000E00054
:100B5000210033082000E1000530F20021005F0889
:100B6000903131208431463E8600013087000108F3
:100B70002100B400B50134082000E200210035084E
:100B80002000E300913114218431C0309F310927C6
:100B900084312000A0010830903158208431C730C2
:100BA0002000A0009F31DC27843190310B2084315C
:100BB000200020082104031DDE2DDF2DD52D080087
:100BC00023000F0C890C0139F40011081F3974043B
:100BD000031DEB2DEC2DE02D11141118F02DF12D2E
:100BE000ED2D0F0C890C0139F40011081F39740424
:100BF000031DFB2DFC2DF12D9A309231AE22853153
:100C000023000F0C890C0139F40011081F397404FA
:100C1000031D0B2E0C2E002E01309231AE22853199
:100C200023000F0C890C0139F40011081F397404DA
:100C3000031D1B2E1C2E102E91149118202E212ED8
:100C40001D2E0F0C890C0139F40011081F39740492
:100C5000031D2B2E2C2E212E9B309231AE2285315E
:100C600023000F0C890C0139F40011081F3974049A
:100C7000031D3B2E3C2E302E903184208531F50013
:100C800023000F0C890C0139F40011081F3974047A
:100C9000031D4B2E4C2E402E91161116111A512E5B
:100CA000522E4E2E0F0C890C0139F40011081F39F9
:100CB0007404031D5C2E5D2E522E11151119612E28
:100CC000622E5E2E751F652E662EE02D0F0C890C90
:100CD0000139F40011081F397404031D702E712EA0
:100CE000662E11141118752E762E722E0F0C890C8B
:100CF0000139F40011081F397404031D802E812E60
:100D0000762E9A309231AE22853123000F0C890C59
:100D10000139F40011081F397404031D902E912E1F
:100D2000852E00309231AE22853123000F0C890CC4
:100D30000139F40011081F397404031DA02EA12EDF
:100D4000952E91149118A52EA62EA22E0F0C890C6B
:100D50000139F40011081F397404031DB02EB12E9F
:100D6000A62E9B309231AE22853123000F0C890CC8
:100D70000139F40011081F397404031DC02EC12E5F
:100D8000B52E903184208531F50023000F0C890C9D
:100D90000139F40011081F397404031DD02ED12E1F
:100DA000C52E91161116111AD62ED72ED32E0F0C32
:100DB000890C0139F40011081F397404031DE12E58
:100DC000E22ED72E11151119E62EE72EE32E750807
:100DD00008002100DC017B03031DEF2EF02EA52F60
:100DE0007A2F1830F2000030F3006808013EF4005A
:100DF000003003180130F5009231F9228631720873
:100E00002100E800CA2F3C30F2000030F3006708F0
:100E1000013EF400003003180130F5009231F92250
:100E2000863172082100E700CA2F3C30F200003002
:100E3000F3006608013EF400003003180130F500AD
:100E40009231F922863172082100E600CA2F09305A
:100E5000E900CA2F1830F2000030F3006F08013E9D
:100E6000F400003003180130F5009231F922863188
:100E700072082100EF00CA2F3C30F2000030F3006E
:100E80005D08013EF400003003180130F500923196
:100E9000F922863172082100DD00CA2F3C30F200B1
:100EA0000030F3005E08013EF4000030031801300A
:100EB000F5009231F922863172082100DE00CA2F36
:100EC0003330F2000030F3006E08013EF4000030D1
:100ED00003180130F5009231F922863172082100A1
:100EE000EE00CA2F6D08013E0339ED00CA2F013014
:100EF000E306CA2F6908F800F9017908003A0319D6
:100F0000822FCA2F7808003A0319F12E013A0319EB
:100F1000032F033A0319152F013A0319272F073A14
:100F20000319602F013A0319722F033A0319772F1F
:100F3000013A0319CA2F0E3A03192A2F033A03194B
:100F40003C2F013A03194E2FCA2F7B08031DA92FEE
:100F5000AA2FB02F0230FB000130FA00DF01CA2FA8
:100F600002307B06031DB52FB62FCA2F02307A063A
:100F7000031DBB2FBC2FC02FFB01FA01DF01CA2FBD
:100F80007A03031DC42FC52FCA2F7A08013EFA0029
:100F90000230DF070800720873040319D02FD12F25
:100FA000F82F0130F600DB2F0130F235F30D890BFD
:100FB000D52F0130F607F31FDE2FDF2FD42F730854
:100FC0007502031DE52F72087402031CE82FE92F38
:100FD000ED2F7208F4027308F53B0130F336F20C82
:100FE000890BEE2F0130F602031DF72FF82FDF2FAC
:100FF0007508F3007408F200080024000E140800BD
:10100000080008000800D22F21006303031D0928EF
:101010000A284A28BD302000D7006730D800983011
:10102000D900210068082000E400E5016408DA0026
:101030006508DB00210067082000E600E70166087C
:10104000DC006708DD00210066082000E800E901F7
:101050006808DE006908DF00913114218831803092
:101060009F31092788312000A0010030903158209D
:101070008831BD302000A0009F31DC2788319031BD
:101080000B208831200020082104031D482849280E
:101090003F288928BD302000D7007E30D800983006
:1010A000D900210068082000E400E5016408DA00A6
:1010B0006508DB00210067082000E600E7016608FC
:1010C000DC006708DD00210066082000E800E90177
:1010D0006808DE006908DF00913114218831803012
:1010E0009F31092788312000A0010030903158201D
:1010F0008831BD302000A0009F31DC27883190313D
:101100000B208831200020082104031D882889280D
:101110007F28AC30D700D830D8009830D900913132
:1011200014218831C0309F31092788312000A00167
:101130000830903158208831AC302000A0009F3119
:10114000DC27883190310B208831200020082104D1
:10115000031DAB28AC28A22880309F310927883195
:101160002000A001A00A0030903158208831FF2FC4
:1011700021006303031DBD28BE28FE28BD302000CA
:10118000D7006730D8009830D900210068082000C7
:10119000E400E5016408DA006508DB002100670867
:1011A0002000E600E7016608DC006708DD0021009A
:1011B00066082000E800E9016808DE006908DF0031
:1011C00091311421883180309F31092788312000E6
:1011D000A0010030903158208831BD302000A0009F
:1011E0009F31DC27883190310B2088312000200886
:1011F0002104031DFC28FD28F3283D29BD302000D3
:10120000D7007E30D8009830D9002100680820002F
:10121000E400E5016408DA006508DB0021006708E6
:101220002000E600E7016608DC006708DD00210019
:1012300066082000E800E9016808DE006908DF00B0
:1012400091311421883180309F3109278831200065
:10125000A0010030903158208831BD302000A0001E
:101260009F31DC27883190310B2088312000200805
:101270002104031D3C293D293329AC30D700D5304A
:10128000D8009830D900913114218831C0309F3175
:10129000092788312000A00108309031582088317A
:1012A000AC302000A0009F31DC27883190310B202A
:1012B0008831200020082104031D5F296029562958
:1012C00080309F310927883104302000A000003091
:1012D000903158208831FF2F21006303031D7129AD
:1012E0007229B229BD302000D7006730D80098306D
:1012F000D900210068082000E400E5016408DA0054
:101300006508DB00210067082000E600E7016608A9
:10131000DC006708DD00210066082000E800E90124
:101320006808DE006908DF009131142188318030BF
:101330009F31092788312000A001003090315820CA
:101340008831BD302000A0009F31DC2788319031EA
:101350000B208831200020082104031DB029B12969
:10136000A729F129BD302000D7007E30D800983061
:10137000D900210068082000E400E5016408DA00D3
:101380006508DB00210067082000E600E701660829
:10139000DC006708DD00210066082000E800E901A4
:1013A0006808DE006908DF0091311421883180303F
:1013B0009F31092788312000A0010030903158204A
:1013C0008831BD302000A0009F31DC27883190316A
:1013D0000B208831200020082104031DF029F12969
:1013E000E729AC30D700D530D8009830D9009131FA
:1013F00014218831C0309F31092788312000A00195
:101400000830903158208831AC302000A0009F3146
:10141000DC27883190310B208831200020082104FE
:10142000031D132A142A0A2A80309F310927883184
:1014300007302000A0000030903158208831FF2F65
:1014400021006303031D252A262A662ABD302000B9
:10145000D7006730D8009830D90021006F082000ED
:10146000E400E5016408DA006508DB0021005D089E
:101470002000E600E7016608DC006708DD002100C7
:101480005E082000E800E9016808DE006908DF0066
:1014900091311421883180309F3109278831200013
:1014A000A0010030903158208831BD302000A000CC
:1014B0009F31DC27883190310B20883120002008B3
:1014C0002104031D642A652A5B2AA52ABD30200059
:1014D000D7007E30D8009830D90021006F08200056
:1014E000E400E5016408DA006508DB0021005D081E
:1014F0002000E600E7016608DC006708DD00210047
:101500005E082000E800E9016808DE006908DF00E5
:1015100091311421883180309F3109278831200092
:10152000A0010030903158208831BD302000A0004B
:101530009F31DC27883190310B2088312000200832
:101540002104031DA42AA52A9B2AAC30D700D5303C
:10155000D8009830D900913114218831C0309F31A2
:10156000092788312000A0010830903158208831A7
:10157000AC302000A0009F31DC27883190310B2057
:101580008831200020082104031DC72AC82ABE2A4A
:1015900080309F31092788310B302000A0000030B7
:1015A000903158208831FF2F21006303031DD92A71
:1015B000DA2A1A2BBD302000D7006730D8009830C7
:1015C000D90021006F082000E400E5016408DA007A
:1015D0006508DB0021005D082000E600E7016608E1
:1015E000DC006708DD0021005E082000E800E9015A
:1015F0006808DE006908DF009131142188318030ED
:101600009F31092788312000A001003090315820F7
:101610008831BD302000A0009F31DC278831903117
:101620000B208831200020082104031D182B192BC2
:101630000F2B592BBD302000D7007E30D8009830BA
:10164000D90021006F082000E400E5016408DA00F9
:101650006508DB0021005D082000E600E701660860
:10166000DC006708DD0021005E082000E800E901D9
:101670006808DE006908DF0091311421883180306C
:101680009F31092788312000A00100309031582077
:101690008831BD302000A0009F31DC278831903197
:1016A0000B208831200020082104031D582B592BC2
:1016B0004F2BAC30D700D530D8009830D9009131BD
:1016C00014218831C0309F31092788312000A001C2
:1016D0000830903158208831AC302000A0009F3174
:1016E000DC27883190310B2088312000200821042C
:1016F000031D7B2B7C2B722B80309F310927883177
:101700002000A001A00A0030903158208831FF2F1E
:1017100021006303031D8D2B8E2BCE2BBD302000AB
:10172000D7006730D8009830D90021006F0820001A
:10173000E400E5016408DA006508DB0021005D08CB
:101740002000E600E7016608DC006708DD002100F4
:101750005E082000E800E9016808DE006908DF0093
:1017600091311421883180309F3109278831200040
:10177000A0010030903158208831BD302000A000F9
:101780009F31DC27883190310B20883120002008E0
:101790002104031DCC2BCD2BC32B0D2CBD302000E1
:1017A000D7007E30D8009830D90021006F08200083
:1017B000E400E5016408DA006508DB0021005D084B
:1017C0002000E600E7016608DC006708DD00210074
:1017D0005E082000E800E9016808DE006908DF0013
:1017E00091311421883180309F31092788312000C0
:1017F000A0010030903158208831BD302000A00079
:101800009F31DC27883190310B208831200020085F
:101810002104031D0C2C0D2C032CAC30D700D5302B
:10182000D8009830D900913114218831C0309F31CF
:10183000092788312000A0010830903158208831D4
:10184000AC302000A0009F31DC27883190310B2084
:101850008831200020082104031D2F2C302C262C39
:1018600080309F310927883104302000A0000030EB
:10187000903158208831FF2F21006303031D412C34
:10188000422C822CBD302000D7006730D800983021
:10189000D90021006F082000E400E5016408DA00A7
:1018A0006508DB0021005D082000E600E70166080E
:1018B000DC006708DD0021005E082000E800E90187
:1018C0006808DE006908DF0091311421883180301A
:1018D0009F31092788312000A00100309031582025
:1018E0008831BD302000A0009F31DC278831903145
:1018F0000B208831200020082104031D802C812C1E
:10190000772CC12CBD302000D7007E30D800983015
:10191000D90021006F082000E400E5016408DA0026
:101920006508DB0021005D082000E600E70166088D
:10193000DC006708DD0021005E082000E800E90106
:101940006808DE006908DF00913114218831803099
:101950009F31092788312000A001003090315820A4
:101960008831BD302000A0009F31DC2788319031C4
:101970000B208831200020082104031DC02CC12C1D
:10198000B72CAC30D700D530D8009830D900913181
:1019900014218831C0309F31092788312000A001EF
:1019A0000830903158208831AC302000A0009F31A1
:1019B000DC27883190310B20883120002008210459
:1019C000031DE32CE42CDA2C80309F310927883169
:1019D00007302000A0000030903158208831FF2FC0
:1019E00021006303031DF52CF62C362DBD3020009D
:1019F000D7006730D8009830D9002100680820004F
:101A0000E400E5016408DA006508DB0021006708EE
:101A10002000E600E7016608DC006708DD00210021
:101A200066082000E800E9016808DE006908DF00B8
:101A300091311421883180309F310927883120006D
:101A4000A0010030903158208831BD302000A00026
:101A50009F31DC27883190310B208831200020080D
:101A60002104031D342D352D2B2D752DBD30200067
:101A7000D7007E30D8009830D900210068082000B7
:101A8000E400E5016408DA006508DB00210067086E
:101A90002000E600E7016608DC006708DD002100A1
:101AA00066082000E800E9016808DE006908DF0038
:101AB00091311421883180309F31092788312000ED
:101AC000A0010030903158208831BD302000A000A6
:101AD0009F31DC27883190310B208831200020088D
:101AE0002104031D742D752D6B2DAC30D70095305E
:101AF000D8009830D90021006E082000E400E501EC
:101B00006408DA006508DB00913114218831C030A7
:101B10009F31092788312000A001083090315820DA
:101B20008831AC302000A0009F31DC278831903113
:101B30000B208831200020082104031DA02DA12D99
:101B4000972D80309F31092788310C302000A0006C
:101B50000030903158208831FF2F21006303031D8E
:101B6000B22DB32DF32DBD302000D7006730D80043
:101B70009830D900210068082000E400E5016408DD
:101B8000DA006508DB00210067082000E600E701B5
:101B90006608DC006708DD00210066082000E80018
:101BA000E9016808DE006908DF00913114218831FD
:101BB00080309F31092788312000A001003090310A
:101BC00058208831BD302000A0009F31DC278831AB
:101BD00090310B208831200020082104031DF12DB5
:101BE000F22DE82D322EBD302000D7007E30D800F7
:101BF0009830D900210068082000E400E50164085D
:101C0000DA006508DB00210067082000E600E70134
:101C10006608DC006708DD00210066082000E80097
:101C2000E9016808DE006908DF009131142188317C
:101C300080309F31092788312000A0010030903189
:101C400058208831BD302000A0009F31DC2788312A
:101C500090310B208831200020082104031D312EF3
:101C6000322E282EAC30D700C030D8009830D900A2
:101C700021006D082000E400E5016408DA00650831
:101C8000DB00913114218831C0309F310927883120
:101C90002000A0010830903158208831AC3020005D
:101CA000A0009F31DC27883190310B208831200043
:101CB00020082104031D5D2E5E2E542E80309F319E
:101CC000092788310D302000A000003090315820C5
:101CD0008831FF2F21006303031D6F2E702EB02E5D
:101CE000BD302000D7006730D8009830D9002100DF
:101CF00068082000E400E5016408DA006508DB00FC
:101D0000210067082000E600E7016608DC0067089C
:101D1000DD00210066082000E800E9016808DE0017
:101D20006908DF0091311421883180309F31092703
:101D300088312000A0010030903158208831BD301A
:101D40002000A0009F31DC27883190310B208831A2
:101D5000200020082104031DAE2EAF2EA52EEF2E4D
:101D6000BD302000D7007E30D8009830D900210047
:101D700068082000E400E5016408DA006508DB007B
:101D8000210067082000E600E7016608DC0067081C
:101D9000DD00210066082000E800E9016808DE0097
:101DA0006908DF0091311421883180309F31092783
:101DB00088312000A0010030903158208831BD309A
:101DC0002000A0009F31DC27883190310B20883122
:101DD000200020082104031DEE2EEF2EE52EAC304E
:101DE000D700D830D8009830D900913114218831EB
:101DF000C0309F31092788312000A0010830903180
:101E000058208831AC302000A0009F31DC27883179
:101E100090310B208831200020082104031D112F50
:101E2000122F082F80309F31092788310E30200073
:101E3000A0000030903158208831FF2F210063032B
:101E4000031D232F242F642FBD302000D7006730BF
:101E5000D8009830D900210068082000E400E5018E
:101E60006408DA006508DB00210067082000E6004E
:101E7000E7016608DC006708DD0021006608200035
:101E8000E800E9016808DE006908DF0091311421EB
:101E9000883180309F31092788312000A00100302F
:101EA000903158208831BD302000A0009F31DC27C0
:101EB000883190310B208831200020082104031D37
:101EC000622F632F592FA32FBD302000D7007E3003
:101ED000D8009830D900210068082000E400E5010E
:101EE0006408DA006508DB00210067082000E600CE
:101EF000E7016608DC006708DD00210066082000B5
:101F0000E800E9016808DE006908DF00913114216A
:101F1000883180309F31092788312000A0010030AE
:101F2000903158208831BD302000A0009F31DC273F
:101F3000883190310B208831200020082104031DB6
:101F4000A22FA32F992FAC30D700D830D8009830CB
:101F5000D900913114218831C0309F31092788314F
:101F60002000A0010830903158208831AC3020008A
:101F7000A0009F31DC27883190310B208831200070
:101F800020082104031DC52FC62FBC2F80309F3190
:101F9000092788310F302000A000003090315820F0
:101FA0008831FF2F210069082000E400E501650861
:101FB000003A0319DC2FFF2F6408003A03190428A4
:101FC000013A0319B828033A03196C29013A031995
:101FD000202A073A0319F02C013A0319AD2D033AD0
:101FE00003196A2E013A03191E2F0E3A0319D42A37
:101FF000033A0319882B013A03193C2CFF2F0800E0
:1020000021006A080319052806280928EA01013079
:102010000A2800300800003082314F229031803988
:102020000319132814281A2801302000A0000030BA
:10203000A1001D282000A001A10108002100E3014A
:10204000E601E701E8011430EE000230ED00FB018B
:10205000E901FA0195318525903180317F20903159
:102060000800F400F301741C362837283928720858
:10207000F3070310F20D0310F40C7408031D41283C
:102080004228332873080800B73020009F00FF3033
:102090009D009C012E008C1296160130F200083033
:1020A000F3009E31F7269031803020009E0008001A
:1020B0002000A100210803195E285F286228C03093
:1020C000A20064288030A20020080F392204A20058
:1020D00022089F310927903108002E00101021009E
:1020E0005B08F1005A08F0009F31B92790312200B7
:1020F0006108620403197D287E28832862088A000B
:1021000061080A00903108000F3023001005F2002A
:102110000830720603198D288E2897280F30100575
:10212000F2000B307206031D962897289828911507
:102130000F1C9B289C2898280C0808009F31182702
:1021400090319F31442790319331A32390319F31B7
:10215000312790319F315927903191317E21903133
:102160009F317F2790319031442090319E31BD26A0
:102170009031080001302100E6073C306602031C64
:10218000C228C328D628E6010130E7073C306702A1
:10219000031CCB28CC28D628E7010130E8071830EB
:1021A0006802031CD428D528D628E801080020009E
:1021B0005208D6005108D500E8285008C0004F0842
:1021C000BF005530C1005308C200833193239031C2
:1021D000200055088400560885001200031DF128D0
:1021E000F228DD28CF01D0010800F601F701721CAA
:1021F000FA28FB28FF287408F6077508F73D013018
:10220000F435F50D890B00290130F336F20C890BFA
:10221000052972087304031D0E290F29F728770872
:10222000F3007608F20008005A302100A0002000D8
:1022300057082100A100A201A301A401AA01AB013A
:10224000A1302000CF000030D0005908D20058083B
:10225000D100A030D3009031D72091312000570811
:102260002100230786008701810108002000A901C1
:10227000AA014D292808F600F7017608F200770830
:10228000F3002708F5002608F40093314A23913122
:1022900001302000A9070030AA3D25082907860043
:1022A000013087000108A8002808031D5829592972
:1022B0003A2908000A3021005C02031C60296129C8
:1022C0006229FB017B08031D662967296B29803180
:1022D0007F2091317D297B03031D6F29702974298B
:1022E0008831032091317D2902307B06031D792935
:1022F0007A297D298431BC249131080024008F0182
:1023000090010430910086308D00E8308C002E0062
:10231000101024000D082100DB0024000C0821000F
:10232000DA002E001A140230F2000030F3009E3161
:10233000D92691312E0011101B140230F200083002
:10234000F3009E31FD269131073024008E000800F5
:10235000F701F801720873040319AF29B029DD29C8
:102360000130F600BA290130F235F30D890BB4299A
:102370000130F607F31FBD29BE29B3290130F73517
:10238000F80D890BBF2973087502031DC92972084E
:102390007402031CCC29CD29D2297208F4027308D7
:1023A000F53B77140130F336F20C890BD329013059
:1023B000F602031DDC29DD29BE297808F300770821
:1023C000F20008009E31B82691312100DC017B0823
:1023D000031DEB29EC29F0290130FB00E901242A37
:1023E0007B03031DF429F5290A2A6908013EE90047
:1023F00008306906031DFD29FE29012AFB01E901B8
:10240000242A0C306902031C062A072A242A0430D5
:10241000E900242A02307B06031D0F2A102A242AF1
:102420007A03031D142A152A192AFB01FA01DF0178
:10243000242A02307A06031D1E2A1F2A242A7A081B
:10244000FF3EFA000230DF020800F50023000F0C07
:10245000890C0139F40011081F397404031D312A55
:10246000322A262A11141118362A372A332A0F0C39
:10247000890C0139F40011081F397404031D412A25
:10248000422A372A4E309231AE22923123000F0C6D
:10249000890C0139F40011081F397404031D512AF5
:1024A000522A462A75089231AE22923123000F0C2F
:1024B000890C0139F40011081F397404031D612AC5
:1024C000622A562A11151119662A672A632A0800FA
:1024D00020006C1C6C2A6D2A762A2D08A5002C0879
:1024E000A7002B08A6009131362192312000AF1FA2
:1024F0007A2A7B2A7D2AAE01AF01B001B101912A6F
:102500002030F2000030F30020002C08F5002B08EA
:10251000F40093314A23923101302000B00700309B
:10252000B13D3108803AF8002F08803A7802031D47
:102530009B2A2E083002031C9E2A9F2A802A2000F4
:102540006C18A32AA42AAD2A2D08A5002C08A700E0
:102550002B08A6009131362192310800F300730850
:1025600023008C00901FB52AB62AB72AF82A0F300C
:102570001005F200083072060319BF2AC02AD62AB5
:102580000F301005F2000B3072060319C82AC92A51
:10259000D62A10162E000F1CCE2ACF2ACA2A2300B4
:1025A0000F19D32AD42AF82A0F08F82A0F30100559
:1025B000F200083072060319DE2ADF2AE82A0F30FB
:1025C0001005F2000B307206031DE72AE82AF82AEC
:1025D0000F18EB2AEC2AE82A0F0C890C0139F200BB
:1025E00011081F397204031DF62AF72AEC2A110874
:1025F0000800F701F51FFD2AFE2A052BF409F5094D
:10260000F40A0319F50A0130F700F31F082B092B10
:102610000E2BF209F309F20A0319F30A7208730484
:102620000319132B142B3B2B0130F6001E2B01300A
:10263000F235F30D890B182B0130F607F31F212B10
:10264000222B172B73087502031D282B72087402A6
:10265000031C2B2B2C2B302B7208F4027308F53B38
:102660000130F336F20C890B312B0130F602031DD9
:102670003A2B3B2B222B770803193F2B402B452B62
:10268000F409F509F40A0319F50A7508F30074084A
:10269000F20008007408750403194F2B502B562BB9
:1026A00074087504031D552B562B5B2B7208803163
:1026B00003209331A22B740886008701493116004C
:1026C00001040319642B652B842B74088600870191
:1026D0004931403F2000A000413FA100740886001E
:1026E00087014231403FA200413FA3002308803AC6
:1026F000A4002108803A2402031D802B2008220216
:102700000318832B842BA22B740886008701423187
:102710007408840075088500003F2000A000013F78
:10272000A100403F20078400413F213D8500720801
:1027300080007408860087014231013081074131F1
:102740000318810A080020009A0199019601970157
:102750009801073095000F309100FF309200FF3054
:102760009300FF309400FF303E00D900C430CE000B
:10277000EF30C3000730E400FF30B800DA01E501B4
:10278000C401B9011830CF00E601BA01C501D0017A
:10279000DB01FF30BB00FF30C600FF30D100FF304F
:1027A000DC000730E700FF30BC00FF30C700FF301F
:1027B000D200FF30DD000730E800D512D416D31266
:1027C0000030F2000830F3009E31F12693312E00E4
:1027D00016160C303D0090001330C50014303E003A
:1027E000A30010303D00A90015303E00A4001130B8
:1027F0003D00AA001430C6000800F701F31F012CA9
:10280000022C092CF209F309F20A0319F30A013028
:10281000F700F51F0C2C0D2C142CF409F509F40A03
:102820000319F50A0130F706F801F901720873047B
:1028300003191B2C1C2C492C0130F600262C0130CE
:10284000F235F30D890B202C0130F607F31F292CEC
:102850002A2C1F2C0130F835F90D890B2B2C73080D
:102860007502031D352C72087402031C382C392C98
:102870003E2C7208F4027308F53B78140130F336ED
:10288000F20C890B3F2C0130F602031D482C492C19
:102890002A2C770803194D2C4E2C532CF809F909D2
:1028A000F80A0319F90A7908F3007808F200080019
:1028B0002000A401A501780886008701403FA00000
:1028C000413FA100200884002108850012002A3A17
:1028D000031D6B2C6C2C9B2C780886008701013023
:1028E000810741310318810A7908860087010108B0
:1028F0008400850102308107003FA400013FA5004C
:10290000AF2C2508F3002408F2000A30F400003050
:10291000F5009031F5209431200023087207A400BF
:102920000030733DA50078088600870101308107DB
:1029300041310318810A780886008701403FA000D2
:10294000413FA10020088400210885000008D03EF6
:10295000A3000A302302031CAE2CAF2C812C2508C7
:10296000F9002408F800080020006A086B04031D21
:10297000BA2CBB2CC02C6B08AB006A08AA00C62C72
:102980006A08FF3EAA00FF306B3DAB006C1CC92CEF
:10299000CA2CD82C2708F600F7017608F200770831
:1029A000F3002608F5002508F40093314A239431FA
:1029B0002000AB1BDC2CDD2CDE2CE02CAA01AB01B3
:1029C000A801A901F42C2030F2000030F30020000F
:1029D0002608F5002508F40093314A23943101308C
:1029E0002000A8070030A93D2908803AF6002B08EE
:1029F000803A7602031DFE2C2A082802031C012DB2
:102A0000022DE32C20006C18062D072D152D27080C
:102A1000F600F7017608F2007708F3002608F500C3
:102A20002508F40093314A23943108000130200036
:102A3000B6006B08B8006A08B7001F30B900003054
:102A4000BA002300BF01512DFF30B907FF30BA3D56
:102A50003908A03E8600013087000A30F2000030BD
:102A6000F3003508F5003408F4008731CB279531A1
:102A70007208303E81002000B601FF30B707FF30FA
:102A8000B83D0A30F2000030F3003508F500340894
:102A9000F4009131A821953173082000B500720827
:102AA000B400200039083A040319572D582D752D0C
:102AB00034083504031D5D2D5E2D242D3608031DBD
:102AC000622D632D242D3808803AF9008030790278
:102AD000031D6C2D01303702031C6F2D702D752DD9
:102AE0002000EC18742D752D242D20003308AC0027
:102AF0003208AB003908A03EAD003808AF003708F7
:102B0000AE0092316822953108004130F900EE3074
:102B1000890B882DF90B882D003230309231252217
:102B200095313430923125229531A630890B962D7E
:102B3000003230309231252295310730F9007D3056
:102B4000890BA02DF90BA02D0000303092312522E9
:102B500095313430923125229531A630890BAE2D36
:102B6000003230309231252295312130890BB62D3B
:102B700000003030923125229531343092312522B7
:102B80009531A630890BC22D00323030923125228A
:102B900095312130890BCA2D000020309231252239
:102BA00095312430923125229531A630890BD62DCE
:102BB000003220309231252295310730F9007D30E6
:102BC000890BE02DF90BE02D0000F401283097313E
:102BD0004F279531F401063097314F279531F40195
:102BE0000F3097314F279531F401013097314F273E
:102BF00095310330F9009830890BFC2DF90BFC2D31
:102C0000080000302300C7000030C6000030C500B7
:102C10000030C40090319E2096319F31722796314A
:102C20009531852596319F31CA27963190311E20E6
:102C300096319F317F279631C730F2001E30F30066
:102C40009E31EB2696319331A3239631D330F20097
:102C50001E30F3009E31F12696319E31DF269631EB
:102C6000720873040319352E362E3C2E9E31B02681
:102C700096319131E22196319E31E52696317208E6
:102C800073040319442E452E4B2E9E31B4269631E3
:102C90008631E9269631903100209631003A0319A9
:102CA000522E532E2D2E9031BA2096319F313A2735
:102CB000963175082300C3007408C2007308C10070
:102CC0007208C000440840022200E50023004508C5
:102CD000413B2200E60023004608423B2200E70079
:102CE00023004708433B2200E8006808031D832EA9
:102CF0006708031D832E6608031D832E05306502B9
:102D00000318832E842E8D2E230047084604450485
:102D10004404031D8C2E8D2E992E23004308C700DA
:102D20004208C6004108C5004008C4009F31102772
:102D3000963191315A219631630000002D2E803159
:102D40004C2801302000B900B51BA72EA92E013058
:102D5000AA2E0030BC006B08BB006A08BA003C0811
:102D60000319B32EB42EC82EFF30BA07FF30BB3D77
:102D70003C08031DBC2EBD2EC22E2B30B7000030E8
:102D8000B800C62E2D30B7000030B8003708BC00A0
:102D90001F30BD000030BE002300BF01032FFF30F5
:102DA000BD07FF30BE3D3D08A03E860001308700D4
:102DB0000A30F2000030F3003508F5003408F40062
:102DC0009231F92296317308F9007208F8009F31A8
:102DD000EE2796317808303E81002000B901FF309F
:102DE000BA07FF30BB3D0A30F2000030F30035086F
:102DF000F5003408F4009331FD2396317308200068
:102E0000B5007208B40020003E08803AB600803059
:102E10003602031D0D2F01303D02031C102F112F10
:102E20002F2F200034083504031D172F182FCF2E05
:102E30003908031D1C2F1D2FCF2E3B08803AB600EA
:102E400080303602031D262F01303A02031C292F41
:102E50002A2F2F2F2000EC182E2F2F2FCF2E2000BF
:102E60003C080319342F352F402FFF30BD07FF30AA
:102E7000BE3D3D08A03E8600013087003C08810031
:102E80003308AC003208AB003D08A03EAD003B0863
:102E9000AF003A08AE009231682296310800F60081
:102EA0007608F039F7007608F5000430F535890B1F
:102EB000562F7508F039F80023000F0C890C0139E2
:102EC000F50011081F397504031D672F682F5C2F4B
:102ED000111411186C2F6D2F692F0F0C890C0139EB
:102EE000F50011081F397504031D772F782F6D2FFA
:102EF0004E309231AE22973123000F0C890C0139EC
:102F0000F50011081F397504031D872F882F7C2FAA
:102F10007708740408389231AE22973123000F0CE1
:102F2000890C0139F50011081F397504031D992F0B
:102F30009A2F8E2F770874040C389231AE22973175
:102F400023000F0C890C0139F50011081F39750495
:102F5000031DAB2FAC2FA02F000077087404083896
:102F60009231AE22973123000F0C890C0139F50004
:102F700011081F397504031DBE2FBF2FB32F78080A
:102F8000740408389231AE22973123000F0C890C5B
:102F90000139F50011081F397504031DD02FD12FF9
:102FA000C52F780874040C389231AE229731230073
:102FB0000F0C890C0139F50011081F397504031D28
:102FC000E22FE32FD72F00007808740408389231DD
:102FD000AE22973123000F0C890C0139F50011083E
:102FE0001F397504031DF52FF62FEA2F111511193E
:102FF000FA2FFB2FF72F1030890BFC2F003208001F
:103000000034003400340034003400340034003420
:103010000034003400340034003400340034003410
:103020000034003400340034003400340034003400
:1030300000340034003400340034003400340034F0
:1030400025343034323475343A3425343034323423
:1030500075343A34253430343234753420342534E0
:1030600030343234753443342034253475346C3480
:10307000003425343034323475343A342534303425
:10308000323475343A3425343034323475342034A3
:10309000203420342034203420344134203400348F
:1030A00025343034323475343A34253430343234C3
:1030B00075343A3425343034323475342034203485
:1030C000203420342034203461342034003425343A
:1030D0003034323475343A34253430343234753443
:1030E0003A342534303432347534203420342034AA
:1030F000433454344C344134523400342534303465
:10310000323475343A3425343034323475343A3408
:103110002534303432347534203420342034433470
:1031200054344C3461345234003425343034323425
:103130006434203443342034203420342034203488
:1031400020342034203420342034203420342034DF
:103150002034203400342534303432346434203484
:10316000433420342034203420342034203420349C
:10317000203420344C34203425346334203400345B
:10318000203420342034203420342034203420349F
:10319000203420342034203420344C34203425345E
:1031A000303431346434203400342034203420343A
:1031B000203420342034203420342034203420346F
:1031C000203420342034203420342034203420345F
:1031D000003425343034323475343A3425343034C4
:1031E000323475343A342534303432347534203442
:1031F000433441342034003425343034323475348F
:103200003A3425343034323475343A342534303459
:103210003234753420344C34413420340034253475
:103220003034323475343A342534303432347534F1
:103230003A34253430343234753420345434413403
:043240002034003402
:103D5E0008002100D801D90108002200D701D8019E
:103D6E0008002100E001E101E201080031009601A6
:103D7E0090309500080001340134023414340C34B0
:103D8E0001302100D8000030D90008002E000C10A0
:103D9E009F3165279E31080001302200D700003088
:103DAE00D800080073082200E2007208E100080043
:103DBE0021005908F3005808F200080022005808A4
:103DCE00F3005708F200080073082200DC007208A6
:103DDE00DB00080073082200E4007208E30008000C
:103DEE0073082200DE007208DD000800730822004E
:103DFE00E0007208DF000800640080010131890BC9
:103E0E00042F0034F900F401790897314F279F31C0
:103E1E0008008531E0259F312100E5004830E4009F
:103E2E0008002F0096019701980199019A019B01B4
:103E3E000800F900F401F40A790897314F279F31F1
:103E4E0008003E00D51E2C2F2D2F302F9F318C2792
:103E5E009F310800623031008D008F0191010230D8
:103E6E0093009201080022005408F5005308F40054
:103E7E005208F3005108F2000800803023008F0032
:103E8E0008309000910103308D009012080001302F
:103E9E002200D1070030D23DD33DD43D0130210068
:103EAE00EA00080080302900980099019A019B01D0
:103EBE009D019C01970196019501080022005B0867
:103ECE005C0403196B2F6C2F712F5C088A005B0842
:103EDE000A009F310800803023008F0008309000C8
:103EEE00910103308D0090162000931513160800D3
:103EFE002E000C100B14AF30F2001E30F3009E316A
:103F0E00EB269F312E00161408002200630864046D
:103F1E000319922F932F982F64088A0063080A00C2
:103F2E009F313E00D51208002E008C1222005D0833
:103F3E005E040319A32FA42FA92F5E088A005D0823
:103F4E000A009F3108002E00111022005F08600445
:103F5E000319B22FB32FB82F60088A005F080A002A
:103F6E009F31080024000E1DBD2FBE2FC52F0E1031
:103F7E0071088D0070088C000E14C92F71088D0009
:103F8E0070088C0008003E00B813200091139613A1
:103F9E004E30F2001F30F3009E31D9269F3187310B
:103FAE00FD279F318B170B170800E12F21089F313A
:103FBE0020279F312000200886008701A00A0108D3
:103FCE00A1002108031DEC2FED2FDD2F0800F91B9A
:103FDE00F12FF22FF32FFF2F78092000A00079097F
:103FEE00A100A00A0319A10A2008F8002108F9006F
:023FFE000800B9
:020000040001F9
:08000000FF3FFF3FFF3FFF3F00
:0A000E00EC3FFF3F9F3FFF3FFF3F25
:00000001FF
