:1000000080314028080008007E14803100308600CE
:10001000003087002E00161C0E280F2817280C1CF5
:100020001228132817289231402280313E28161EAC
:100030001A281B2823280C1E1E281F28232892312B
:100040008B2280313E280B1F262827283E281A1C89
:100050002A282B283328101C2E282F2833289431A7
:100060004A2480313E281B1C362837283E28111C84
:100070003A283B283E289331682380317E100900BE
:1000800080314228763084009230850021001200B1
:10009000E4001200E5001200E6001200E700120082
:1000A000E8001200E900FA01FB012000EB01EC017D
:1000B000ED01EE01EF01D6308400003085000E30F6
:1000C000923170228031203084000130850042302E
:1000D000923170228031A0308400013085002030C0
:1000E0009231702280317E1020008E31702EF80007
:1000F00023000F0C890C0139F40011081F39740416
:10010000031D832884287828111411188828892829
:1001100085280F0C890C0139F40011081F3974046B
:10012000031D9328942889284E308831522080312D
:1001300023000F0C890C0139F40011081F397404D5
:10014000031DA328A42898287808FA38883152205B
:10015000803123000F0C890C0139F40011081F397C
:100160007404031DB428B528A9287808FE388831FE
:100170005220803123000F0C890C0139F400110842
:100180001F397404031DC528C628BA28000023009F
:1001900091149118CC28CD28C9280F0C890C01394D
:1001A000F40011081F397404031DD728D828CD285E
:1001B0004F3088315220803123000F0C890C0139D7
:1001C000F40011081F397404031DE728E828DC280F
:1001D000943191248031F60023000F0C890C0139F1
:1001E000F40011081F397404031DF728F828EC28BF
:1001F00091161116111AFD28FE28FA28911491184B
:1002000002290329FF280F0C890C0139F400110879
:100210001F397404031D0D290E2903294E3088311E
:100220005220803123000F0C890C0139F400110891
:100230001F397404031D1D291E2912297808FA3854
:1002400088315220803123000F0C890C0139F400D1
:1002500011081F397404031D2E292F29232978081A
:10026000FE3888315220803123000F0C890C01396F
:10027000F40011081F397404031D3F294029342953
:1002800000002300911491184629472943290F0C97
:10029000890C0139F40011081F397404031D512918
:1002A000522947294F3088315220803123000F0CCA
:1002B000890C0139F40011081F397404031D6129E8
:1002C00062295629943191248031F70023000F0CC4
:1002D000890C0139F40011081F397404031D7129B8
:1002E0007229662991161116111A7729782974290D
:1002F000911491187C297D2979290F0C890C0139D9
:10030000F40011081F397404031D872988297D29E9
:100310004E3088315220803123000F0C890C013976
:10032000F40011081F397404031D972998298C299A
:100330007808FA3888315220803123000F0C890C5C
:100340000139F40011081F397404031DA829A929D3
:100350009D2911151119AD29AE29AA297708F40094
:100360000430F436890BB1290F307405F500760896
:10037000F039750408003F30F200943135248131A2
:100380002E30F20094313524813120006D08D200E6
:100390006C08D3006B08D40003306E060319D12912
:1003A000D229E42909306E060319D729D829E4296E
:1003B0000A306E060319DD29DE29E4290B306E06AA
:1003C000031DE329E429F029210066082000D2005A
:1003D00021005B082000D30021005C082000D4002D
:1003E0003F30A8005208A9009631B32681313A3037
:1003F0002000C1004230A8005308A9009631B3265E
:1004000081313A302000C4004530A8005408A900CA
:100410009631B326813143302000CA005430CB00DE
:100420004C30CC0021006108031D172A182A1E2A0F
:1004300061302000D0000030D100232A413020005C
:10044000D0000030D1005008CD005230CE002E3008
:10045000A800210065082000A9009631B32681314B
:1004600020302000B0004330B1004C30BB002100F0
:100470006408303E2000BD00803092317C22813102
:100480002000A00100309431202481313F30200031
:10049000A0000030A1009431782481319331D02321
:1004A0008131200020082104031D572A582A4E2A92
:1004B000C03092317C2281312000A001083094317B
:1004C000202481312E302000A0000030A100943182
:1004D000782481319331D0238131200020082104F8
:1004E000031D732A742A6A2A803092317C2281315A
:1004F000C62AA001A00A0030943120248131F22ABA
:100500000430A0000030943120248131F22A0730D9
:10051000A0000030943120248131F22A0B30A00059
:100520000030943120248131F22AA001A00A003049
:10053000943120248131F22A0430A000003094311B
:1005400020248131F22A0730A00000309431202489
:100550008131F22A0C30A000003094312024813106
:10056000F22A0D30A0000030943120248131F22A8B
:100570000E30A0000030943120248131F22A0F3057
:10058000A0000030943120248131F22A20006E082E
:10059000AC00AD012D08003A0319CF2AF22A2C082D
:1005A000003A0319792A013A0319802A033A0319F8
:1005B000872A013A03198E2A073A0319AA2A013A0F
:1005C0000319B12A033A0319B82A013A0319BF2AB9
:1005D0000E3A0319952A033A03199C2A013A031982
:1005E000A32AF22A0800AA302000D2002030D3002B
:1005F0009830D4000530F20021005D089331BD230E
:1006000082314E3E86000130870001082100A000A3
:10061000A10120082000D500210021082000D600DB
:100620000530F20021005D089331BD2382314F3E39
:1006300086000130870001082100A200A3012208E2
:100640002000D700210023082000D8000530F20048
:1006500021005D089331BD238231503E8600013078
:10066000870001082100A400A50124082000D9006A
:10067000210025082000DA000530F20021005D0885
:100680009331BD238231513E86000130870001083D
:100690002100A600A70126082000DB002100270872
:1006A0002000DC000530F20021005D089331BD23FD
:1006B0008231523E86000130870001082100A800E7
:1006C000A90128082000DD00210029082000DE0003
:1006D000953102258231803092317C228231200096
:1006E000A0010030943120248231AA302000A000E3
:1006F0000030A1009431782482319331D0238231AB
:10070000200020082104031D862B872B7D2BBB3066
:10071000D2002030D3009830D4000530F200210000
:100720005D089331BD238231533E8600013087003E
:1007300001082100A000A10120082000D50021000F
:1007400021082000D6000530F20021005D08933119
:10075000BD238231543E860001308700010821000C
:10076000A200A30122082000D700210023082000B6
:10077000D8000530F20021005D089331BD2382319D
:10078000553E86000130870001082100A400A50124
:1007900024082000D900210025082000DA000530B7
:1007A000F20021005D089331BD238231563E860060
:1007B0000130870001082100A600A70126082000BB
:1007C000DB00210027082000DC000530F2002100BA
:1007D0005D089331BD238231573E8600013087008A
:1007E00001082100A800A90128082000DD0021003F
:1007F00029082000DE00953102258231C030923177
:100800007C2282312000A0010830943120248231E2
:10081000BB302000A0000030A10094317824823148
:100820009331D0238231200020082104031D192C8C
:100830001A2C102C08002100DA0120006F03031D80
:10084000222C232C122DE72C1830F2000030F3005C
:100850006D08013EF400003003180130F5008831C6
:100860009D20843172082000ED006D08F6000930EB
:1008700093314B2384313A2D3C30F2000030F300A9
:100880006C08013EF400003003180130F500883197
:100890009D20843172082000EC006C08F6000A30BC
:1008A00093314B2384313A2D3C30F2000030F30079
:1008B0006B08013EF400003003180130F500883168
:1008C0009D20843172082000EB003A2D0930EE00A3
:1008D0003A2D1830F2000030F30021006608013E86
:1008E000F400003003180130F50088319D20843178
:1008F00072082100E6006608F600043093314B23AD
:1009000084313A2D3C30F2000030F30021005B08C6
:10091000013EF400003003180130F50088319D20BD
:10092000843172082100DB005B08F600053093314A
:100930004B2384313A2D3C30F2000030F30021008B
:100940005C08013EF400003003180130F5008831E6
:100950009D20843172082100DC005C08F60006301E
:1009600093314B2384313A2D3330F2000030F300C1
:1009700021006508013EF400003003180130F50045
:1009800088319D20843172082100E5006508F60059
:10099000073093314B2384313A2D21006408013E06
:1009A0000339E4006408F600083093314B238431A6
:1009B0003A2D01302100E1066108F6000330933141
:1009C0004B2384313A2D8D310E2584313A2D6E081A
:1009D000F800F9017908003A0319EF2C3A2D78084C
:1009E000003A0319242C013A03193C2C033A031949
:1009F000542C013A0319662C073A0319B42C013A16
:100A00000319CD2C033A0319D92C013A0319E32C0D
:100A10000E3A0319692C033A0319822C013A03197F
:100A20009B2C3A2D6F08031D162D172D1E2D0230FD
:100A3000EF0001302100E200DD013A2D02306F06A7
:100A4000031D232D242D3A2D023021006206031DA3
:100A50002A2D2B2D312D2000EF012100E201DD0197
:100A60003A2D6203031D352D362D3A2D0230E2005A
:100A70000230DD07080023000F0C890C0139F40057
:100A800011081F397404031D462D472D3B2D1114E9
:100A900011184B2D4C2D482D0F0C890C0139F400E9
:100AA00011081F397404031D562D572D4C2D9A30F3
:100AB00088315220853123000F0C890C0139F40054
:100AC00011081F397404031D662D672D5B2D01303D
:100AD00088315220853123000F0C890C0139F40034
:100AE00011081F397404031D762D772D6B2D911479
:100AF00091187B2D7C2D782D0F0C890C0139F40079
:100B000011081F397404031D862D872D7C2D9B3001
:100B100088315220853123000F0C890C0139F400F3
:100B200011081F397404031D962D972D8B2D9431B8
:100B300091248531F50023000F0C890C0139F40054
:100B400011081F397404031DA62DA72D9B2D911686
:100B50001116111AAC2DAD2DA92D0F0C890C0139D0
:100B6000F40011081F397404031DB72DB82DAD2DE5
:100B700011151119BC2DBD2DB92D751FC02DC12DFD
:100B80003B2D0F0C890C0139F40011081F39740436
:100B9000031DCB2DCC2DC12D11141118D02DD12D0D
:100BA000CD2D0F0C890C0139F40011081F39740484
:100BB000031DDB2DDC2DD12D9A308831522085315B
:100BC00023000F0C890C0139F40011081F3974043B
:100BD000031DEB2DEC2DE02D0030883152208531A6
:100BE00023000F0C890C0139F40011081F3974041B
:100BF000031DFB2DFC2DF02D91149118002E012EBC
:100C0000FD2D0F0C890C0139F40011081F397404F3
:100C1000031D0B2E0C2E012E9B3088315220853166
:100C200023000F0C890C0139F40011081F397404DA
:100C3000031D1B2E1C2E102E943191248531F5009E
:100C400023000F0C890C0139F40011081F397404BA
:100C5000031D2B2E2C2E202E91161116111A312E1B
:100C6000322E2E2E0F0C890C0139F40011081F3979
:100C70007404031D3C2E3D2E322E11151119412EE8
:100C8000422E3E2E750808005830F4005A30F50008
:100C900095313F258631A13020005806F1300319E7
:100CA00059060319542E552E732E8A31C0228631CF
:100CB0002000DB01DC015C0893310B23863120002E
:100CC000DB070130DC070B305C02031C682E692E49
:100CD0005B2EA130F600F130F7005B08F80094318C
:100CE000AB248631162FDB01DD015D0893310B2328
:100CF00086312000DB070130DD070B305D02031C6D
:100D0000822E832E752E5A085B060319882E892E93
:100D10008D2E8A31C02286312F2F003093310B2344
:100D200086312100E900013093310B238631210007
:100D3000E800023093310B2386312100E7000330B5
:100D400093310B2386312100E100043093310B23D2
:100D500086312100E600053093310B2386312100D6
:100D6000DB00063093310B2386312100DC00073095
:100D700093310B2386312100E500083093310B239A
:100D800086312100E400093093310B2386312000A5
:100D9000ED000A3093310B2386312000EC000E3039
:100DA000A0000030A1004E30A2004F30A300503010
:100DB000A4005130A5005230A600883108208631A9
:100DC00013302000A0000030A1005330A2005430A6
:100DD000A3005530A4005630A5005730A600883136
:100DE0000820863118302000A0000030A1005830C3
:100DF000A2005930A3005A30A4005B30A5005C303B
:100E0000A6008831082086311D302000A000003067
:100E1000A1005D30A2005E30A3005F30A40060300E
:100E2000A5006130A6008831082086319231302239
:100E300086312200CD01CC01CB012100D9019231B4
:100E40009D2286312100DA012000EF01EE01210010
:100E5000E2018C3109248631873130278631080040
:100E60003F30F2009431352487312E30F200943136
:100E7000352487313F302000A8006D08A900963145
:100E8000B32687313A302000C1004230A8006C08F8
:100E9000A9009631B32687313A302000C40045308E
:100EA000A8006B08A9009631B326873120302000B6
:100EB000C70021006008031D5E2F5F2F652F2030C3
:100EC0002000D0000030D1006A2F43302000D00035
:100ED0000030D1005008C80021005F08031D712FA9
:100EE000722F782F20302000D2000030D3007D2FC9
:100EF00054302000D2000030D3005208C900210035
:100F00005E08031D842F852F8B2F20302000D400F6
:100F10000030D500902F4C302000D4000030D50098
:100F20005408CA0021006108031D972F982F9E2F97
:100F300061302000D6000030D700A32F41302000C0
:100F4000D6000030D7005608CD002E30A8007B0810
:100F5000A9009631B326873120302000B0004330FD
:100F6000B1004C30BB000A30F2000030F3007A08C8
:100F7000AC00AD012C08F4002D08F50088319D204F
:100F800087317208303E2000BD00803092317C22D3
:100F900087312000A00100309431202487313F3078
:100FA0002000A0000030A1009431782487319331D3
:100FB000D0238731200020082104031DE02FE12FDA
:100FC000D72FC03092317C2287312000A001083019
:100FD0009431202487312E302000A0000030A10061
:100FE0009431782487319331D02387312000200831
:100FF0002104031DFC2FFD2FF32F0800080008001B
:10100000F900F401F40A79088D31BF258831080010
:10101000200022088600013087002108F300200804
:10102000F2009231FF2288318100200023088600DF
:10103000013087002008013EF2000030213DF3001E
:101040009231FF228831810020002408860001307F
:1010500087002008023EF2000030213DF30092316B
:10106000FF2288318100200025088600013087009A
:101070002008033EF2000030213DF3009231FF22B0
:101080008831810020002608860001308700200872
:10109000043EF2000030213DF3009231FF228831FE
:1010A00081000800F300730823008C00901F59286A
:1010B0005A285B289C280F301005F2000830720671
:1010C0000319632864287A280F301005F2000B30CA
:1010D000720603196C286D287A2810162E000F1C32
:1010E000722873286E2823000F19772878289C28E7
:1010F0000F089C280F301005F20008307206031903
:10110000822883288C280F301005F2000B307206DD
:10111000031D8B288C289C280F188F2890288C283A
:101120000F0C890C0139F20011081F397204031DDC
:101130009A289B28902811080800F701F51FA1287C
:10114000A228A928F409F509F40A0319F50A0130BF
:10115000F700F31FAC28AD28B228F209F309F20A10
:101160000319F30A720873040319B728B828DF2893
:101170000130F600C2280130F235F30D890BBC288E
:101180000130F607F31FC528C628BB28730875026F
:10119000031DCC2872087402031CCF28D028D42841
:1011A0007208F4027308F53B0130F336F20C890B38
:1011B000D5280130F602031DDE28DF28C62877086F
:1011C0000319E328E428E928F409F509F40A0319C6
:1011D000F50A7508F3007408F20008007408750435
:1011E0000319F328F428FA2874087504031DF92854
:1011F000FA28FF2872088731FE27883146297408AB
:1012000086008701493116000104031908290929BC
:1012100028297408860087014931403F2000A0003A
:10122000413FA1007408860087014231403FA2007F
:10123000413FA3002308803AA4002108803A2402F9
:10124000031D2429200822020318272928294629BA
:10125000740886008701423174088400750885008F
:10126000003F2000A000013FA100403F2007840074
:10127000413F213D85007208800074088600870187
:1012800042310130810741310318810A08002000F2
:10129000A501A11F4C294D295429A009A109A00A83
:1012A0000319A10A0130A500A31F572958295F2956
:1012B000A209A309A20A0319A30A0130A506A601DF
:1012C000A701200821040319662967299429013000
:1012D000A40071290130A035A10D890B6B290130C3
:1012E000A407A11F742975296A290130A635A70D05
:1012F000890B762921082302031D80292008220258
:10130000031C8329842989292008A2022108A33BE0
:1013100026140130A136A00C890B8A290130A402C1
:10132000031D9329942975292508031998299929BA
:101330009E29A609A709A60A0319A70A2708A1003A
:101340002608A00008002000A401A5017808860056
:101350008701403FA000413FA100200884002108F0
:10136000850012002A3A031DB629B729E629780814
:10137000860087010130810741310318810A79080D
:101380008600870101088400850102308107003F43
:10139000A400013FA500FA292508F3002408F20063
:1013A0000A30F4000030F500953120258931200005
:1013B00023087207A4000030733DA500780886005A
:1013C00087010130810741310318810A78088600BE
:1013D0008701403FA000413FA10020088400210870
:1013E00085000008D03EA3000A302302031CF9291F
:1013F000FA29CC292508F9002408F8000800200063
:101400009A019901960197019801073095000F30D4
:101410009100FF309200FF309300FF309400FF30C6
:101420003E00D900C430CE00EF30C3000730E400E6
:10143000AF30B800DA01E501C401B9011830CF00BE
:10144000E601BA01C501D001DB01FF30BB00FF306E
:10145000C600FF30D100FF30DC000730E700FF306E
:10146000BC00FF30C700FF30D200FF30DD00073086
:10147000E800D512D416D3120230F2000030F30087
:101480009231642289312E0016160C303D009000F6
:101490001330C50014303E00A30010303D00A900F9
:1014A00015303E00A4000E30960011303D00AA0019
:1014B000043091001430C6000800210067085A0269
:1014C000031C632A642A662A2000EF0193318823D3
:1014D0008A312100CC0120006D0821006606031D21
:1014E000722A732A852A20006C0821005B06031DDE
:1014F0007A2A7B2A852A20006B0821005C06031DBE
:10150000822A832A852A0130CC004C08CD0061084C
:10151000031D8B2A8C2A912A21004D082200CB0022
:10152000A32A4D080319952A962A8C2A22004B08D3
:10153000031D9B2A9C2A8C2A01302100E000933154
:10154000F7238A318C2A20006F08031DA82AA92AB4
:10155000AD2A873130278A31BF2A6F03031DB12A94
:10156000B22AB62A8131BB218A31BF2A02306F06E6
:10157000031DBB2ABC2ABF2A8231F3228A3108000C
:1015800005302100E9000330E8000A30E700E101FE
:101590000C30E600DB01DC011430E5000230E40031
:1015A0002000ED01EC01EB0121006908F60000309C
:1015B00093314B238A3121006808F60001309331C2
:1015C0004B238A3121006708F600023093314B2308
:1015D0008A3121006108F600033093314B238A31B0
:1015E00021006608F600043093314B238A31210034
:1015F0005B08F600053093314B238A3121005C08EB
:10160000F600063093314B238A3121006508F6003D
:10161000073093314B238A3121006408F6000830EB
:1016200093314B238A318D310E258A312200D1012D
:10163000D201FF30D6000330D700DB01DC01FF30E0
:10164000E0000330E10008007B082200510203188B
:101650002A2B2B2B402B7B08D10020006D08220069
:10166000CE0020006C082200CF0020006B08220072
:10167000D0000130F6000030F7008C3185248B312A
:10168000220056087B020318462B472B5C2B7B0855
:10169000D60020006D082200D30020006C08220034
:1016A000D40020006B082200D5000230F600003084
:1016B000F7008C3185248B317A0822005C020318F4
:1016C000622B632B782B7A08DC0020006D08220047
:1016D000D80020006C082200D90020006B082200EE
:1016E000DA000330F6000030F7008C3185248B31AE
:1016F000220061087A0203187E2B7F2B942B7A0834
:10170000E10020006D082200DD0020006C082200AE
:10171000DE0020006B082200DF000430F6000030FD
:10172000F7008C3185248B31080001302000B60091
:10173000220042082000B800220041082000B70023
:101740001F30B9000030BA002300BF01D52BFF3095
:101750002000B907FF30BA3D3908A03E86000130AD
:1017600087000A30F2000030F3003508F500340835
:10177000F4009531D4258B317208303E8100200071
:10178000B601FF30B707FF30B83D0A30F200003035
:10179000F3003508F5003408F40096313E268B310D
:1017A00073082000B5007208B400200039083A041C
:1017B0000319DB2BDC2BF92B34083504031DE12B3B
:1017C000E22BA72B3608031DE62BE72BA72B3808A7
:1017D000803AF90080307902031DF02B0130370286
:1017E000031CF32BF42BF92B2100D818F82BF92B21
:1017F000A72B20003308AC003208AB003908A03E0C
:10180000AD003808AF003708AE009731B8278B31EC
:1018100008004130F900EE30890B0C2CF90B0C2C30
:1018200000323030973175278C313430973175273D
:101830008C31A630890B1A2C003230309731752745
:101840008C310730F9007D30890B242CF90B242CC6
:1018500000003030973175278C313430973175273F
:101860008C31A630890B322C0032303097317527FD
:101870008C312130890B3A2C00003030973175279C
:101880008C313430973175278C31A630890B462C3A
:1018900000323030973175278C312130890B4E2C36
:1018A00000002030973175278C312430973175270F
:1018B0008C31A630890B5A2C003220309731752795
:1018C0008C310730F9007D30890B642CF90B642CC6
:1018D0000000F40128308D31BF258C31F401063031
:1018E0008D31BF258C31F4010F308D31BF258C3106
:1018F000F40101308D31BF258C310330F90098306F
:10190000890B802CF90B802C0800FA2C0E3020005B
:10191000A0000030A10022004E082000A2002200FA
:101920004F082000A300220050082000A40022003D
:1019300051082000A500220052082000A600963180
:1019400078268C310D2D13302000A0000030A1002E
:10195000220053082000A200220054082000A30007
:10196000220055082000A400220056082000A500EF
:10197000220057082000A600963178268C310D2DC4
:1019800018302000A0000030A100220058082000DC
:10199000A200220059082000A30022005A082000BB
:1019A000A40022005B082000A50022005C082000A3
:1019B000A600963178268C310D2D1D302000A00018
:1019C0000030A10022005D082000A20022005E0875
:1019D0002000A30022005F082000A400220060086D
:1019E0002000A500220061082000A600963178267C
:1019F0008C310D2D7708003A0319FF2C0D2D760838
:101A0000013A0319862C033A0319A32C013A03194E
:101A1000C02C073A0319DD2C0D2D0800F601053006
:101A2000F20076089331BD238D314E3E86000130A1
:101A3000870081010530F20076089331BD238D3196
:101A40004F3E86000130870081010530F2007608A4
:101A50009331BD238D31503E8600013087008101D6
:101A60000530F20076089331BD238D31513E86005A
:101A70000130870081010530F20076089331BD23E3
:101A80008D31523E86000130870081010130F6071A
:101A900004307602031C4D2D4E2D0F2D0E302000EC
:101AA000A0000030A10022004E082000A200220069
:101AB0004F082000A300220050082000A4002200AC
:101AC00051082000A500220052082000A6009631EF
:101AD00078268D3113302000A0000030A1002200B4
:101AE00053082000A200220054082000A300220076
:101AF00055082000A400220056082000A50022005E
:101B000057082000A600963178268D311830200025
:101B1000A0000030A100220058082000A2002200EE
:101B200059082000A30022005A082000A400220027
:101B30005B082000A50022005C082000A60096316A
:101B400078268D311D302000A0000030A100220039
:101B50005D082000A20022005E082000A3002200F1
:101B60005F082000A400220060082000A5002200D9
:101B700061082000A600963178268D310800F60015
:101B80007608F039F7007608F5000430F535890B52
:101B9000C62D7508F039F80023000F0C890C0139A7
:101BA000F50011081F397504031DD72DD82DCC2D34
:101BB00011141118DC2DDD2DD92D0F0C890C0139D4
:101BC000F50011081F397504031DE72DE82DDD2DE3
:101BD0004E30883152208D3123000F0C890C013991
:101BE000F50011081F397504031DF72DF82DEC2D94
:101BF000770874040838883152208D3123000F0C87
:101C0000890C0139F50011081F397504031D092ECF
:101C10000A2EFE2D770874040C38883152208D313D
:101C200023000F0C890C0139F50011081F397504C8
:101C3000031D1B2E1C2E102E00007708740408387C
:101C4000883152208D3123000F0C890C0139F500A9
:101C500011081F397504031D2E2E2F2E232E7808F0
:101C600074040838883152208D3123000F0C890C00
:101C70000139F50011081F397504031D402E412E4E
:101C8000352E780874040C38883152208D312300A9
:101C90000F0C890C0139F50011081F397504031D5B
:101CA000522E532E472E00007808740408388831CD
:101CB00052208D3123000F0C890C0139F5001108D9
:101CC0001F397504031D652E662E5A2E1115111924
:101CD0006A2E6B2E672E1030890B6C2E0032080096
:101CE00000302300C7000030C6000030C5000030BF
:101CF000C400953185258E31933124238E318C316A
:101D000009248E31933199238E31803092317C2297
:101D10008E312000A0010030943120248E313930E2
:101D20002000A0009830A100943178248E319331A6
:101D3000D0238E31200020082104031DA02EA12EC7
:101D4000972E863144268E31933131238E313A30AD
:101D5000F2001230F30092315E228E318931FF2180
:101D60008E314630F2001230F300923164228E310F
:101D7000923152228E31720873040319C02EC12E83
:101D8000C72E923128228E31973133278E319231EE
:101D900058228E31720873040319CF2ED02ED62EFE
:101DA00092312C228E3184311B248E319231C52206
:101DB0008E31003A0319DD2EDE2EB82E963106261E
:101DC0008E319231A6228E3175082300C30074082B
:101DD000C2007308C1007208C00021006908CE006B
:101DE000CF01D001D1012300440840022100D200DC
:101DF00023004508413B2100D30023004608423B15
:101E00002100D40023004708433B2100D50051089E
:101E10005502031D152F50085402031D152F4F089E
:101E20005302031D152F4E0852020318182F192FA5
:101E3000222F23004708460445044404031D212F94
:101E4000222F2E2F23004308C7004208C600410856
:101E5000C5004008C4009231DB228E318A315D22F8
:101E60008E3163000000B82E8031402820003D08EC
:101E700086008701403FBF00413FC0003F0884000B
:101E8000400885001200253A031D472F482FE52FF3
:101E90003D08860087010130810741310318810A1E
:101EA0002200C101C20100302100D800FF30220011
:101EB000C300FF30C4002000C7017D2F2100D814CB
:101EC00020003D0886008701013081074131031859
:101ED000810A7D2F0130C7007D2F3D0886008701D4
:101EE000403FBF00413FC0003F08840040088500DC
:101EF0000008303A03195E2F6A2F47080319812F13
:101F0000822F6D2F3D08F8003E08F9008931A3218A
:101F10008F3179082200C2007808C100C21F912FBA
:101F2000922F9A2F210058142200C109C209C10A18
:101F30000319C20A20003D0886008701403FC800FF
:101F4000413FC90048088400490885001200753ADD
:101F5000031DAB2FAC2FDB2F3E0886008701010845
:101F60008400850102308107003FC300013FC400A7
:101F70004808013EBF000030493DC0003D088600D2
:101F800087013F08C03F4008C13FD22F3C08B30043
:101F90003B08B2004408B5004308B4008B319523D8
:101FA0008F31FF2F48088400490885000008753AE2
:101FB0000319C62FDB2F20003D0886008701013062
:101FC000810741310318810AFF2F3D0886008701F0
:101FD000403FBF00413FC0003F08840040088500EB
:101FE0000008C100C2014108F2004208F3003C08A9
:101FF000F5003B08F4008831EE208F31DB2F08001C
:10244200080024000E14080027008E17080022003E
:10245200C701C80108002200C501C6010800210009
:10246200DE01DF01E00108003100960190309500A5
:10247200080001302200C7000030C80008002E000A
:102482000C10933117239231080001302200C5004D
:102492000030C600080073082200E7007208E60058
:1024A200080022004808F3004708F2000800220052
:1024B2004608F3004508F200080073082200E30012
:1024C2007208E200080073082200E9007208E800BE
:1024D200080073082200E5007208E40008006400A6
:1024E20080010131890B712A0034023414340C3416
:1024F2000A3403340534F900F40179088D31BF251B
:10250200923108002F0096019701980199019A01D2
:102512009B0108003E00D51E8F2A902A932A9331F0
:10252200592392310800623031008D008F019101F0
:1025320002309300920108000030F200F30094315F
:102542000B24923127008E13080022004008F50068
:102552003F08F4003E08F3003D08F2000800803016
:1025620023008F0008309000910103308D009012FB
:10257200080001302200BD070030BE3DBF3DC03D16
:1025820001302100E3000800210063080319CA2A70
:10259200CB2ACE2AE3010130CF2A003008002000E6
:1025A2009F01FF309D009C012E008C128030200084
:1025B2009E00080085313B259231FB009331E323D5
:1025C2009231FA008B3124239231080080302700A7
:1025D2008E008D0140308C0024001F08F33904382E
:1025E2009F00080080302900980099019A019B0100
:1025F2009D019C0197019601950108007308300026
:102602009B0072089A001E171E1400000000300082
:102612001C080800F4007408033EF200003003189E
:102622000130F3009231FF22933108002200620848
:10263200630403191D2B1E2B232B63088A006208D7
:102642000A0093310800803023008F000830900088
:10265200910103308D009016200093151316080087
:102662002E000C100B142130F2001230F3009231C4
:102672005E2293312E0016140800013025009000CE
:102682008F0191018D018C012E0090108030250068
:102692008E000800F7007708033EF20000300318AE
:1026A2000130F3007608F4009431C6249331080017
:1026B20022006808690403195F2B602B652B6908E7
:1026C2008A0068080A0093313E00D51208002E00E5
:1026D20011102200640865040319702B712B762BEC
:1026E20065088A0064080A009331080024000E1D60
:1026F2007B2B7C2B832B0E1071088D0070088C00B5
:102702000E14872B71088D0070088C0008002100C0
:102712005908031D8D2B8E2B8F2B982B0130D9023C
:10272200031D942B952B982B92319D2293310800F7
:102732003E00B813200091139613BA30F200123003
:10274200F30092314C2293319231222293318B1732
:102752000B170800F400740821009E00931713134E
:102762001314000021001318B72BB82BB32B0D083C
:10277200F3000C08F2000800F400F301741CC22BF1
:10278200C32BC52B7208F3070310F20D0310F40CD0
:102792007408031DCD2BCE2BBF2B7308080000300D
:1027A20080317720933180390319D82BD92BDF2B35
:1027B20001302000A0000030A100E22B2000A00187
:1027C200A101080000309331AB2393317308F60066
:1027D2007208F5007608F70004307702031CF22B2A
:1027E200F32BF52B0330F700770808002100590876
:1027F2000319FC2BFD2BFE2B0A2C0330D9000030D1
:10280200F2000230F30094310B24933192312522ED
:10281200933108007308F5007208F400F536F40CE1
:10282200F536F40C740827008D0072080339F400A1
:102832000630F435890B1A2C74088C00080020002D
:10284200A10021080319262C272C2A2CC030A20013
:102852002C2C8030A20020080F392204A20022086A
:1028620092317C2294310800F301720873078600CA
:102872008701203081000130F30710307302031CFE
:10288200432C442C362C7208103E860087018101AD
:1028920008002E00101021005708F1005608F00021
:1028A20093317723943122006608670403195A2C66
:1028B2005B2C602C67088A0066080A0094310800C5
:1028C20022008E018F0190019101920193018D01ED
:1028D20021009E019B019C019401950196019701A3
:1028E2009A0199019801843093009D0108007D2C82
:1028F200240888310020943120002108A3002008F8
:10290200A200A00A0319A10A220884002308850054
:102912000008A4002408031D8F2C902C792C080099
:102922000F3023001005F2000830720603199A2CAA
:102932009B2CA42C0F301005F2000B307206031DE5
:10294200A32CA42CA52C91150F1CA82CA92CA52CCA
:102952000C0808000030F200F3007608F40094310D
:10296200C62494310130F2000030F3007708F400FD
:102972009431C62494310230F2000030F30078081A
:10298200F4009431C624943108000B0D0B0D01396B
:10299200F500730830009B0072089A0074089C00CE
:1029A2001E171E158B1355309F00AA309F009E14D0
:1029B2009E18DC2CDD2CD92C1E11750C031C8B13DC
:1029C20003188B17080020004D08D1004C08D000D6
:1029D200F52C4B08BC004A08BB005030BD004E0825
:1029E200BE008F31362794312000500884005108F0
:1029F20085001200031DFE2CFF2CEA2CCA01CB011C
:102A0200080055302000DF005208E000E101E20139
:102A1200E301E901EA016030CA000030CB0054084A
:102A2200CD005308CC005F30CE009431E4249531C0
:102A32002000520862078600870181010800F60122
:102A4200F701721C252D262D2A2D7408F60775080C
:102A5200F73D0130F435F50D890B2B2D0130F3369E
:102A6200F20C890B302D72087304031D392D3A2D97
:102A7200222D7708F3007608F20008000030F200F9
:102A8200F3009231FF229531F6000130F20000305E
:102A9200F3009231FF229531F70074088600870116
:102AA2007608C03F7708C13F75088600870102306B
:102AB200F2000030F3009231FF22953181000800CC
:102AC2002000A901AA01782D2808F600F70176084E
:102AD200F2007708F3002708F5002608F400883191
:102AE200EE20953101302000A9070030AA3D2508CB
:102AF20029078600013087000108A8002808031D65
:102B0200832D842D652D08009231832295319231D7
:102B1200B02295318931FF2195319231942295313C
:102B22009231E72295319431612495319231F32229
:102B3200953193313E2395319531AA2595319331C3
:102B4200312395319231D02295319231352295310E
:102B5200080024008F0190010430910086308D001E
:102B6200E8308C002E00101024000D082100D70040
:102B720024000C082100D6002E001A14FF30F200A7
:102B82000730F30092314C2295312E0011101B14A4
:102B92000330F2000030F30092316A22953107309F
:102BA20024008E000800720873040319D92DDA2D4F
:102BB200012E0130F600E42D0130F235F30D890BC0
:102BC200DE2D0130F607F31FE72DE82DDD2D73080A
:102BD2007502031DEE2D72087402031CF12DF22DF5
:102BE200F62D7208F4027308F53B0130F336F20C4D
:102BF200890BF72D0130F602031D002E012EE82D60
:102C02007508F3007408F200080001302000EB0799
:102C12003C306B02031C0E2E0F2E3D2EEB010130B9
:102C2200EC073C306C02031C172E182E372EEC01D9
:102C32006C08F6000A3093314B23963101302000A4
:102C4200ED0718306D02031C272E282E302EED01C1
:102C52006D08F600093093314B2396313D2E6D08F5
:102C6200F600093093314B2396313D2E6C08F60065
:102C72000A3093314B2396310800F701F8017208AC
:102C820073040319452E462E732E0130F600502E82
:102C92000130F235F30D890B4A2E0130F607F31F8E
:102CA200532E542E492E0130F735F80D890B552E2F
:102CB20073087502031D5F2E72087402031C622ED4
:102CC200632E682E7208F4027308F53B7714013004
:102CD200F336F20C890B692E0130F602031D722EB7
:102CE200732E542E7808F3007708F20008002000B3
:102CF2002108F3002008F2002208F4009431C624CF
:102D0200963120002008013EF2000030213DF30000
:102D12002308F4009431C624963120002008023E94
:102D2200F2000030213DF3002408F4009431C6245F
:102D3200963120002008033EF2000030213DF300CE
:102D42002508F4009431C624963120002008043E60
:102D5200F2000030213DF3002608F4009431C6242D
:102D6200963108000A30F2000030F30020002908F2
:102D7200F800F9017808F4007908F50088319D20FF
:102D8200963172082000AB000A30A0000030A1008A
:102D92006430F2000030F3002908F800F9017808E5
:102DA200F4007908F50088319D20963120002B0827
:102DB2007202A2000030733BA30089314721963191
:102DC20020002008AA002808860087012A08303E31
:102DD2008100280A860087012B08303E8100080006
:102DE200F400072F0130322F0230322F0330322FFE
:102DF2000430322F0530322F0630322F0730322F77
:102E02000030322F0A30322F0B30322F7408F2008A
:102E1200F3017308003A03190F2F012F7208003AC9
:102E22000319F32E013A0319F52E033A0319F72E6B
:102E3200013A0319F92E073A0319FB2E013A031935
:102E4200FD2E033A0319FF2E013A0319012F0E3A00
:102E52000319032F033A0319052F013A0319F92E17
:102E6200012F08009231302297312100DA0120002F
:102E72006F08031D3D2F3E2F422F0130EF00EE0160
:102E8200742F6F03031D462F472F592F6E0896315B
:102E9200F1269731F500073020006E06031D522FF0
:102EA200532F562FEF01EE01742F7508EE00742F89
:102EB20002306F06031D5E2F5F2F742F2100620305
:102EC200031D642F652F6B2F2000EF012100E2010B
:102ED200DD01742F02306206031D702F712F742FD3
:102EE2000130E200DD010800F50023000F0C890C1F
:102EF2000139F40011081F397404031D812F822F38
:102F0200762F11141118862F872F832F0F0C890CFF
:102F12000139F40011081F397404031D912F922FF7
:102F2200872F4E3088315220973123000F0C890CA5
:102F32000139F40011081F397404031DA12FA22FB7
:102F4200962F750888315220973123000F0C890C77
:102F52000139F40011081F397404031DB12FB22F77
:102F6200A62F11151119B62FB72FB32F0800210064
:102F7200581CBC2FBD2FC72F20002D08A5002C08E0
:102F8200A7002B08A6009531612597312000AF1FBD
:102F9200CB2FCC2FCE2FAE01AF01B001B101E22F6A
:102FA2002030F2000030F30020002C08F5002B083E
:102FB200F4008831EE20973101302000B007003054
:102FC200B13D3108803AF8002F08803A7802031D9B
:102FD200EC2F2E083002031CEF2FF02FD12F2100EF
:102FE2005818F42FF52FFF2F20002D08A5002C08CC
:102FF200A7002B08A60095316125973108000034FF
:10300200003400340034003400340034003400341E
:10301200003400340034003400340034003400340E
:1030220000340034003400340034003400340034FE
:1030320000340034003400340034003400342534C9
:103042003034323475343A342534303432347534D1
:103052003A34253430343234753420342534303423
:103062003234753443342034253475346C340034AE
:1030720041346E34743465347334203464346F34C0
:0C308200203449344E34493454340034B6
:020000040001F9
:08000000FF3FFF3FFF3FFF3F00
:0A000E00EC3FFF3F9F3FFF3FFF3F25
:00000001FF
