:1000000080314C28013401347E1480310030860068
:10001000003087002E00161C0E280F2817280C1CF5
:100020001228132817288931552180314A28961E15
:100030001A281B2823288C1E1E281F2823288A31B3
:10004000022280314A28161E262827282F280C1E17
:100050002A282B282F2889318F2180314A280B1FED
:10006000322833284A281A1C362837283F28101CE3
:100070003A283B283F288A31A52280314A281B1C78
:10008000422843284A28111C462847284A288A31F2
:10009000112280317E10090080314E2822008031EB
:1000A00002208031EE00803103208031EF00FA0120
:1000B000FB01203084000130850034308931792102
:1000C0008031A030840001308500243089317921CD
:1000D00080317E1020008531AB2D20004108860044
:1000E0008701403FC300413FC400430884004408E7
:1000F00085001200253A031D7E287F288F2941089C
:10010000860087010130810741310318810A2200EE
:10011000C301C4010030C900FF302300A000FF303C
:10012000A1002000C801B3282200C9142000410802
:10013000860087010130810741310318810AB32805
:100140000130C800B328410886008701403FC30042
:10015000413FC40043088400440885000008303A49
:1001600003199428A02848080319B728B828A328F9
:100170004108F8004208F9008E31B926803179082B
:100180002200C4007808C300C41FC728C828CE288E
:100190004914C309C409C30A0319C40A2000410849
:1001A00086008701403FC300413FC40043088400EC
:1001B000440885001200633A031DDF28E028012966
:1001C0004108860087010130810741310318810A07
:1001D00042088600870101088400850102308107FA
:1001E0000008C7004008A6003F08A5004708A70070
:1001F0008F311527803120002608C0002508BF0058
:10020000B529410886008701403FCD00413FCE001F
:100210004D0884004E0885001200643A0319112924
:1002200012291C294D0884004E0885001200693AE5
:10023000031D1B291C294629420886008701010845
:100240008400850102308107003FC900013FCA00D8
:100250004D08013EC30000304E3DC40041088600F9
:1002600087014308C03F4408C13F4008B3003F082E
:10027000B2004A08B5004908B40083319F23803199
:1002800020003308C0003208BF00B5294D088400A3
:100290004E0885001200753A031D4F295029842904
:1002A0004208860087010108840085010230810729
:1002B000003FC900013FCA004D08013EC3000030A5
:1002C0004E3DC4004108860087014308C03F4408F2
:1002D000C13F7B294008B3003F08B2004A08B5007F
:1002E0004908B4008F318727803120003308C000CF
:1002F0003208BF00B5294D0884004E08850000086B
:10030000753A03196A29842941088600870101305A
:10031000810741310318810ABF01C001B529410895
:1003200086008701403FC300413FC400430884006A
:10033000440885000008C500C6014508F2004608CB
:10034000F3004008F5003F08F4008D31AB25803103
:1003500020004108860087010130810741310318E0
:10036000810A0130BF000030C000080023000F0CDC
:10037000890C0139F40011081F397404031DC129C7
:10038000C229B62911141118C629C729C3290F0C6F
:10039000890C0139F40011081F397404031DD12997
:1003A000D229C7299A308C31BA24813123000F0C0D
:1003B000890C0139F40011081F397404031DE12967
:1003C000E229D62901308C31BA24813123000F0C67
:1003D000890C0139F40011081F397404031DF12937
:1003E000F229E62991149118F629F729F3290F0C1F
:1003F000890C0139F40011081F397404031D012A06
:10040000022AF7299B308C31BA24813123000F0C4A
:10041000890C0139F40011081F397404031D112AD5
:10042000122A062A8A31D4228131F50023000F0CCA
:10043000890C0139F40011081F397404031D212AA5
:10044000222A162A91161116111A272A282A242A36
:100450000F0C890C0139F40011081F397404031DB5
:10046000322A332A282A11151119372A382A342A10
:10047000751F3B2A3C2AB6290F0C890C0139F40060
:1004800011081F397404031D462A472A3C2A1114F7
:1004900011184B2A4C2A482A0F0C890C0139F400F8
:1004A00011081F397404031D562A572A4C2A9A3002
:1004B0008C31BA24813123000F0C890C0139F400EE
:1004C00011081F397404031D662A672A5B2A00304D
:1004D0008C31BA24813123000F0C890C0139F400CE
:1004E00011081F397404031D762A772A6B2A911488
:1004F00091187B2A7C2A782A0F0C890C0139F40088
:1005000011081F397404031D862A872A7C2A9B3010
:100510008C31BA24813123000F0C890C0139F4008D
:1005200011081F397404031D962A972A8B2A8A31D1
:10053000D4228131F50023000F0C890C0139F4001D
:1005400011081F397404031DA62AA72A9B2A911695
:100550001116111AAC2AAD2AA92A0F0C890C0139DF
:10056000F40011081F397404031DB72AB82AAD2AF4
:1005700011151119BC2ABD2AB92A750808000330C3
:100580007A060319C42AC52ACB2A20302100E100AB
:100590000030E200D02A5E302100E1000030E200AD
:1005A0006108DE0004307A060319D72AD82ADD2A2A
:1005B0002030E3000030E400E12A5E30E300003048
:1005C000E4006308DF0005307A060319E82AE92A07
:1005D000EE2A2030E5000030E600F22A5E30E50029
:1005E0000030E6006508E00022004F08031DF92AEC
:1005F000FA2A002B61302100E7000030E800052BCB
:1006000041302100E7000030E800BC302000D70076
:100610001130D8000030D9003B30DA009030DB00D8
:10062000220052082100B000B10130082000DC0097
:10063000210031082000DD00220051082100B20015
:10064000B30132082000DE00210033082000DF0063
:10065000220050082100B400B50134082000E00059
:10066000210035082000E10021005E08B600B70136
:1006700036082000E200210037082000E3002100B6
:100680005F08B800B90138082000E40021003908EB
:100690002000E50021006008BA00BB013A082000F4
:1006A000E60021003B082000E70021006808200048
:1006B000E900210067082000E80086313B268231EE
:1006C000CD302000D7001130D8000030D90055308F
:1006D000DA009030DB0022004B082100B000B101AD
:1006E00030082000DC00210031082000DD0022005D
:1006F0004A082100B200B30132082000DE002100C8
:1007000033082000DF0086313B268231803087317C
:10071000F9278231BC302000A0000030A1008A31CE
:100720007B228231C0308731F9278231CD302000E1
:10073000A0000030A1008A317B2282310800013004
:100740002000B900B51BA52BA72B0130A82B00302A
:10075000BC00220044082000BB0022004308200007
:10076000BA003C080319B52BB62BCA2BFF30BA07C9
:10077000FF30BB3D3C08031DBE2BBF2BC42B2B30D1
:10078000B7000030B800C82B2D30B7000030B800DB
:100790003708BC001F30BD000030BE002300C3017D
:1007A000062CFF302000BD07FF30BE3D3D08A43EB3
:1007B0008600013087000A30F2000030F30035086F
:1007C000F5003408F4008D31052583317308F900F4
:1007D0007208F8008A31432283317808303E810064
:1007E0002000B901FF30BA07FF30BB3D0A30F200EC
:1007F0000030F3003508F5003408F4008E315E2631
:10080000833173082000B5007208B40020003E0850
:10081000803AB60080303602031D102C01303D02B4
:10082000031C132C142C322C200034083504031D17
:100830001A2C1B2CD12B3908031D1F2C202CD12B3B
:100840003B08803AB60080303602031D292C013067
:100850003A02031C2C2C2D2C322C2200C918312CCE
:10086000322CD12B20003C080319372C382C432C78
:10087000FF30BD07FF30BE3D3D08A43E860001307D
:1008800087003C0881003308AC003208AB003D080B
:10089000A43EAD003B08AF003A08AE008D315625AE
:1008A000833120002C08B3002B08B2000800F600AA
:1008B0007608F039F7007608F5000430F535890B35
:1008C0005E2C7508F039F80023000F0C890C0139F3
:1008D000F50011081F397504031D6F2C702C642C52
:1008E00011141118742C752C712C0F0C890C0139F2
:1008F000F50011081F397504031D7F2C802C752C01
:100900004E308C31BA24843123000F0C890C01390C
:10091000F50011081F397504031D8F2C902C842CB1
:100920007708740408388C31BA24843123000F0C02
:10093000890C0139F50011081F397504031DA12C1C
:10094000A22C962C770874040C388C31BA2484318C
:1009500023000F0C890C0139F50011081F397504AB
:10096000031DB32CB42CA82C00007708740408389D
:100970008C31BA24843123000F0C890C0139F50025
:1009800011081F397504031DC62CC72CBB2C780811
:10099000740408388C31BA24843123000F0C890C7C
:1009A0000139F50011081F397504031DD82CD92C05
:1009B000CD2C780874040C388C31BA24843123008F
:1009C0000F0C890C0139F50011081F397504031D3E
:1009D000EA2CEB2CDF2C00007808740408388C31EA
:1009E000BA24843123000F0C890C0139F500110859
:1009F0001F397504031DFD2CFE2CF22C1115111945
:100A0000022D032DFF2C1030890B042D003208001D
:100A100022004F08031D0D2D0E2D142D61302100D5
:100A2000C7000030C800192D41302100C700003038
:100A3000C80022004C08031D1E2D1F2D252D20301F
:100A40002100C9000030CA002A2D4C302100C90005
:100A50000030CA0022004D08031D2F2D302D362DE9
:100A600020302100CB000030CC003B2D5430210041
:100A7000CB000030CC0022004E08031D402D412D3C
:100A8000472D20302100CD000030CE004C2D4330CA
:100A90002100CD000030CE00B6302000D70011304C
:100AA000D8000030D9002030DA009030DB0022007E
:100AB00052082100B000B10130082000DC00210004
:100AC00031082000DD00220051082100B200B301EE
:100AD00032082000DE00210033082000DF00220061
:100AE00050082100B400B50134082000E0002100C6
:100AF00035082000E10021004E082000E30021001D
:100B00004D082000E20021004C082000E5002100F3
:100B10004B082000E40021004A082000E7002100E3
:100B200049082000E600210048082000E9002100D3
:100B300047082000E80086313B2685318030873128
:100B4000F9278531B6302000A0000030A1008A319D
:100B50007B228531080000302200ED000030EC00DF
:100B60000030EB000030EA008A31EE228531893115
:100B7000D92185318731432785318A313122853129
:100B80008A31552285318931B5218531003A0319E1
:100B9000CA2DCB2D362E8931A12185317508220031
:100BA000E9007408E8007308E7007208E6008C3179
:100BB0007524853122006A0866022100E9002200BE
:100BC0006B08673B2100EA0022006C08683B2100AB
:100BD000EB0022006D08693B2100EC006C08031D4E
:100BE000FC2D6B08031DFC2D6A08031DFC2D053030
:100BF00069020318FC2DFD2D062E22006D086C04E1
:100C00006B046A04031D052E062E362E2200690889
:100C1000ED006808EC006708EB006608EA00813127
:100C2000B62185312200E500C0308731F9278531B2
:100C300054302000D7006430D8009030D900220012
:100C400065082100E900EA0169082000DA002100B6
:100C50006A082000DB008B3163238531543020008B
:100C6000A0000130A1008A317B22853163000000A1
:100C7000C32D80314C2880302000590200300319E8
:100C80005802031C442E452E4B2E4B302300A2004D
:100C90000030A300C32E5C302100A40020005708C0
:100CA0002100A500A60100302000590202300319DE
:100CB0005802031C5C2E5D2E692E5808FF3E210051
:100CC000AE00FF302000593D2100AF00A701A80170
:100CD000722E01302100AE000030AF000130A700BD
:100CE0000030A800A5302000CF000030D0005B0805
:100CF000D2005A08D100A430D3008B31D1238631E1
:100D0000200050082100A30020004F082100A2006D
:100D100020005808590403198E2E8F2EC32E21004F
:100D2000A31B932E942EC32E20005808FF3EEA00EA
:100D3000FF30593DEB0021002308803A2000EC00F1
:100D40006B08803A6C02031DA82E6A08210022025B
:100D5000031CAB2EAC2EB72E20005808FF3E2100FE
:100D6000A000FF302000593D2100A100BC2E210031
:100D70002308A1002208A000200057082100200716
:100D800086008701810108007B03031DC82EC92E40
:100D9000422F202F1830F2000030F30022005208BA
:100DA000013EF400003003180130F5008D310525B7
:100DB000863172082200D200422F3C30F20000300F
:100DC000F30022005108013EF40000300318013006
:100DD000F5008D310525863172082200D100422FA1
:100DE0003C30F2000030F30022005008013EF400D5
:100DF000003003180130F5008D3105258631720869
:100E00002200D000422F3330F2000030F3002200E5
:100E10004B08013EF400003003180130F5008D311D
:100E20000525863172082200CB00422F22004A0895
:100E3000013E0339CA00422F01302200CF06422F63
:100E40007A08F800F9017908003A0319282F422F8F
:100E50007808003A0319CA2E013A0319DD2E033A25
:100E60000319F02E013A0319422F073A0319032FF1
:100E7000013A0319162F033A03191C2F013A0319DB
:100E8000422F422F08004130F900EE30890B462FE7
:100E9000F90B462F003230308C3132248731343018
:100EA0008C3132248731A630890B542F00323030F8
:100EB0008C31322487310730F9007D30890B5E2F69
:100EC000F90B5E2F000030308C3132248731343002
:100ED0008C3132248731A630890B6C2F00323030B0
:100EE0008C31322487312130890B742F000030304F
:100EF0008C313224873134308C3132248731A63022
:100F0000890B802F003230308C31322487312130F0
:100F1000890B882F000020308C3132248731243017
:100F20008C3132248731A630890B942F0032203047
:100F30008C31322487310730F9007D30890B9E2FA8
:100F4000F90B9E2F0000F40128308431572487319B
:100F5000F4010630843157248731F4010F30843195
:100F600057248731F401013084315724873103300D
:100F7000F9009830890BBA2FF90BBA2F0800F70146
:100F8000F801720873040319C62FC72FF42F01301C
:100F9000F600D12F0130F235F30D890BCB2F013044
:100FA000F607F31FD42FD52FCA2F0130F735F80DD0
:100FB000890BD62F73087502031DE02F7208740287
:100FC000031CE32FE42FE92F7208F4027308F53BAA
:100FD00077140130F336F20C890BEA2F0130F60258
:100FE000031DF32FF42FD52F7808F3007708F200B4
:100FF0000800F900F401790884315724873108008A
:1012840008000800080008000800080024000E14E4
:101294000800310096019030950008002200CC012E
:1012A400CD01CE0108002E000C108931CC218931EA
:1012B400080073082300CB007208CA0008007308F2
:1012C4002300C5007208C400080073082300CD0081
:1012D4007208CC00080073082300C7007208C60017
:1012E400080073082300C9007208C80008006400DD
:1012F40080010131890B7A2900342F00960197016E
:10130400980199019A019B010800F900F401F40A7B
:10131400790884315724893108003E00D51E932969
:10132400942997298931F3218931080062303100E9
:101334008D008F0191010230930092010800220078
:101344004008F5003F08F4003E08F3003D08F200B1
:101354000800803023008F00083090009101033092
:101364008D0090120800220053080319BA29BB29E2
:10137400BE29D3010130BF29003008008030290084
:10138400980099019A019B019D019C019701960186
:10139400950108002300440845040319D229D329E0
:1013A400D82945088A0044080A0089310800803099
:1013B40023008F0008309000910103308D009016B7
:1013C40020009315131608002E000C100B14423045
:1013D400F2000930F3008931612189312E0016149D
:1013E400080023004C084D040319F929FA29FF29A0
:1013F4004D088A004C080A0089313E00D5120800C5
:101404002E008C1223004608470403190A2A0B2ACB
:10141400102A47088A0046080A008A3108002E006C
:1014240011102300480849040319192A1A2A1F2AEB
:1014340049088A0048080A008A31080024000E1D61
:10144400242A252A2C2A0E1071088D0070088C007D
:101454000E14302A71088D0070088C0008003E00BC
:10146400B813200091139613BC30F2000A30F30035
:1014740089315B218A31893148218A318B170B17D5
:101484000800F91B462A472A482A542A78092000CA
:10149400A0007909A100A00A0319A10A2008F800F4
:1014A4002108F90008002200CF01D001D101D201A6
:1014B4001430CB000230CA00FB01FA018731432704
:1014C4008A31853108258A310800B73020009F0011
:1014D400FF309D009C012E008C1296164430F200C1
:1014E4000930F30089316D218A31803020009E005B
:1014F4000800802A2208893187218A3120002108A6
:10150400870020088600A00A0319A10A0108A20086
:101514002208031D8E2A8F2A7C2A08007208F400F0
:10152400952A0130F207720886000130870001080D
:10153400031D9D2A9E2A932A74087202F200F30165
:10154400F21BF30308002E00101022004608F100DD
:101554004508F0008A3120228A3123004A084B04CE
:101564000319B52AB62ABB2A4B088A004A080A007E
:101574008A31080001302200BD070030BE3DBF3D66
:10158400C03D0130D3002000160D160D0139F000C6
:101594000130F006F00CF00C160870067F39700666
:1015A400960008000F3023001005F2000830720680
:1015B4000319DD2ADE2AE72A0F301005F2000B306A
:1015C4007206031DE62AE72AE82A91150F1CEB2A66
:1015D400EC2AE82A0C08080089317F218A318931F4
:1015E400AB218A318E3104268A31893198218A319E
:1015F4008931C0218A318931E6218A318B31A7238F
:101604008A318A3167228A3189314B218A31080033
:1016140001302200D0073C305002031C122B132B44
:10162400262BD0010130D1073C305102031C1B2B67
:101634001C2B262BD1010130D20718305202031C77
:10164400242B252B262BD2010800893150218B31E4
:101654007B08031D2E2B2F2B332B0130FB00FA01AB
:10166400432B7B03031D372B382B432B7A08013E76
:10167400FA0008307A02031C402B412B432BFB0158
:10168400FA010800F601F701721C492B4A2B4E2B74
:101694007408F6077508F73D0130F435F50D890B2C
:1016A4004F2B0130F336F20C890B542B7208730460
:1016B400031D5D2B5E2B462B7708F3007608F200A2
:1016C40008005A302000DC005708DD000130DE003D
:1016D400DF01E001E601E7015D30CF000030D0001A
:1016E4005908D2005808D1005C30D3008B31D12383
:1016F4008B31200057085F07860001308700810185
:1017040008002000A901AA019A2B2808F600F70175
:101714007608F2007708F3002708F5002608F4009D
:101724008D31AB258B3101302000A9070030AA3D53
:10173400250829078600013087000108A800280829
:10174400031DA52BA62B872B080024008F019001D5
:101754000430910086308D00E8308C002E0010108B
:1017640024000D082200C60024000C082200C50035
:101774002E001A144630F2000930F30089315B213F
:101784008B312E0011101B144530F2000930F30088
:10179400893173218B31073024008E00080020002A
:1017A4005208D6005108D5002200C101C201ED2B18
:1017B4005008C0004F08BF005530C1005308C20094
:1017C40080316D208B3120003F082200C1072000AA
:1017D40040082200C23D20005508840056088500B8
:1017E4001200031DF62BF72BDA2B220042082000EF
:1017F400D000220041082000CF00080072087304C2
:101804000319052C062C2D2C0130F600102C013068
:10181400F235F30D890B0A2C0130F607F31F132C54
:10182400142C092C73087502031D1A2C72087402F7
:10183400031C1D2C1E2C222C7208F4027308F53B89
:101844000130F336F20C890B232C0130F602031D10
:101854002C2C2D2C142C7508F3007408F2000800AD
:10186400F50023000F0C890C0139F40011081F390D
:101874007404031D3E2C3F2C332C11141118432CDB
:10188400442C402C0F0C890C0139F40011081F3929
:101894007404031D4E2C4F2C442C4E308C31BA242E
:1018A4008C3123000F0C890C0139F40011081F3905
:1018B4007404031D5E2C5F2C532C75088C31BA24E0
:1018C4008C3123000F0C890C0139F40011081F39E5
:1018D4007404031D6E2C6F2C632C11151119732CB9
:1018E400742C702C08008B310A238C3120000D0ECF
:1018F4000139EE000E0E890C0139EF0022006F0849
:10190400031D852C862C892C8B3127238C312200B6
:101914006E08031D8E2C8F2C922C8631C4268C319C
:1019240020006E082200EF0020006F082200EE0065
:101934007B08031D9E2C9F2CA32C853108258C31FC
:10194400AB2C7B03031DA72CA82CAB2C8231BF220C
:101954008C312000160D160D0139ED000130ED0615
:10196400ED0CED0C16086D067F396D069600080027
:10197400F300730823008C00901FC12CC22CC32CCD
:10198400042D0F301005F200083072060319CB2C19
:10199400CC2CE22C0F301005F2000B307206031928
:1019A400D42CD52CE22C10162E000F1CDA2CDB2C98
:1019B400D62C23000F19DF2CE02C042D0F08042D46
:1019C4000F301005F200083072060319EA2CEB2CD4
:1019D400F42C0F301005F2000B307206031DF32CAB
:1019E400F42C042D0F18F72CF82CF42C0F0C890C64
:1019F4000139F20011081F397204031D022D032D51
:101A0400F82C11080800F701F51F092D0A2D112DD6
:101A1400F409F509F40A0319F50A0130F700F31F74
:101A2400142D152D1A2DF209F309F20A0319F30ADC
:101A34007208730403191F2D202D472D0130F60061
:101A44002A2D0130F235F30D890B242D0130F607D0
:101A5400F31F2D2D2E2D232D73087502031D342DF8
:101A640072087402031C372D382D3C2D7208F402C1
:101A74007308F53B0130F336F20C890B3D2D013030
:101A8400F602031D462D472D2E2D770803194B2DE5
:101A94004C2D512DF409F509F40A0319F50A7508BA
:101AA400F3007408F20008002200491C5A2D5B2D33
:101AB400652D20002D08A5002C08A7002B08A600E2
:101AC4008B3183238D312000AF1F692D6A2D6C2D3E
:101AD400AE01AF01B001B101802D2030F200003021
:101AE400F30020002C08F5002B08F4008D31AB2501
:101AF4008D3101302000B0070030B13D3108803A0B
:101B0400F8002F08803A7802031D8A2D2E0830022F
:101B1400031C8D2D8E2D6F2D22004918922D932D8F
:101B24009D2D20002D08A5002C08A7002B08A60039
:101B34008B3183238D3120002D08F2008A319022CD
:101B44008D3120002E087207AB002F08733DAC00C6
:101B54000800740875040319B02DB12DB72D74084D
:101B64007504031DB62DB72DBC2D7208893147218C
:101B74008D31032E74088600870149311600010453
:101B84000319C52DC62DE52D74088600870149313A
:101B9400403F2000A000413FA10074088600870157
:101BA4004231403FA200413FA3002308803AA400F1
:101BB4002108803A2402031DE12D20082202031883
:101BC400E42DE52D032E7408860087014231740844
:101BD400840075088500003F2000A000013FA1009B
:101BE400403F20078400413F213D8500720880006A
:101BF400740886008701423101308107413103189E
:101C0400810A080020009A01990196019701980120
:101C140007309500FF309100FF309200FF309300B1
:101C2400FF309400FF303E00D900C430CE00EF30C6
:101C3400C3000730E400FF30B800DA01E501C40155
:101C4400B9011830CF00E601BA01C501D001DB01AA
:101C5400FF30BB00FF30C600FF30D100FF30DC0096
:101C64000730E700FF30BC00FF30C700FF30D20070
:101C7400FF30DD000730E800D512D416D31243300C
:101C8400F2000930F300893167218E312E001616D7
:101C94000C303D0090001330C50014303E00A3000A
:101CA40010303D00A90015303E00A40011303D0065
:101CB400AA001430C6000800F701F31F622E632E39
:101CC4006A2EF209F309F20A0319F30A0130F70044
:101CD400F51F6D2E6E2E752EF409F509F40A0319FD
:101CE400F50A0130F706F801F901720873040319C3
:101CF4007C2E7D2EAA2E0130F600872E0130F2357F
:101D0400F30D890B812E0130F607F31F8A2E8B2EDB
:101D1400802E0130F835F90D890B8C2E730875026D
:101D2400031D962E72087402031C992E9A2E9F2E60
:101D34007208F4027308F53B78140130F336F20CA0
:101D4400890BA02E0130F602031DA92EAA2E8B2E7C
:101D540077080319AE2EAF2EB42EF809F909F80A44
:101D64000319F90A7908F3007808F2000800200042
:101D7400A401A501780886008701403FA000413FE7
:101D8400A100200884002108850012002A3A031DBE
:101D9400CC2ECD2EFC2E78088600870101308107D9
:101DA40041310318810A79088600870101088400FB
:101DB400850102308107003FA400013FA500102FD8
:101DC4002508F3002408F2000A30F4000030F5007E
:101DD4008B3144238E31200023087207A400003085
:101DE400733DA500780886008701013081074131E1
:101DF4000318810A780886008701403FA000413F0C
:101E0400A10020088400210885000008D03EA3001A
:101E14000A302302031C0F2F102FE22E2508F9008D
:101E24002408F8000800220043084404031D1B2F63
:101E34001C2F242F44082000AB002200430820005C
:101E4400AA002D2F4308FF3E2000AA00FF302200E5
:101E5400443D2000AB002200491C312F322F412F7A
:101E640020002708F600F7017608F2007708F3004F
:101E74002608F5002508F4008D31AB258F312000AC
:101E8400AB1B452F462F472F492FAA01AB01A801B1
:101E9400A9015D2F2030F2000030F3002000260855
:101EA400F5002508F4008D31AB258F310130200079
:101EB400A8070030A93D2908803AF6002B08803A8B
:101EC4007602031D672F2A082802031C6A2F6B2F32
:101ED4004C2F220049186F2F702F7F2F20002708C6
:101EE400F600F7017608F2007708F3002608F500FB
:101EF4002508F4008D31AB258F3120002808013EE0
:101F0400A5000030293DA600080001302000B600DD
:101F1400220044082000B800220043082000B70033
:101F24001F30B9000030BA002300C301C72FFF30AF
:101F34002000B907FF30BA3D3908A43E86000130BD
:101F440087000A30F2000030F3003508F500340849
:101F5400F4008C3100248F317208303E810020005F
:101F6400B601FF30B707FF30B83D0A30F200003049
:101F7400F3003508F5003408F4008731BF278F31AA
:101F840073082000B5007208B400200039083A0430
:101F94000319CD2FCE2FEB2F34083504031DD32F77
:101FA400D42F992F3608031DD82FD92F992F3808ED
:101FB400803AF90080307902031DE22F01303702A4
:101FC400031CE52FE62FEB2F2200C918EA2FEB2F75
:101FD400992F20003308AC003208AB003908A43E26
:101FE400AD003808AF003708AE008D3156258F316B
:101FF40020002C08B3002B08B20008000034003481
:10200400003400340034003400340034003400342C
:10201400003400340034003400340034003400341C
:10202400003400340034003400340034003400340C
:1020340000340034003400340034003425343034A7
:10204400323475343A3425343034323475343A34D5
:102054002534303432347534203425346334253413
:1020640063342534633420342034253463342034F9
:10207400003425343034323475343A342534303431
:10208400323475343A3425343034323475342034AF
:1020940025346334253463342534633420342534BF
:1020A40063345234003425343034323475342034BB
:1020B40043342034203420344C3420342034253428
:1020C40075340034253430343234643420344334A9
:0220D4000034D6
:020000040001F9
:08000000FF3FFF3FFF3FFF3F00
:0A000E00EC3FFF3F9F3FFF3FFF3F25
:00000001FF
