:1000000080314C28080008007E14803100308600C2
:10001000003087002E00161C0E280F2817280C1CF5
:1000200012281328172891316B2180314A28961EF7
:100030001A281B2823288C1E1E281F2823289231AB
:10004000432280314A28161E262827282F280C1ED6
:100050002A282B282F289131C62180314A280B1FAE
:10006000322833284A281A1C362837283F28101CE3
:100070003A283B283F288831002080314A281B1C21
:10008000422843284A28111C462847284A289231EA
:10009000522280317E10090080314E286030840069
:1000A0009130850021001200E8001200E9001200E2
:1000B000EA001200EB001200EC00FA01FB01200044
:1000C000EC01CE308400003085001A309131A1213E
:1000D000803120308400013085003F309131A121F2
:1000E00080317E10200088319628B7302000D7005C
:1000F000FA30D8009830D900933196238031A63059
:100100002000D700FA30D8009830D90093319623D8
:10011000803180309131A72180312000A001003052
:100120009231F3228031B7302000A0009231842236
:1001300080319231CC228031200020082104031D1F
:10014000A228A3289928C0309131A721803120000E
:10015000A00108309231F3228031A6302000A000A7
:100160009231842280319231CC22803120002008CB
:100170002104031DBC28BD28B328662F6103031D7D
:10018000C228C3280929B7302000D7007E30D80004
:100190009830D90021006608A000A10120082000A5
:1001A000DA00210021082000DB0021006508A20000
:1001B000A30122082000DC00210023082000DD002C
:1001C00021006408A400A50124082000DE0021000D
:1001D00025082000DF009331962380318030913153
:1001E000A72180312000A00100309231F32280311C
:1001F000B7302000A0009231842280319231CC228D
:100200008031200020082104031D07290829FE2829
:100210004E29B7302000D7009530D8009830D9004B
:1002200021006608A000A10120082000DA002100BA
:1002300021082000DB0021006508A200A30122089C
:100240002000DC00210023082000DD0021006408DC
:10025000A400A50124082000DE00210025082000BC
:10026000DF0093319623803180309131A721803196
:100270002000A00100309231F3228031B7302000FD
:10028000A0009231842280319231CC228031200032
:1002900020082104031D4D294E294429A630D700EA
:1002A0002030D8009830D90021006B08A000A101AF
:1002B00020082000DA00210021082000DB002100B6
:1002C0006A08A200A30122082000DC002100230804
:1002D0002000DD00933196238031C0309131A72179
:1002E00080312000A00108309231F3228031A63005
:1002F0002000A0009231842280319231CC228031C2
:10030000200020082104031D862987297D298030AB
:100310009131A72180312000A001A00A0030923144
:10032000F3228031892F6103031D97299829DE2943
:10033000B7302000D7007E30D8009830D900210097
:100340006608A000A10120082000DA002100210891
:100350002000DB0021006508A200A3012208200084
:10036000DC00210023082000DD0021006408A40037
:10037000A50124082000DE00210025082000DF0060
:1003800093319623803180309131A7218031200034
:10039000A00100309231F3228031B7302000A0005C
:1003A0009231842280319231CC2280312000200889
:1003B0002104031DDC29DD29D329232AB73020009D
:1003C000D7009530D8009830D90021006608A000E9
:1003D000A10120082000DA00210021082000DB0014
:1003E00021006508A200A30122082000DC002100F2
:1003F00023082000DD0021006408A400A5012408D2
:100400002000DE00210025082000DF009331962324
:10041000803180309131A72180312000A00100304F
:100420009231F3228031B7302000A0009231842233
:1004300080319231CC228031200020082104031D1C
:10044000222A232A192AA630D7002030D800983033
:10045000D90021006B08A000A10120082000DA00CB
:10046000210021082000DB0021006A08A200A3016E
:1004700022082000DC00210023082000DD00933149
:1004800096238031C0309131A72180312000A00116
:1004900008309231F3228031A6302000A000923142
:1004A000842280319231CC22803120002008210426
:1004B000031D5B2A5C2A522A80309131A7218031AA
:1004C00004302000A00000309231F3228031892FC7
:1004D0006103031D6C2A6D2AB32AB7302000D700B0
:1004E0007E30D8009830D90021006608A000A10114
:1004F00020082000DA00210021082000DB00210074
:100500006508A200A30122082000DC0021002308C6
:100510002000DD0021006408A400A50124082000BB
:10052000DE00210025082000DF0093319623803172
:1005300080309131A72180312000A001003092311C
:10054000F3228031B7302000A00092318422803124
:100550009231CC228031200020082104031DB12AD1
:10056000B22AA82AF82AB7302000D7009530D80040
:100570009830D90021006608A000A10120082000C1
:10058000DA00210021082000DB0021006508A2001C
:10059000A30122082000DC00210023082000DD0048
:1005A00021006408A400A50124082000DE00210029
:1005B00025082000DF00933196238031803091316F
:1005C000A72180312000A00100309231F322803138
:1005D000B7302000A0009231842280319231CC22A9
:1005E0008031200020082104031DF72AF82AEE2A72
:1005F000A630D7002030D8009830D90021006B08F1
:10060000A000A10120082000DA002100210820001C
:10061000DB0021006A08A200A30122082000DC0000
:10062000210023082000DD00933196238031C03063
:100630009131A72180312000A00108309231F322AE
:100640008031A6302000A000923184228031923186
:10065000CC228031200020082104031D302B312BB7
:10066000272B80309131A721803107302000A00056
:1006700000309231F3228031892F6103031D412B19
:10068000422B882BB7302000D7007E30D80098301E
:10069000D90021006608A000A10120082000DA008E
:1006A000210021082000DB0021006508A200A30131
:1006B00022082000DC00210023082000DD002100AA
:1006C0006408A400A50124082000DE0021002508FC
:1006D0002000DF0093319623803180309131A721B3
:1006E00080312000A00100309231F3228031B730F8
:1006F0002000A0009231842280319231CC228031BE
:10070000200020082104031D862B872B7D2BCD2B59
:10071000B7302000D7009530D8009830D90021009C
:100720006608A000A10120082000DA0021002108AD
:100730002000DB0021006508A200A30122082000A0
:10074000DC00210023082000DD0021006408A40053
:10075000A50124082000DE00210025082000DF007C
:1007600093319623803180309131A7218031200050
:10077000A00100309231F3228031B7302000A00078
:100780009231842280319231CC22803120002008A5
:100790002104031DCC2BCD2BC32BA630D70020303A
:1007A000D8009830D90021006B08A000A1012008D2
:1007B0002000DA00210021082000DB0021006A0867
:1007C000A200A30122082000DC0021002308200051
:1007D000DD00933196238031C0309131A7218031E3
:1007E0002000A00108309231F3228031A630200091
:1007F000A0009231842280319231CC2280312000BD
:1008000020082104031D052C062CFC2B803091317F
:10081000A72180310B302000A00000309231F3225C
:100820008031892F6103031D162C172C5D2CB730E6
:100830002000D7007E30D8009830D900210066080B
:10084000A000A10120082000DA00210021082000DA
:10085000DB0021006508A200A30122082000DC00C3
:10086000210023082000DD0021006408A400A50168
:1008700024082000DE00210025082000DF0093313D
:100880009623803180309131A72180312000A00152
:1008900000309231F3228031B7302000A000923135
:1008A000842280319231CC22803120002008210422
:1008B000031D5B2C5C2C522CA22CB7302000D700DF
:1008C0009530D8009830D90021006608A000A10119
:1008D00020082000DA00210021082000DB00210090
:1008E0006508A200A30122082000DC0021002308E3
:1008F0002000DD0021006408A400A50124082000D8
:10090000DE00210025082000DF009331962380318E
:1009100080309131A72180312000A0010030923138
:10092000F3228031B7302000A00092318422803140
:100930009231CC228031200020082104031DA12CFB
:10094000A22C982CA630D7002030D8009830D9009F
:1009500021006B08A000A10120082000DA0021007E
:1009600021082000DB0021006A08A200A301220860
:100970002000DC00210023082000DD0093319623B5
:100980008031C0309131A72180312000A001083092
:100990009231F3228031A6302000A00092318422CF
:1009A00080319231CC228031200020082104031DA7
:1009B000DA2CDB2CD12C80309131A72180310C3006
:1009C0002000A00000309231F3228031892F610392
:1009D000031DEB2CEC2C322DB7302000D7007E30DD
:1009E000D8009830D90021006608A000A101200895
:1009F0002000DA00210021082000DB00210065082A
:100A0000A200A30122082000DC002100230820000E
:100A1000DD0021006408A400A50124082000DE00F8
:100A2000210025082000DF0093319623803180309B
:100A30009131A72180312000A00100309231F322B2
:100A40008031B7302000A000923184228031923171
:100A5000CC228031200020082104031D302D312DAF
:100A6000272D772DB7302000D7009530D80098304B
:100A7000D90021006608A000A10120082000DA00AA
:100A8000210021082000DB0021006508A200A3014D
:100A900022082000DC00210023082000DD002100C6
:100AA0006408A400A50124082000DE002100250818
:100AB0002000DF0093319623803180309131A721CF
:100AC00080312000A00100309231F3228031B73014
:100AD0002000A0009231842280319231CC228031DA
:100AE000200020082104031D762D772D6D2DA630C2
:100AF000D7002030D8009830D90021006B08A00022
:100B0000A10120082000DA00210021082000DB00DC
:100B100021006A08A200A30122082000DC002100B5
:100B200023082000DD00933196238031C0309131BD
:100B3000A72180312000A00108309231F3228031BA
:100B4000A6302000A0009231842280319231CC2244
:100B50008031200020082104031DAF2DB02DA62DCB
:100B600080309131A72180310D302000A00000306D
:100B70009231F3228031892F6103031DC02DC12DD5
:100B8000072EB7302000D7007E30D8009830D9002B
:100B900021006608A000A10120082000DA00210041
:100BA00021082000DB0021006508A200A301220823
:100BB0002000DC00210023082000DD002100640863
:100BC000A400A50124082000DE0021002508200043
:100BD000DF0093319623803180309131A72180311D
:100BE0002000A00100309231F3228031B730200084
:100BF000A0009231842280319231CC2280312000B9
:100C000020082104031D052E062EFC2D4C2EB73086
:100C10002000D7009530D8009830D9002100660810
:100C2000A000A10120082000DA00210021082000F6
:100C3000DB0021006508A200A30122082000DC00DF
:100C4000210023082000DD0021006408A400A50184
:100C500024082000DE00210025082000DF00933159
:100C60009623803180309131A72180312000A0016E
:100C700000309231F3228031B7302000A000923151
:100C8000842280319231CC2280312000200821043E
:100C9000031D4B2E4C2E422EA630D7002030D800FC
:100CA0009830D90021006B08A000A1012008200085
:100CB000DA00210021082000DB0021006A08A200E0
:100CC000A30122082000DC00210023082000DD0011
:100CD000933196238031C0309131A721803120009B
:100CE000A00108309231F3228031A6302000A0000C
:100CF0009231842280319231CC2280312000200830
:100D00002104031D842E852E7B2E80309131A72156
:100D100080310E302000A00000309231F32280316B
:100D2000892F6103031D952E962EDC2EB7302000EF
:100D3000D7007E30D8009830D90021006608A00086
:100D4000A10120082000DA00210021082000DB009A
:100D500021006508A200A30122082000DC00210078
:100D600023082000DD0021006408A400A501240858
:100D70002000DE00210025082000DF0093319623AB
:100D8000803180309131A72180312000A0010030D6
:100D90009231F3228031B7302000A00092318422BA
:100DA00080319231CC228031200020082104031DA3
:100DB000DA2EDB2ED12E212FB7302000D700953030
:100DC000D8009830D90021006608A000A1012008B1
:100DD0002000DA00210021082000DB002100650846
:100DE000A200A30122082000DC002100230820002B
:100DF000DD0021006408A400A50124082000DE0015
:100E0000210025082000DF009331962380318030B7
:100E10009131A72180312000A00100309231F322CE
:100E20008031B7302000A00092318422803192318D
:100E3000CC228031200020082104031D202F212FE7
:100E4000172FA630D7006730D8009830D90021007E
:100E50006B08A000A10120082000DA002100210871
:100E60002000DB0021006A08A200A3012208200064
:100E7000DC00210023082000DD009331962380311F
:100E8000C0309131A72180312000A001083092317B
:100E9000F3228031A6302000A000923184228031DC
:100EA0009231CC228031200020082104031D592FCB
:100EB0005A2F502F80309131A72180310F302000E0
:100EC000A00000309231F3228031892F7A0821006E
:100ED000A000A1012108003A03196F2F892F2008D3
:100EE000003A0319BE28013A03199329033A03195A
:100EF000682A013A03193D2B073A0319122C013ACB
:100F00000319E72C033A0319BC2D013A0319912E5A
:100F1000892F080001302000B6002100530820006E
:100F2000B800210052082000B7001F30B90000307F
:100F3000BA002200DE01C92FFF30B907FF30BA3DE9
:100F400039083F3E8600013087000A30F200003049
:100F5000F3003508F5003408F4009431212487317A
:100F60007208303E81002000B601FF30B707FF3025
:100F7000B83D0A30F2000030F3003508F5003408BF
:100F8000F40094315324873173082000B5007208AF
:100F9000B400200039083A040319CF2FD02FED2FC9
:100FA00034083504031DD52FD62F9C2F3608031D7A
:100FB000DA2FDB2F9C2F3808803AF9008030790235
:100FC000031DE42F01303702031CE72FE82FED2F1C
:100FD0002000EC18EC2FED2F9C2F20003308AC00E4
:100FE0003208AB0039083F3EAD003808AF00370883
:100FF000AE009431D0248731080024000E1408007C
:101000002E00101021005908F1005808F00092310C
:10101000612288312200650866040319102811280E
:10102000162866088A0065080A00883108007B03D4
:10103000031D1B281C28952873281830F200003047
:10104000F30021006608013EF4000030031801306F
:10105000F50095316125883172082100E600952858
:101060003C30F2000030F30021006508013EF4003E
:10107000003003180130F500953161258831720880
:101080002100E50095283C30F2000030F3002100FB
:101090006408013EF400003003180130F50095317A
:1010A0006125883172082100E40095283330F20070
:1010B0000030F30021006B08013EF40000300318FB
:1010C0000130F50095316125883172082100EB006F
:1010D000952821006A08013E0339EA00952801306D
:1010E0002100E10695287A08F800F9017908003A0C
:1010F00003197B2895287808003A03191D28013A1E
:1011000003193028033A03194328013A0319952893
:10111000073A03195628013A03196928033A0319B3
:101120006F28013A031995289528080000302300FC
:10113000A7000030A6000030A5000030A4009331C5
:101140002223883192311A228831973184278831BD
:101150009231722288319231A8228831923127222D
:1011600088316530F2001130F300913189218831E6
:1011700096310B2688317130F2001130F300913135
:101180008F21883191317D218831720873040319D0
:10119000CA28CB28D12891314E21883193315B2345
:1011A0008831913183218831720873040319D92859
:1011B000DA28E0289131522188318831172088318E
:1011C0009131F6218831003A0319E728E828C2282E
:1011D00093313E2388319131E22188317508230013
:1011E000A3007408A2007308A1007208A0002408DC
:1011F00020022100CA0023002508213B2100CB004A
:1012000023002608223B2100CC0023002708233B93
:101210002100CD004D08031D18294C08031D182975
:101220004B08031D182905304A02031818291929EB
:10123000222923002708260425042404031D21292C
:1012400022292E2923002308A7002208A60021080E
:10125000A5002008A4009131AE2188319231BA2234
:10126000883163000000C22880314C28F6007608DF
:10127000F039F7007608F5000430F535890B3D2983
:101280007508F039F80023000F0C890C0139F500BE
:1012900011081F397504031D4E294F2943291114C4
:1012A00011185329542950290F0C890C0139F500C4
:1012B00011081F397504031D5E295F2954294E301A
:1012C00095311625893123000F0C890C0139F50061
:1012D00011081F397504031D6E296F2963297708CA
:1012E0007404083895311625893123000F0C890CB8
:1012F0000139F50011081F397504031D8029812962
:101300007529770874040C38953116258931230026
:101310000F0C890C0139F50011081F397504031DE4
:101320009229932987290000770874040838953199
:101330001625893123000F0C890C0139F50011089D
:101340001F397504031DA529A6299A297808740454
:10135000083895311625893123000F0C890C013985
:10136000F50011081F397504031DB729B829AC29E8
:10137000780874040C3895311625893123000F0C38
:10138000890C0139F50011081F397504031DC9299D
:10139000CA29BE290000780874040838953116253A
:1013A000893123000F0C890C0139F50011081F3910
:1013B0007504031DDC29DD29D12911151119E12935
:1013C000E229DE291030890BE329003208000130C0
:1013D0002000B900B51BED29EF290130F0290030BC
:1013E000BC00210053082000BB002100520820004F
:1013F000BA003C080319FD29FE29122AFF30BA075A
:10140000FF30BB3D3C08031D062A072A0C2A2B305F
:10141000B7000030B800102A2D30B7000030B800F7
:101420003708BC001F30BD000030BE002200DE01C6
:101430004D2AFF30BD07FF30BE3D3D083F3E8600D0
:10144000013087000A30F2000030F3003508F50063
:101450003408F4009531612589317308F900720868
:10146000F8009231962289317808303E81002000C0
:10147000B901FF30BA07FF30BB3D0A30F20000303F
:10148000F3003508F5003408F400963165268931FB
:1014900073082000B5007208B40020003E08803AAE
:1014A000B60080303602031D572A01303D02031C6E
:1014B0005A2A5B2A792A200034083504031D612A40
:1014C000622A192A3908031D662A672A192A3B0845
:1014D000803AB60080303602031D702A01303A028D
:1014E000031C732A742A792A2000EC18782A792A96
:1014F000192A20003C0803197E2A7F2A8A2AFF30F5
:10150000BD07FF30BE3D3D083F3E860001308700ED
:101510003C0881003308AC003208AB003D083F3E78
:10152000AD003B08AF003A08AE009431D0248931B9
:10153000080023000F0C890C0139F40011081F3931
:101540007404031DA42AA52A992A11141118A92A82
:10155000AA2AA62A0F0C890C0139F40011081F3998
:101560007404031DB42AB52AAA2A9A309531162587
:101570008A3123000F0C890C0139F40011081F393E
:101580007404031DC42AC52AB92A013095311625D1
:101590008A3123000F0C890C0139F40011081F391E
:1015A0007404031DD42AD52AC92A91149118D92A62
:1015B000DA2AD62A0F0C890C0139F40011081F39D8
:1015C0007404031DE42AE52ADA2A9B309531162596
:1015D0008A3123000F0C890C0139F40011081F39DE
:1015E0007404031DF42AF52AE92A933108238A3169
:1015F000F50023000F0C890C0139F40011081F3984
:101600007404031D042B052BF92A91161116111AC7
:101610000A2B0B2B072B0F0C890C0139F400110836
:101620001F397404031D152B162B0B2B11151119C3
:101630001A2B1B2B172B751F1E2B1F2B992A0F0CD8
:10164000890C0139F40011081F397404031D292B7A
:101650002A2B1F2B111411182E2B2F2B2B2B0F0C79
:10166000890C0139F40011081F397404031D392B4A
:101670003A2B2F2B9A30953116258A3123000F0CE7
:10168000890C0139F40011081F397404031D492B1A
:101690004A2B3E2B0030953116258A3123000F0C42
:1016A000890C0139F40011081F397404031D592BEA
:1016B0005A2B4E2B911491185E2B5F2B5B2B0F0C2A
:1016C000890C0139F40011081F397404031D692BBA
:1016D0006A2B5F2B9B30953116258A3123000F0C26
:1016E000890C0139F40011081F397404031D792B8A
:1016F0007A2B6E2B933108238A31F50023000F0CCF
:10170000890C0139F40011081F397404031D892B59
:101710008A2B7E2B91161116111A8F2B902B8C2B46
:101720000F0C890C0139F40011081F397404031DD2
:101730009A2B9B2B902B111511199F2BA02B9C2BB7
:10174000750808002000410886008701403FC3005B
:10175000413FC40043088400440885001200253A34
:10176000031DB32BB42BB52C410886008701013033
:10177000810741310318810A2100D201D3010030D1
:101780002000EC00FF302200BD00FF30BE00200032
:10179000C801E72BEC14410886008701013081075E
:1017A00041310318810AE72B0130C800E72B4108BB
:1017B00086008701403FC300413FC40043088400C6
:1017C000440885000008303A0319CA2BD42B480876
:1017D0000319EB2BEC2BD72B4108F8004208F9003A
:1017E0009631C0268B3179082100D3007808D200C9
:1017F000D31FFB2BFC2B042C20006C142100D209DE
:10180000D309D20A0319D30A2000410886008701B0
:10181000403FC300413FC4004308840044088500A2
:101820001200633A031D152C162C322C4108860039
:1018300087010130810741310318810A420886007F
:101840008701010884008501023081070008C70074
:101850004008A6003F08A5004708A70097311C27AD
:101860008B31CF2C410886008701403FCD00413F9E
:10187000CE004D0884004E0885001200643A03191A
:10188000422C432C4D2C4D0884004E08850012003C
:10189000693A031D4C2C4D2C722C4208860087019E
:1018A00001088400850102308107003FC900013F23
:1018B000CA004D08013EC30000304E3DC40041083F
:1018C000860087014308C03F4408C13F4008B30079
:1018D0003F08B2004A08B5004908B4008931E72141
:1018E0008B31CF2C4D0884004E0885001200753ACC
:1018F000031D7B2C7C2CAB2C420886008701010841
:101900008400850102308107003FC900013FCA0001
:101910004D08013EC30000304E3DC4004108860022
:1019200087014308C03F4408C13FA22C4008B300D0
:101930003F08B2004A08B5004908B40087318A2739
:101940008B31CF2C4D0884004E0885000008753A75
:101950000319962CAB2C200041088600870101302A
:10196000810741310318810ACF2C41088600870185
:10197000403FC300413FC400430884004408850041
:101980000008C500C6014508F2004608F3004008FB
:10199000F5003F08F4009531B2258B31AB2C0800DF
:1019A000F80023000F0C890C0139F40011081F39CD
:1019B0007404031DDC2CDD2CD12C11141118E12C26
:1019C000E22CDE2C0F0C890C0139F40011081F39B0
:1019D0007404031DEC2CED2CE22C4E3095311625B1
:1019E0008C3123000F0C890C0139F40011081F39C8
:1019F0007404031DFC2CFD2CF12C7808FA38953169
:101A000016258C3123000F0C890C0139F4001108C4
:101A10001F397404031D0D2D0E2D022D7808FE387C
:101A2000953116258C3123000F0C890C0139F400F7
:101A300011081F397404031D1E2D1F2D132D0000C6
:101A4000230091149118252D262D222D0F0C890C81
:101A50000139F40011081F397404031D302D312D94
:101A6000262D4F30953116258C3123000F0C890C13
:101A70000139F40011081F397404031D402D412D54
:101A8000352D933108238C31F60023000F0C890C7F
:101A90000139F40011081F397404031D502D512D14
:101AA000452D91161116111A562D572D532D91149F
:101AB00091185B2D5C2D582D0F0C890C0139F40009
:101AC00011081F397404031D662D672D5C2D4E30DF
:101AD000953116258C3123000F0C890C0139F40047
:101AE00011081F397404031D762D772D6B2D78088E
:101AF000FA38953116258C3123000F0C890C0139E9
:101B0000F40011081F397404031D872D882D7C2DC6
:101B10007808FE38953116258C3123000F0C890C7E
:101B20000139F40011081F397404031D982D992DF3
:101B30008D2D00002300911491189F2DA02D9C2D18
:101B40000F0C890C0139F40011081F397404031DAE
:101B5000AA2DAB2DA02D4F30953116258C312300A9
:101B60000F0C890C0139F40011081F397404031D8E
:101B7000BA2DBB2DAF2D933108238C31F7002300F4
:101B80000F0C890C0139F40011081F397404031D6E
:101B9000CA2DCB2DBF2D91161116111AD02DD12D76
:101BA000CD2D91149118D52DD62DD22D0F0C890C39
:101BB0000139F40011081F397404031DE02DE12DD3
:101BC000D62D4E30953116258C3123000F0C890C03
:101BD0000139F40011081F397404031DF02DF12D93
:101BE000E52D7808FA38953116258C3123000F0C35
:101BF000890C0139F40011081F397404031D012EEA
:101C0000022EF62D11151119062E072E032E770818
:101C1000F4000430F436890B0A2E0F307405F500F9
:101C20007608F03975040800B7302000D700FA3084
:101C3000D8009830D900933196238E31A6302000F9
:101C4000D700FA30D8009830D900933196238E31DE
:101C5000C0309131A7218E312000A001083092318F
:101C6000F3228E31A6302000A000923184228E31E2
:101C70009231CC228E31200020082104031D412EF8
:101C8000422E382E210060085E07A000A101A10DA0
:101C90005F082007C8000030213DC9006103031D13
:101CA000522E532E802F48084904031D582E592EBA
:101CB0009F2EB7302000D7003930D8009830D90097
:101CC00021006608A000A10120082000DA00210000
:101CD00021082000DB0021006508A200A3012208E2
:101CE0002000DC00210023082000DD002100640822
:101CF000A400A50124082000DE0021002508200002
:101D0000DF00933196238E3180309131A7218E31BF
:101D10002000A00100309231F3228E31B730200034
:101D2000A000923184228E319231CC228E3120005B
:101D300020082104031D9D2E9E2E942EC52F600386
:101D4000031DA32EA42EE92EB7302000D700C130EA
:101D5000D8009830D90021006608A000A101200811
:101D60002000DA00210021082000DB0021006508A6
:101D7000A200A30122082000DC002100230820008B
:101D8000DD0021006408A400A50124082000DE0075
:101D9000210025082000DF00933196238E3180300A
:101DA0009131A7218E312000A00100309231F32221
:101DB0008E31B7302000A000923184228E319231D2
:101DC000CC228E31200020082104031DE82EE92EAC
:101DD000DF2E21005F03031DEE2EEF2E342FB730D0
:101DE0002000D700E730D8009830D90021006608DD
:101DF000A000A10120082000DA0021002108200015
:101E0000DB0021006508A200A30122082000DC00FD
:101E1000210023082000DD0021006408A400A501A2
:101E200024082000DE00210025082000DF00933177
:101E300096238E3180309131A7218E312000A00170
:101E400000309231F3228E31B7302000A000923161
:101E500084228E319231CC228E3120002008210440
:101E6000031D332F342F2A2F21005E03031D392F2A
:101E70003A2FC52FB7302000D700D430D800983083
:101E8000D90021006608A000A10120082000DA0086
:101E9000210021082000DB0021006508A200A30129
:101EA00022082000DC00210023082000DD002100A2
:101EB0006408A400A50124082000DE0021002508F4
:101EC0002000DF00933196238E3180309131A7219D
:101ED0008E312000A00100309231F3228E31B730D4
:101EE0002000A000923184228E319231CC228E319A
:101EF000200020082104031D7E2F7F2F752FC52F62
:101F0000B7302000D7005030D8009830D9002100D9
:101F10006608A000A10120082000DA0021002108A5
:101F20002000DB0021006508A200A3012208200098
:101F3000DC00210023082000DD0021006408A4004B
:101F4000A50124082000DE00210025082000DF0074
:101F5000933196238E3180309131A7218E3120002C
:101F6000A00100309231F3228E31B7302000A00062
:101F7000923184228E319231CC228E312000200881
:101F80002104031DC42FC52FBB2FA6302000D7006E
:101F9000AC30D8009830D90021006308A000A1011E
:101FA00020082000DA00210021082000DB002100A9
:101FB0006208A200A30122082000DC0021002308FF
:101FC0002000DD00933196238E31C0309131A7215E
:101FD0008E312000A00108309231F3228E31A630DC
:101FE0002000A000923184228E319231CC228E3199
:101FF000200020082104031DFE2FFF2FF52F0800CD
:1022940008000800080008002100D601D701080042
:1022A4002100D401D50108002100DE01DF01E00195
:1022B4000800310096019030950008000134013483
:1022C400023414340C3401302100D6000030D7001D
:1022D40008002E000C1092310D22913108000130BB
:1022E4002100D4000030D500080073082200E60065
:1022F4007208E500080021005708F3005608F200B0
:10230400080021005508F3005408F200080073087F
:102314002200E0007208DF00080073082200E800D1
:102324007208E700080073082200E2007208E10066
:10233400080073082200E4007208E3000800640047
:1023440080010131890BA2290034F900F4017908D4
:1023540089313621913108008A3199229131210045
:10236400E3004130E20008002F0096019701980134
:1023740099019A019B010800F900F401F40A790813
:1023840089313621913108003E00D51ECA29CB2956
:10239400CE299231342291310800623031008D000F
:1023A4008F01910102309300920108000130210055
:1023B400CE070030CF3DD03DD13D0130E7000800CD
:1023C40021005108F5005008F4004F08F3004E08AE
:1023D400F2000800803023008F0008309000910143
:1023E40003308D0090120800210067080319FB29AF
:1023F400FC29FF29E7010130002A00300800803061
:102404002900980099019A019B019D019C01970163
:1024140096019501080022005F0860040319132A3D
:10242400142A192A60088A005F080A0092310800F9
:10243400803023008F0008309000910103308D001C
:10244400901620009315131608002E000C100B1480
:102454004A30F2001130F3009131892192312E007B
:102464001614080022006708680403193A2A3B2A54
:10247400402A68088A0067080A0092313E00D51293
:1024840008002E008C1222006108620403194B2AF2
:102494004C2A512A62088A0061080A009231080015
:1024A4002E00111022006308640403195A2A5B2ABF
:1024B400602A64088A0063080A0092310800240034
:1024C4000E1D652A662A6D2A0E1071088D0070088B
:1024D4008C000E14712A71088D0070088C0008009D
:1024E4003E00B813200091139613D830F200113037
:1024F400F3009131772192318731FD2792318B1787
:102504000B170800892A21089131BE21923120003D
:10251400200886008701A00A0108A1002108031DE4
:10252400942A952A852A0800F91B992A9A2A9B2A13
:10253400A72A78092000A0007909A100A00A03199C
:10254400A10A2008F8002108F90008002100E1018F
:10255400E401E501E6011430EB000230EA00FB017E
:10256400FA019731842792318E3114269231080072
:102574007B08031DBE2ABF2AC32A8E31142692313A
:10258400CB2A7B03031DC72AC82ACB2A8031752096
:102594009231080000308C31D024923180390319F3
:1025A400D42AD52ADB2A01302000A0000030A10063
:1025B400DE2A2000A001A1010800B73020009F00FE
:1025C400FF309D009C012E008C1296164C30F200B8
:1025D4001130F300913195219231803020009E001A
:1025E40008002000A10021080319F92AFA2AFD2A6B
:1025F400C030A200FF2A8030A20020080F39220434
:10260400A20022089131A721923108000F30230043
:102614001005F200083072060319112B122B1B2B24
:102624000F301005F2000B307206031D1A2B1B2B02
:102634001C2B91150F1C1F2B202B1C2B0C08080086
:102644009131B62193319131EC21933196310B269E
:1026540093319131CF2193319231012293319231CF
:10266400272293319331F72393319231DF2293312F
:1026740091315B219331080001302100E4073C30A3
:102684006402031C462B472B5A2BE4010130E50757
:102694003C306502031C4F2B502B5A2BE5010130B3
:1026A400E60718306602031C582B592B5A2BE601F7
:1026B40008009131562193317B08031D622B632B53
:1026C400672B0130FB00FA01772B7B03031D6B2B77
:1026D4006C2B772B7A08013EFA0008307A02031C2F
:1026E400742B752B772BFB01FA010800200052088C
:1026F400D6005108D500892B5008C0004F08BF00F0
:102704005530C1005308C2008B31A22393312000FD
:1027140055088400560885001200031D922B932B44
:102724007E2BCF01D00108005A302000E00057086A
:10273400E100E201E301E401EA01EB016130CF00D1
:102744000030D0005908D2005808D1006030D300BE
:10275400933178239331200057086307860087015B
:1027640081010800F601F701721CB92BBA2BBE2BAC
:102774007408F6077508F73D0130F435F50D890B3B
:10278400BF2B0130F336F20C890BC42B720873048F
:10279400031DCD2BCE2BB62B7708F3007608F20061
:1027A40008002000A901AA01EA2B2808F600F70175
:1027B4007608F2007708F3002708F5002608F400ED
:1027C4009531B225933101302000A9070030AA3D8C
:1027D400250829078600013087000108A800280879
:1027E400031DF52BF62BD72B080024008F01900135
:1027F4000430910086308D00E8308C002E001010DB
:1028040024000D082100D90024000C082100D80060
:102814002E001A140230F2000030F30091317721B7
:1028240093312E0011101B144D30F2001130F300BF
:1028340091319B219331073024008E0008007208E7
:1028440073040319262C272C4E2C0130F600312C4E
:102854000130F235F30D890B2B2C0130F607F31FF1
:10286400342C352C2A2C73087502031D3B2C72085A
:102874007402031C3E2C3F2C432C7208F402730890
:10288400F53B0130F336F20C890B442C0130F6028F
:10289400031D4D2C4E2C352C7508F3007408F200E2
:1028A4000800F701F8017208730403195A2C5B2C11
:1028B400882C0130F600652C0130F235F30D890BBC
:1028C4005F2C0130F607F31F682C692C5E2C013055
:1028D400F735F80D890B6A2C73087502031D742CE7
:1028E40072087402031C772C782C7D2C7208F40275
:1028F4007308F53B77140130F336F20C890B7E2C08
:102904000130F602031D872C882C692C7808F3000B
:102914007708F2000800F50023000F0C890C013938
:10292400F40011081F397404031D992C9A2C8E2C61
:10293400111411189E2C9F2C9B2C0F0C890C0139FF
:10294400F40011081F397404031DA92CAA2C9F2C10
:102954004E3095311625943123000F0C890C013922
:10296400F40011081F397404031DB92CBA2CAE2CC1
:10297400750895311625943123000F0C890C013903
:10298400F40011081F397404031DC92CCA2CBE2C71
:1029940011151119CE2CCF2CCB2C080020006C1C47
:1029A400D42CD52CDE2C2D08A5002C08A7002B0830
:1029B400A6009331D32394312000AF1FE22CE32CE3
:1029C400E52CAE01AF01B001B101F92C2030F200C9
:1029D4000030F30020002C08F5002B08F40095319A
:1029E400B225943101302000B0070030B13D3108E8
:1029F400803AF8002F08803A7802031D032D2E0830
:102A04003002031C062D072DE82C20006C180B2D1A
:102A14000C2D152D2D08A5002C08A7002B08A600A9
:102A24009331D32394310800F300730823008C00FE
:102A3400901F1D2D1E2D1F2D602D0F301005F2002F
:102A4400083072060319272D282D3E2D0F3010054E
:102A5400F2000B3072060319302D312D3E2D101665
:102A64002E000F1C362D372D322D23000F193B2D30
:102A74003C2D602D0F08602D0F301005F20008303A
:102A840072060319462D472D502D0F301005F20004
:102A94000B307206031D4F2D502D602D0F18532D32
:102AA400542D502D0F0C890C0139F20011081F39D7
:102AB4007204031D5E2D5F2D542D11080800F701CB
:102AC400F51F652D662D6D2DF409F509F40A03191A
:102AD400F50A0130F700F31F702D712D762DF209E0
:102AE400F309F20A0319F30A7208730403197B2D1C
:102AF4007C2DA32D0130F600862D0130F235F30D27
:102B0400890B802D0130F607F31F892D8A2D7F2D27
:102B140073087502031D902D72087402031C932D13
:102B2400942D982D7208F4027308F53B0130F336A6
:102B3400F20C890B992D0130F602031DA22DA32D51
:102B44008A2D77080319A72DA82DAD2DF409F509B1
:102B5400F40A0319F50A7508F3007408F200080072
:102B6400740875040319B72DB82DBE2D74087504A7
:102B7400031DBD2DBE2DC32D720880310320953158
:102B84000A2E7408860087014931160001040319CE
:102B9400CC2DCD2DEC2D7408860087014931403FA2
:102BA4002000A000413FA100740886008701423143
:102BB400403FA200413FA3002308803AA40021081B
:102BC400803A2402031DE82D200822020318EB2D6D
:102BD400EC2D0A2E740886008701423174088400A3
:102BE40075088500003F2000A000013FA100403F80
:102BF40020078400413F213D85007208800074084D
:102C04008600870142310130810741310318810A6E
:102C1400080020009A019901960197019801073054
:102C24009500FF309100FF309200FF309300FF3099
:102C34009400FF303E00D900C430CE00EF30C30012
:102C44000730E400FF30B800DA01E501C401B9013E
:102C54001830CF00E601BA01C501D001DB01FF3015
:102C6400BB00FF30C600FF30D100FF30DC0007306E
:102C7400E700FF30BC00FF30C700FF30D200FF3058
:102C8400DD000730E800D512D416D3124B30F20021
:102C94001130F30091318F2196312E0016160C302D
:102CA4003D0090001330C50014303E00A3001030E6
:102CB4003D00A90015303E00A40011303D00AA00DB
:102CC4001430C6000800F701F31F692E6A2E712E16
:102CD400F209F309F20A0319F30A0130F700F51FA8
:102CE400742E752E7C2EF409F509F40A0319F50ADD
:102CF4000130F706F801F901720873040319832EF1
:102D0400842EB12E0130F6008E2E0130F235F30DF3
:102D1400890B882E0130F607F31F912E922E872EF1
:102D24000130F835F90D890B932E73087502031DD4
:102D34009D2E72087402031CA02EA12EA62E7208CA
:102D4400F4027308F53B78140130F336F20C890B66
:102D5400A72E0130F602031DB02EB12E922E770855
:102D64000319B52EB62EBB2EF809F909F80A031972
:102D7400F90A7908F3007808F20008002000A40199
:102D8400A501780886008701403FA000413FA100CB
:102D9400200884002108850012002A3A031DD32E3E
:102DA400D42E032F78088600870101308107413132
:102DB4000318810A790886008701010884008501C7
:102DC40002308107003FA400013FA500172F25080A
:102DD400F3002408F2000A30F4000030F5009331C7
:102DE400B4239631200023087207A4000030733DF9
:102DF400A500780886008701013081074131031856
:102E0400810A780886008701403FA000413FA10065
:102E140020088400210885000008D03EA3000A3061
:102E24002302031C162F172FE92E2508F900240866
:102E3400F8000800210052085304031D222F232FF9
:102E44002B2F53082000AB00210052082000AA00B9
:102E5400342F5208FF3E2000AA00FF302100533DCA
:102E64002000AB006C1C372F382F462F2708F600A4
:102E7400F7017608F2007708F3002608F500250824
:102E8400F4009531B22597312000AB1B4A2F4B2F0C
:102E94004C2F4E2FAA01AB01A801A901622F2030AB
:102EA400F2000030F30020002608F5002508F400A5
:102EB4009531B225973101302000A8070030A93D93
:102EC4002908803AF6002B08803A7602031D6C2FFD
:102ED4002A082802031C6F2F702F512F20006C1812
:102EE400742F752F832F2708F600F7017608F20058
:102EF4007708F3002608F5002508F4009531B2257B
:102F0400973108004130F900EE30890B872FF90B17
:102F1400872F0032303094318D24973134309431FE
:102F24008D249731A630890B952F0032303094319F
:102F34008D2497310730F9007D30890B9F2FF90BD1
:102F44009F2F0000303094318D24973134309431E8
:102F54008D249731A630890BAD2F00323030943157
:102F64008D2497312130890BB52F000030309431F6
:102F74008D249731343094318D249731A630890BC8
:102F8400C12F0032303094318D2497312130890B98
:102F9400C92F0000203094318D249731243094318E
:102FA4008D249731A630890BD52F003220309431EF
:102FB4008D2497310730F9007D30890BDF2FF90B11
:102FC400DF2F0000F4012830893136219731F401D4
:102FD4000630893136219731F4010F308931362199
:102FE4009731F40101308931362197310330F900EA
:102FF4009830890BFB2FF90BFB2F080000340034A9
:10300400003400340034003400340034003400341C
:10301400003400340034003400340034003400340C
:1030240000340034003400340034003400340034FC
:103034000034003400340034003400342534303497
:103044003234643420342034203420342034203486
:1030540020342034203420342034203420342034CC
:103064004C34253430343134643420340034253441
:103074003034323475343A3425343034323475349F
:103084003A34253430343234753420342034203406
:103094002034203420344134203400342534303476
:1030A400323475343A3425343034323475343A3465
:1030B40025343034323475342034203420342034F0
:1030C4002034203461342034003425343034323414
:1030D4006434203420342034203420342034203408
:1030E400203420342034203420344C3425343034FB
:1030F400313464342034003425343034323475347B
:103104003A3425343034323475343A342534303456
:1031140032347534203420342034433454344C3421
:1031240041345234003425343034323475343A3432
:1031340025343034323475343A342534303432342E
:103144007534203420342034433454344C346134C2
:10315400523400342534303432346434203443342B
:1031640020342034203420342034203420342034BB
:10317400203420344C342534633420340034253452
:103184003034323475343A3425343034323475348E
:103194003A342534303432347534203443344134B1
:1031A4002034003425343034323475343A34253400
:1031B4003034323475343A3425343034323475345E
:1031C40020344C3441342034003425343034323407
:1031D40075343A3425343034323475343A34253441
:1031E400303432347534203454344134203400348F
:1031F400203420342034203420342034203420342B
:10320400203420342034203420342034203420341A
:02321400003484
:020000040001F9
:08000000FF3FFF3FFF3FFF3F00
:0A000E00EC3FFF3F9F3FFF3FFF3F25
:00000001FF
