:1000000080314028080008007E14803100308600CE
:10001000003087002E00161C0E280F2817280C1CF5
:100020001228132817289431182480313E28161ED0
:100030001A281B2823280C1E1E281F282328943129
:100040006B2480313E280B1F262827283E281A1CA7
:100050002A282B283328101C2E282F2833289631A5
:100060004A2680313E281B1C362837283E28111C82
:100070003A283B283E289531562580317E100900CC
:10008000803142284E3084009430850021001200D7
:10009000E9001200EA001200EB001200EC0012006E
:1000A000ED001200EE00FA01FB012000E401E50181
:1000B000E601E701E801E901A03084000030850095
:1000C00049309431482480312200B001B1017E10C2
:1000D00020008F312A2FF80023000F0C890C0139E2
:1000E000F40011081F397404031D772878286C2840
:1000F000111411187C287D2879280F0C890C0139DE
:10010000F40011081F397404031D872888287D28EE
:100110004E3089312921803123000F0C890C01399F
:10012000F40011081F397404031D972898288C289F
:100130007808FA3889312921803123000F0C890C85
:100140000139F40011081F397404031DA828A928D7
:100150009D287808FE3889312921803123000F0C31
:10016000890C0139F40011081F397404031DB928E2
:10017000BA28AE280000230091149118C028C12885
:10018000BD280F0C890C0139F40011081F397404C3
:10019000031DCB28CC28C1284F308931292180313B
:1001A00023000F0C890C0139F40011081F39740465
:1001B000031DDB28DC28D0288731E4278031F600B6
:1001C00023000F0C890C0139F40011081F39740445
:1001D000031DEB28EC28E02891161116111AF128BE
:1001E000F228EE2891149118F628F728F3280F0C1E
:1001F000890C0139F40011081F397404031D012909
:100200000229F7284E3089312921803123000F0C33
:10021000890C0139F40011081F397404031D1129D8
:10022000122906297808FA388931292180312300DA
:100230000F0C890C0139F40011081F397404031DD7
:100240002229232917297808FE388931292180316C
:1002500023000F0C890C0139F40011081F397404B4
:10026000031D3329342928290000230091149118F3
:100270003A293B2937290F0C890C0139F400110860
:100280001F397404031D452946293B294F30893104
:100290002921803123000F0C890C0139F400110849
:1002A0001F397404031D552956294A298731E4272B
:1002B0008031F70023000F0C890C0139F40011087C
:1002C0001F397404031D652966295A2991161116D0
:1002D000111A6B296C2968299114911870297129B8
:1002E0006D290F0C890C0139F40011081F397404B1
:1002F000031D7B297C2971294E30893129218031C8
:1003000023000F0C890C0139F40011081F39740403
:10031000031D8B298C2980297808FA3889312921F5
:10032000803123000F0C890C0139F40011081F39AA
:100330007404031D9C299D29912911151119A129C6
:10034000A2299E297708F4000430F436890BA529E8
:100350000F307405F5007608F03975040800523046
:10036000F4005430F5009631B4268131A6302000D7
:100370005206F130031953060319BF29C029F82981
:100380008B31B42381312000DB01D901590894312C
:10039000C62481312000DB070130D9070B30590218
:1003A000031CD329D429C6290E30D5000030D6002D
:1003B0005608F3005508F2009431BA248131200028
:1003C000DB070130D5070030D63D00305602223021
:1003D00003195502031CED29EE29D829A630A000E7
:1003E000F130A1005B08A200963196268131B82A2F
:1003F000DB01DA015A089431C62481312000DB0781
:100400000130DA070B305A02031C072A082AFA299E
:100410000E30D7000030D8005808F3005708F2001B
:100420009431BA2481312000DB070130D707003036
:10043000D83D00305802223003195702031C212AEC
:10044000222A0C2A54085B060319272A282A2E2A56
:100450008B31B4238131953139258131003094318C
:10046000C62481312100EE0001309431C62481314F
:100470002100ED0002309431C62481312100EC00CE
:1004800003309431C62481312000E50004309431DA
:10049000C62481312100EB0005309431C62481311E
:1004A0002100CD0006309431C62481312100CE00D8
:1004B00007309431C62481312100EA00083094319C
:1004C000C62481312100E90009309431C6248131EC
:1004D0002000E8000A309431C62481312000E70072
:1004E000E6010E30A0000030A100D530A200D630C9
:1004F000A300D730A400D830A500D930A600883199
:10050000E420813113302000A0000030A100DA3057
:10051000A200DB30A300DC30A400DD30A500DE301B
:10052000A6008831E420813118302000A00000307E
:10053000A100DF30A200E030A300E130A400E230EF
:10054000A500E330A6008831E42081311D30200071
:10055000A0000030A100E430A200E530A300E630A6
:10056000A400E730A500E830A6008831E4208131FE
:100570009431082481312100CB01CA01C901C8018D
:100580009431742481312100C70120006508031DC6
:10059000CA2ACB2ACD2A961216122100CC0120009D
:1005A000E901FB012100D3018A31E0228131003AC7
:1005B000031DDB2ADC2AE22A8B31B42381319531F9
:1005C000392581318C31282481318D31CB25813100
:1005D00008003F30F2009631352682312E30F2008D
:1005E00096313526823120006808D2006708D30092
:1005F0006608D40003307B060319FF2A002B122B58
:1006000009307B060319052B062B122B0A307B06BB
:1006100003190B2B0C2B122B0B307B06031D112BFC
:10062000122B1E2B21006B082000D20021004D0848
:100630002000D30021004E082000D4003F30A80045
:100640005208A9009731C22782313A302000C100F8
:100650004230A8005308A9009731C22782313A30AE
:100660002000C4004530A8005408A9009731C227D3
:10067000823143302000CA005430CB004C30CC00D3
:100680006508031D442B452B4A2B6130D0000030F8
:10069000D1004E2B4130D0000030D1005008CD00A9
:1006A0005230CE002E30A80021006A082000A90098
:1006B0009731C227823120302000B0004330B10092
:1006C0004C30BB0021006908303E2000BD00803066
:1006D0009431542482312000A0010030963120262C
:1006E00082313F302000A0000030A100883102207C
:1006F00082319531D0258231200020082104031D4C
:10070000822B832B792BC0309431542482312000EA
:10071000A00108309631202682312E302000A00022
:100720000030A1008831022082319531D0258231FC
:10073000200020082104031D9E2B9F2B952B803029
:10074000943154248231F12BA001A00A003096315B
:10075000202682311D2C0430A00000309631202646
:1007600082311D2C0730A0000030963120268231C6
:100770001D2C0B30A00000309631202682311D2C1C
:10078000A001A00A00309631202682311D2C0430B1
:10079000A00000309631202682311D2C0730A000A9
:1007A00000309631202682311D2C0C30A000003004
:1007B0009631202682311D2C0D30A000003096315C
:1007C000202682311D2C0E30A000003096312026CC
:1007D00082311D2C0F30A00000309631202682314E
:1007E0001D2C7B082000AC00AD012D08003A031938
:1007F000FA2B1D2C2C08003A0319A42B013A0319DB
:10080000AB2B033A0319B22B013A0319B92B073A60
:100810000319D52B013A0319DC2B033A0319E32BF7
:10082000013A0319EA2B0E3A0319C02B033A0319B4
:10083000C72B013A0319CE2B1D2C08002100CC0137
:1008400020006903031D252C262C242DF92C18309B
:10085000F2000030F3006808013EF4000030031895
:100860000130F50089317421843172082000E800DC
:100870006808F600093095312B2584314F2D3C3026
:10088000F2000030F3006708013EF4000030031866
:100890000130F50089317421843172082000E700AD
:1008A0006708F6000A3095312B2584314F2D3C30F6
:1008B000F2000030F3006608013EF4000030031837
:1008C0000130F50089317421843172082000E6007E
:1008D0004F2D0930FB004F2D1830F2000030F3008F
:1008E00021006B08013EF400003003180130F500D0
:1008F00089317421843172082100EB006B08F60005
:10090000043095312B2584314F2D3C30F2000030DE
:10091000F30021004D08013EF400003003180130BF
:10092000F50089317421843172082100CD004D0811
:10093000F600053095312B2584314F2D3C30F200E7
:100940000030F30021004E08013EF400003003188F
:100950000130F50089317421843172082100CE0004
:100960004E08F600063095312B2584314F2D33305B
:10097000F2000030F30021006A08013EF40000306C
:1009800003180130F5008931742184317208210087
:10099000EA006A08F600073095312B2584314F2D87
:1009A00021006908013E0339E9006908F6000830B2
:1009B00095312B2584314F2D0130E5066508F60071
:1009C000033095312B25843120006508031DE92C67
:1009D000EA2C4F2D961216122100C801943174246E
:1009E00084319431082484314F2D8D312525843173
:1009F0004F2D7B08A700A8012808003A0319012DF4
:100A00004F2D2708003A0319272C013A03193F2CD0
:100A1000033A0319572C013A0319692C073A0319B1
:100A2000B72C013A0319D02C033A0319DC2C013AF4
:100A30000319F52C0E3A03196C2C033A0319852C73
:100A4000013A03199E2C4F2D6908031D282D292DCD
:100A5000312D0230E90001302100D3002000E401F3
:100A60004F2D02306906031D362D372D4F2D0230D4
:100A700021005306031D3D2D3E2D452D2000E9018B
:100A80002100D3012000E4014F2D5303031D492D04
:100A90004A2D4F2D0230D30002302000E407080019
:100AA00023000F0C890C0139F40011081F3974045C
:100AB000031D5B2D5C2D502D11141118602D612D1F
:100AC0005D2D0F0C890C0139F40011081F397404D5
:100AD000031D6B2D6C2D612D9A30893129218531B3
:100AE00023000F0C890C0139F40011081F3974041C
:100AF000031D7B2D7C2D702D0130893129218531FD
:100B000023000F0C890C0139F40011081F397404FB
:100B1000031D8B2D8C2D802D91149118902D912DCE
:100B20008D2D0F0C890C0139F40011081F39740444
:100B3000031D9B2D9C2D912D9B30893129218531C1
:100B400023000F0C890C0139F40011081F397404BB
:100B5000031DAB2DAC2DA02D8731E4278531F50089
:100B600023000F0C890C0139F40011081F3974049B
:100B7000031DBB2DBC2DB02D91161116111AC12DC0
:100B8000C22DBE2D0F0C890C0139F40011081F393C
:100B90007404031DCC2DCD2DC22D11151119D12D8D
:100BA000D22DCE2D751FD52DD62D502D0F0C890C85
:100BB0000139F40011081F397404031DE02DE12DE3
:100BC000D62D11141118E52DE62DE22D0F0C890CF0
:100BD0000139F40011081F397404031DF02DF12DA3
:100BE000E62D9A3089312921853123000F0C890C9B
:100BF0000139F40011081F397404031D002E012E61
:100C0000F52D003089312921853123000F0C890C05
:100C10000139F40011081F397404031D102E112E20
:100C2000052E91149118152E162E122E0F0C890CCC
:100C30000139F40011081F397404031D202E212EE0
:100C4000162E9B3089312921853123000F0C890C08
:100C50000139F40011081F397404031D302E312EA0
:100C6000252E8731E4278531F50023000F0C890CF0
:100C70000139F40011081F397404031D402E412E60
:100C8000352E91161116111A462E472E432E0F0C93
:100C9000890C0139F40011081F397404031D512E09
:100CA000522E472E11151119562E572E532E7508F8
:100CB00008002C30F2009631352686313D30F200A6
:100CC0009631352686312C302000A8000530F20000
:100CD00064089531BD258631D53E8600870101081F
:100CE0002000A9009731C22786313A302000AE009B
:100CF0002F30A8000530F20064089531BD258631FB
:100D0000D63E8600870101082000A9009731C2273E
:100D100086313A302000B1003230A8000530F200B0
:100D200064089531BD258631D73E860087010108CC
:100D30002000A9009731C227863120302000B4005E
:100D40003530A8000530F20064089531BD258631A4
:100D5000D83E8600870101082000A9009731C227EC
:100D6000863143302000B7000530F2006408953129
:100D7000BD258631D93E860087010108303E20001E
:100D8000BB004C30BA003D30A8000530F2006408CA
:100D90009531BD258631DA3E8600870101082000A5
:100DA000A9009731C22786313A302000BF00403079
:100DB000A8000530F20064089531BD258631DB3E80
:100DC0008600870101082000A9009731C2278631DB
:100DD0003A302000C2004330A8000530F200640819
:100DE0009531BD258631DC3E860087010108200053
:100DF000A9009731C227863120302000C500463037
:100E0000A8000530F20064089531BD258631DD3E2D
:100E10008600870101082000A9009731C22786318A
:100E200043302000C8000530F20064089531BD252C
:100E30008631DE3E860087010108303E2000CC006E
:100E40004C30CB0080309431542486312000A001F6
:100E500000309631202686312C302000A000003052
:100E6000A1008831022086319531D02586312000BD
:100E700020082104031D3D2F3E2F342FC030943114
:100E8000542486312000A001083096312026863176
:100E90003D302000A0000030A100883102208631C2
:100EA0009531D0258631200020082104031D592FBB
:100EB0005A2F502F0800D02F0E302000A0000030F5
:100EC000A100210055082000A200210056082000A2
:100ED000A300210057082000A4002100580820008A
:100EE000A500210059082000A600973187278731E7
:100EF000E32F13302000A0000030A10021005A0889
:100F00002000A20021005B082000A30021005C0853
:100F10002000A40021005D082000A50021005E083B
:100F20002000A600973187278731E32F1830200053
:100F3000A0000030A10021005F082000A2002100D5
:100F400060082000A300210061082000A400210007
:100F500062082000A500210063082000A600973148
:100F600087278731E32F1D302000A0000030A1002B
:100F7000210064082000A200210065082000A300D1
:100F8000210066082000A400210067082000A500B9
:100F9000210068082000A600973187278731E32FBA
:100FA0007708003A0319D52FE32F7608013A031981
:100FB0005C2F033A0319792F013A0319962F073A48
:100FC0000319B32FE32F08000F3023001005F200A0
:100FD000083072060319ED2FEE2FF72F0F30100592
:100FE000F2000B307206031DF62FF72FF82F911524
:100FF0000F1CFB2FFC2FF82F0C080800080008001E
:101004000728240894316324883120002108A30090
:101014002008A200A00A0319A10A220884002308B8
:1010240085000008A4002408031D19281A28032891
:101034000800F400312801305C2802305C280330B9
:101044005C2804305C2805305C2806305C280730B6
:101054005C2800305C280A305C280B305C2874085B
:10106400F200F3017308003A031939282B28720897
:10107400003A03191D28013A03191F28033A0319DA
:101084002128013A03192328073A03192528013A8C
:1010940003192728033A03192928013A03192B288D
:1010A4000E3A03192D28033A03192F28013A03197C
:1010B40023282B280800F50023000F0C890C013984
:1010C400F40011081F397404031D69286A285E2876
:1010D400111411186E286F286B280F0C890C013914
:1010E400F40011081F397404031D79287A286F2825
:1010F4004E3089312921883123000F0C890C0139A4
:10110400F40011081F397404031D89288A287E28D5
:10111400750889312921883123000F0C890C013984
:10112400F40011081F397404031D99289A288E2885
:10113400111511199E289F289B280800953199257F
:1011440088312100CC0120006908031DAA28AB289E
:10115400AF280130E900FB01E3286903031DB3282C
:10116400B428C6287B0888311B208831F600073054
:101174007B06031DBE28BF28C3282000E901FB010C
:10118400E3287608FB00E32802306906031DCB2818
:10119400CC28E32821005303031DD128D228D928C1
:1011A4002000E9012100D3012000E401E3280230FA
:1011B4005306031DDE28DF28E3280130D300200076
:1011C400E401080020002208860087012108F300BA
:1011D4002008F2009431BA248831810020002308C9
:1011E400860087012008013EF2000030213DF30013
:1011F4009431BA24883181002000240886008701B4
:101204002008023EF2000030213DF3009431BA245C
:101214008831810020002508860087012008033ECC
:10122400F2000030213DF3009431BA24883181006A
:1012340020002608860087012008043EF2000030C2
:10124400213DF3009431BA24883181000800F30071
:10125400730823008C00901F302931293229732907
:101264000F301005F2000830720603193A293B29A1
:1012740051290F301005F2000B307206031943296F
:101284004429512910162E000F1C49294A294529A1
:1012940023000F194E294F2973290F0873290F3082
:1012A4001005F20008307206031959295A296329D6
:1012B4000F301005F2000B307206031D62296329FA
:1012C40073290F186629672963290F0C890C0139C2
:1012D400F20011081F397204031D7129722967294C
:1012E40011080800F701F51F782979298029F409E4
:1012F400F509F40A0319F50A0130F700F31F8329ED
:1013040084298929F209F309F20A0319F30A7208F4
:10131400730403198E298F29B6290130F6009929FF
:101324000130F235F30D890B93290130F607F31FD1
:101334009C299D29922973087502031DA32972080B
:101344007402031CA629A729AB297208F4027308A6
:10135400F53B0130F336F20C890BAC290130F6026F
:10136400031DB529B6299D2977080319BA29BB2974
:10137400C029F409F509F40A0319F50A7508F300FC
:101384007408F20008002000A501A11FCA29CB2976
:10139400D229A009A109A00A0319A10A0130A500B4
:1013A400A31FD529D629DD29A209A309A20A031955
:1013B400A30A0130A506A601A701200821040319E8
:1013C400E429E529122A0130A400EF290130A035CF
:1013D400A10D890BE9290130A407A11FF229F329E2
:1013E400E8290130A635A70D890BF4292108230229
:1013F400031DFE2920082202031C012A022A072AAF
:101404002008A2022108A33B26140130A136A00C17
:10141400890B082A0130A402031D112A122AF32978
:1014240025080319162A172A1C2AA609A709A60A99
:101434000319A70A2708A1002608A0000800200015
:101444009A019901960197019801073095000F3090
:101454009100FF309200FF309300FF309400FF3082
:101464003E00D900C430CE00EF30C3000730E400A2
:10147400AF30B800DA01E501C401B9011830CF007A
:10148400E601BA01C501D001DB01FF30BB00FF302A
:10149400C600FF30D100FF30DC000730E700FF302A
:1014A400BC00FF30C700FF30D200FF30DD00073042
:1014B400E800D512D416D3120330F2000030F30042
:1014C40094313C248A312E0016160C303D009000D5
:1014D4001330C50014303E00A30010303D00A900B5
:1014E40015303E00A4000E30960011303D00AA00D5
:1014F400043091001430C600080021004708031985
:10150400842A852A8C2A2000961216122100CB01E7
:10151400CA01DF2A20006508031D912A922A952A10
:1015240096121612882A7A0821006A02031C9B2A42
:101534009D2A01309E2A0030F60069085202031CDD
:10154400A42AA62A0130A72A0030F7007608031936
:10155400AC2AAD2AB02A20009616B22A2000961290
:1015640077080319B62AB72AB92A1616BA2A161200
:1015740076080319BE2ABF2ACA2A21004B08031D74
:10158400C42AC52ACA2A0130D0009531E3258A31FC
:1015940077080319CE2ACF2ADA2A21004A08031D24
:1015A400D42AD52ADA2A0130CF009531E3258A31AD
:1015B40076082100CB007708CA00080021006E08D5
:1015C4000319E52AE62AEC2A3D306E02031CEB2AB5
:1015D400EC2AEE2A0030422B6D080319F22AF32A72
:1015E400EC2A15306D02031CF82AF92AFA2AEC2A8F
:1015F4006C080319FE2AFF2AEC2A3D306C02031CF6
:10160400042B052B062BEC2A023020006502031C58
:101614000C2B0D2B0E2BEC2A183021006B02031C13
:10162400142B152B162BEC2A3C304D02031C1B2BC0
:101634001C2B1D2BEC2A3C304E02031C222B232B8B
:10164400242BEC2A33306A02031C292B2A2B2B2B44
:10165400EC2A04306902031C302B312B322BEC2A88
:10166400183020006802031C382B392B3A2BEC2A43
:101674003C306702031C3F2B402B412BEC2A0130EA
:1016840008007A08210058020318492B4A2B5F2BC3
:101694007A08D800200068082100D50020006708D7
:1016A4002100D600200066082100D7000130F60092
:1016B4000030F70087315B278B3121005D087A0207
:1016C4000318652B662B7B2B7A08DD002000680845
:1016D4002100DA00200067082100DB0020006608F2
:1016E4002100DC000230F6000030F70087315B2770
:1016F4008B312100520863020318812B822B972B14
:101704005208E300200068082100DF002000670879
:101714002100E000200066082100E1000330F6000B
:101724000030F70087315B278B31210068085202B3
:1017340003189D2B9E2BB32B5208E8002000680849
:101744002100E400200067082100E500200066086D
:101754002100E6000430F6000030F70087315B27F3
:101764008B31080005302100EE000330ED000A3013
:10177400EC002000E5010C302100EB00CD01CE018E
:101784001430EA000230E9002000E801E701E60134
:1017940021006E08F600003095312B258B31210095
:1017A4006D08F600013095312B258B3121006C0832
:1017B400F600023095312B258B3120006508F600A8
:1017C400033095312B258B3121006B08F600043052
:1017D40095312B258B3121004D08F60005309531CC
:1017E4002B258B3121004E08F600063095312B2530
:1017F4008B3121006A08F600073095312B258B3197
:1018040021006908F600083095312B258B31200022
:101814006808F600093095312B258B3120006708C4
:10182400F6000A3095312B258B318D3125258B31EE
:101834002100D801D901FF30DD000330DE00E201D0
:10184400E301FF30E7000330E80008004130F9000D
:10185400EE30890B2B2CF90B2B2C003230308831D5
:101864005D208C31343088315D208C31A630890B79
:10187400392C0032303088315D208C310730F9004A
:101884007D30890B432CF90B432C00003030883118
:101894005D208C31343088315D208C31A630890B49
:1018A400512C0032303088315D208C312130890B4D
:1018B400592C0000303088315D208C31343088312F
:1018C4005D208C31A630890B652C00323030883194
:1018D4005D208C312130890B6D2C00002030883143
:1018E4005D208C31243088315D208C31A630890B09
:1018F400792C0032203088315D208C310730F9009A
:101904007D30890B832CF90B832C0000F4012830E3
:101914008E3179268C31F40106308E3179268C3162
:10192400F4010F308E3179268C31F40101308E317F
:1019340079268C310330F9009830890B9F2CF90BF0
:101944009F2C080021004C086C020318AA2CAB2C15
:10195400AE2CCC012000E901210047080319B32C67
:10196400B42CC52C2000961216122100C801943103
:1019740074248C31943108248C312100CB01CA01A8
:10198400C901C701022D953176258C312000D5017E
:10199400680821006B06031DD02CD12CE42C2000F8
:1019A400670821004D06031DD82CD92CE42C2000F7
:1019B400660821004E06031DE02CE12CE42C0130C6
:1019C4002000D50020005508D6006508031DEB2C27
:1019D400EC2CF12C200056082100C900022D5608D9
:1019E4000319F52CF62CEC2C21004908031DFB2CC3
:1019F400FC2CEC2C0130D1009531E3258C31EC2CFE
:101A040020006908031D072D082D0C2D8D31CB25D1
:101A14008C31242D6903031D102D112D182D013037
:101A24002100CC078231E9228C31242D0230690651
:101A3400031D1D2D1E2D242D01302100CC078631C0
:101A440059268C310800F9010530F20079089531E6
:101A5400BD258D31D53E8600870181010530F20018
:101A640079089531BD258D31D63E860087018101E7
:101A74000530F20079089531BD258D31D73E8600B9
:101A8400870181010130F90704307902031C4B2DD1
:101A94004C2D262D2100D801D901FF30DD00DE01B7
:101AA400E201E301E7010330E8000E302000A0006A
:101AB4000030A100210055082000A2002100560892
:101AC4002000A300210057082000A400210058088A
:101AD4002000A500210059082000A600973187277F
:101AE4008D3113302000A0000030A10021005A08DD
:101AF4002000A20021005B082000A30021005C0854
:101B04002000A40021005D082000A50021005E083B
:101B14002000A600973187278D3118302000A000BF
:101B24000030A10021005F082000A200210060080D
:101B34002000A300210061082000A4002100620805
:101B44002000A500210063082000A6009731872704
:101B54008D311D302000A0000030A1002100640858
:101B64002000A200210065082000A30021006608CF
:101B74002000A400210067082000A50021006808B7
:101B84002000A600973187278D31953139258D3175
:101B940008003F30F200963135268D312E30F200A8
:101BA400963135268D313F302000A8006808A90001
:101BB4009731C2278D313A302000C1004230A8004D
:101BC4006708A9009731C2278D313A302000C4003C
:101BD4004530A8006608A9009731C2278D3120300E
:101BE4002000C700210047080319F92DFA2D022E01
:101BF40020302000C8002030C9002030CA000E2E3A
:101C0400200065080319072E082EFA2D4330C8005A
:101C14005430C9004C30CA006508031D122E132E1F
:101C2400182E6130D0000030D1001C2E4130D0007D
:101C34000030D1005008CD002E30A8007A08A90049
:101C44009731C2278D3120302000B0004330B100DD
:101C54004C30BB000A30F2000030F300210052087F
:101C64002000AC00AD012C08F4002D08F5008931EA
:101C740074218D317208303E2000BD0080309431D3
:101C840054248D312000A0010030963120268D315E
:101C94003F302000A0000030A100883102208D31A7
:101CA4009531D0258D31200020082104031D5B2EA1
:101CB4005C2E522EC030943154248D312000A0016A
:101CC4000830963120268D312E302000A0000030BF
:101CD400A100883102208D319531D0258D3120002D
:101CE40020082104031D772E782E6E2E0800F6009E
:101CF4007608F039F7007608F5000430F535890BDD
:101D0400802E7508F039F80023000F0C890C013976
:101D1400F50011081F397504031D912E922E862E8D
:101D240011141118962E972E932E0F0C890C01392D
:101D3400F50011081F397504031DA12EA22E972E3C
:101D44004E30893129218E3123000F0C890C013941
:101D5400F50011081F397504031DB12EB22EA62EED
:101D6400770874040838893129218E3123000F0C37
:101D7400890C0139F50011081F397504031DC32EA0
:101D8400C42EB82E770874040C38893129218E3179
:101D940023000F0C890C0139F50011081F39750453
:101DA400031DD52ED62ECA2E0000770874040838D9
:101DB400893129218E3123000F0C890C0139F5005A
:101DC40011081F397504031DE82EE92EDD2E78084D
:101DD40074040838893129218E3123000F0C890CB1
:101DE4000139F50011081F397504031DFA2EFB2E65
:101DF400EF2E780874040C38893129218E312300A0
:101E04000F0C890C0139F50011081F397504031DE5
:101E14000C2F0D2F012F0000780874040838893125
:101E240029218E3123000F0C890C0139F50011088A
:101E34001F397504031D1F2F202F142F111511197D
:101E4400242F252F212F1030890B262F0032080034
:101E540000302200AF000030AE000030AD00003092
:101E6400AC009631D6268F319431F7248F318C31E2
:101E740028248F318030943154248F312000A001E4
:101E84000030963120268F3120302000A000983079
:101E9400A100883102208F319531D0258F31200067
:101EA40020082104031D572F582F4E2F8131AF21B5
:101EB4008F31953187258F31953111258F3112302E
:101EC400F2001430F300943136248F318A31212208
:101ED4008F311E30F2001430F30094313C248F31E2
:101EE40094312A248F317208730403197A2F7B2FBB
:101EF400812F943100248F318831A0208F31943187
:101F040030248F31720873040319892F8A2F902F7C
:101F1400943104248F3184311E248F319431A424CC
:101F24008F31003A0319972F982F722F0310200036
:101F3400961F031403189F2FA22F20009617A42F77
:101F44002000961397314F278F31943190248F318D
:101F540075082200AB007408AA007308A90072086F
:101F6400A80021006E082000DC00DD01DE01DF0195
:101F740022002C0828022000E00022002D08293B22
:101F84002000E10022002E082A3B2000E20022006B
:101F94002F082B3B2000E3005F086302031DDC2FA6
:101FA4005E086202031DDC2F5D086102031DDC2F45
:101FB4005C0860020318DF2FE02FE92F22002F08AE
:101FC4002E042D042C04031DE82FE92FF82F2200E2
:101FD4002B08AF002A08AE002908AD002808AC0081
:101FE400953104258F318A317F228F318C31A4249D
:0C1FF4008F3163000000722F8031402804
:1027F40024000E14080027008E1708002100C301CE
:10280400C40108002100C101C20108002100CF0158
:10281400D001D101080031009601903095000800E4
:1028240001302100C3000030C40008002E000C1049
:102834009431EA249431080001302100C1000030B1
:10284400C200080073082200A5007208A400080052
:1028540021004408F3004308F20008002100420864
:10286400F3004108F200080073082200A100720876
:10287400A000080073082200A7007208A600080040
:1028840073082200A3007208A200080064008001FB
:102894000131890B492C0034023414340C340A34C9
:1028A40003340534F900F40179088E317926943122
:1028B40008002F0096019701980199019A019B0144
:1028C4000800F900F401F40A79088E31792694316C
:1028D40008003E00D51E6F2C702C732C95314725B3
:1028E400943108000030F200F30096310B26943145
:1028F40027008E130800623031008D008F01910192
:10290400023093009201080001302100BD0700301D
:10291400BE3DBF3DC03D0130D40008002100400849
:10292400F5003F08F4003E08F3003D08F2000800FB
:10293400803023008F0008309000910103308D0017
:1029440090120800210054080319A92CAA2CAD2CBC
:10295400D4010130AE2C0030080020009F01FF306C
:102964009D009C012E008C12803020009E000800E7
:10297400730830009B0072089A001E171E14000092
:10298400000030001C080800F4007408033EF20044
:10299400003003180130F3009431BA249431080054
:1029A400803027008E008D0140308C0024001F08E9
:1029B400F33904389F0008008030290098009901F9
:1029C4009A019B019D019C019701960195010800C4
:1029D4002200200821040319F02CF12CF62C2108E4
:1029E4008A0020080A0094310800803023008F00F8
:1029F40008309000910103308D009016200093154B
:102A040013160800853150259531FA009531F725C4
:102A140095312100D2008B314323953108002E00DB
:102A24000C100B140230F2000030F3009431362401
:102A340095312E00161408000130250090008F01F6
:102A440091018D018C012E009010803025008E00A4
:102A54000800F7007708033EF20000300318013045
:102A6400F3007608F4009631782695310800A630F4
:102A74002000A000F130A1009631FB269531200002
:102A8400A2009631962695310800220026082704D4
:102A940003194D2D4E2D532D27088A0026080A00B0
:102AA40095313E00D51208002E0011102200220894
:102AB400230403195E2D5F2D642D23088A00220848
:102AC4000A009531080024000E1D692D6A2D712D10
:102AD4000E1071088D0070088C000E14752D71088D
:102AE4008D0070088C00080021004808031D7B2D10
:102AF4007C2D7D2D862D0130C802031D822D832D52
:102B0400862D94317424953108003E00B8132000BA
:102B1400911396138630F2001430F3009431242478
:102B240095319331FA2395318B170B170800013037
:102B34002100C700CF01D001D101C8019431742410
:102B440095312000961216122100CB01CA01C90149
:102B54000800F400740821009E0093171313131443
:102B6400000021001318B72DB82DB32D0D08F30064
:102B74000C08F2000800F400F301741CC22DC32DEC
:102B8400C52D7208F3070310F20D0310F40C74083A
:102B9400031DCD2DCE2DBF2D7308080000308031CC
:102BA4006B20953180390319D82DD92DDF2D0130B3
:102BB4002000A0000030A100E22D2000A001A1010E
:102BC4000800210048080319E82DE92DEA2DF62D07
:102BD4006D08C8000030F2000230F30096310B2675
:102BE40095319331FD239531080000309531AB25A3
:102BF40095317308F6007208F5007608F700043082
:102C04007702031C062E072E092E0330F7007708DF
:102C140008007308F5007208F400F536F40CF53674
:102C2400F40C740827008D0072080339F400063090
:102C3400F435890B1A2E74088C0008002000A100BA
:102C440021080319262E272E2A2EC030A2002C2E4E
:102C54008030A20020080F392204A20022089431F7
:102C6400542496310800F301720873078600870123
:102C7400203081000130F30710307302031C432E0F
:102C8400442E362E7208103E86008701810108000A
:102C94002E00101021004608F1004508F00095317F
:102CA4006525963122002408250403195A2E5B2E2B
:102CB400602E25088A0024080A00963108002200A4
:102CC4008E018F0190019101920193018D012100E8
:102CD4009E019B019C0194019501960197019A0123
:102CE40099019801843093009D0108000B0D0B0D90
:102CF4000139F500730830009B0072089A007408CB
:102D04009C001E171E158B1355309F00AA309F0080
:102D14009E149E188E2E8F2E8B2E1E11750C031C46
:102D24008B1303188B1708000030F200F300200007
:102D34002008F4009631782696310130F2000030F4
:102D4400F30020002108F4009631782696310230F1
:102D5400F2000030F30020002208F40096317826B7
:102D6400963108000030F200F3009431BA24963111
:102D7400F6000130F2000030F3009431BA249631A9
:102D8400F7007408860087017608C03F7708C13FC2
:102D94007508860087010230F2000030F300943198
:102DA400BA2496318100080094315B249631943121
:102DB4009A2496318A312122963194317D24963198
:102DC4009431D22496319631612696319431DE24A1
:102DD400963195311E2596319731252796319531B7
:102DE400112596319431AF24963194310D249631C6
:102DF4000800F501F80178089431C6249631F507E6
:102E04000130F8070B307802031C092F0A2FFD2E1E
:102E14000E30F6000030F7007708F3007608F20071
:102E24009431BA249631F5070130F6070030F73DA6
:102E340000307702223003197602031C222F232F3D
:102E44000E2F7508080024008F01900104309100B2
:102E540086308D00E8308C002E00101024000D0800
:102E64002100C60024000C082100C5002E001A14FD
:102E7400FE30F2000730F3009431242497312E0001
:102E840011101B14FF30F2000730F3009431422478
:102E94009731073024008E00080001302000E60737
:102EA4003C306602031C572F582F862FE601013051
:102EB400E7073C306702031C602F612F802FE70176
:102EC4006708F6000A3095312B2597310130200030
:102ED400E80718306802031C702F712F792FE8015E
:102EE4006808F600093095312B259731862F68083C
:102EF400F600093095312B259731862F6708F600A7
:102F04000A3095312B259731080020002108F30061
:102F14002008F2002208F400963178269731200028
:102F24002008013EF2000030213DF3002308F400A4
:102F340096317826973120002008023EF2000030B6
:102F4400213DF3002408F4009631782697312000BF
:102F54002008033EF2000030213DF3002508F40070
:102F640096317826973120002008043EF200003084
:102F7400213DF3002608F4009631782697310800A5
:102F84000A30F2000030F30020002908F800F901AB
:102F94007808F4007908F5008931742197317208B2
:102FA4002000AB000A30A0000030A1006430F20021
:102FB4000030F3002908F800F9017808F4007908D2
:102FC400F50089317421973120002B087202A20088
:102FD4000030733BA3008931C521973120002008BC
:102FE400AA002808860087012A08303E8100280AA2
:102FF400860087012B08303E81000800003400342D
:10300400003400340034003400340034003400341C
:10301400003400340034003400340034003400340C
:1030240000340034003400340034003400340034FC
:1030340000340034003400340034003441346E343D
:10304400743465347334203464346F342034493434
:083054004E34493454340034B9
:020000040001F9
:08000000FF3FFF3FFF3FFF3F00
:0A000E00EC3FFF3F9F3FFF3FFF3F25
:00000001FF
