:1000000080314C28080008007E14803100308600C2
:10001000003087002E00161C0E280F2817280C1CF5
:100020001228132817289231562280314A28961E0A
:100030001A281B2823288C1E1E281F2823289331AA
:100040002E2380314A28161E262827282F280C1EEA
:100050002A282B282F289231B12280314A280B1FC1
:10006000322833284A281A1C362837283F28101CE3
:100070003A283B283F289331F32380314A281B1C20
:10008000422843284A28111C462847284A289331E9
:100090003D2380317E10090080314E284B30840092
:1000A0009230850021001200E8001200E9001200E1
:1000B000EA001200EB001200EC00FA01FB01200044
:1000C000EC01CE308400003085001A3092318C2251
:1000D000803120308400013085003F3092318C2205
:1000E00080317E1020008931DA29B7302000D70016
:1000F000C130D8009830D9008731E2278031803074
:100100009231922280312000A00100309331DE2311
:100110008031B7302000A00093316F2380319331BC
:10012000B7238031200020082104031D9828992836
:100130008F287A2E6103031D9E289F28E528B7305B
:100140002000D7006530D8009830D900210066081B
:10015000A000A10120082000DA00210021082000D1
:10016000DB0021006508A200A30122082000DC00BA
:10017000210023082000DD0021006408A400A5015F
:1001800024082000DE00210025082000DF00873140
:10019000E227803180309231922280312000A0010C
:1001A00000309331DE238031B7302000A00093313E
:1001B0006F2380319331B723803120002008210440
:1001C000031DE328E428DA282A29B7302000D700C5
:1001D0007C30D8009830D90021006608A000A10129
:1001E00020082000DA00210021082000DB00210087
:1001F0006508A200A30122082000DC0021002308DA
:100200002000DD0021006408A400A50124082000CE
:10021000DE00210025082000DF008731E227803141
:1002200080309231922280312000A0010030933141
:10023000DE238031B7302000A00093316F2380315E
:100240009331B7238031200020082104031D292980
:100250002A292029A630D700C130D8009830D900EB
:100260008731E2278031C0309231922280312000E4
:10027000A00108309331DE238031A6302000A00099
:1002800093316F2380319331B723803120002008D0
:100290002104031D4C294D2943298030923192229B
:1002A00080312000A001A00A00309331DE2380318C
:1002B0009D2E6103031D5D295E29A429B73020000E
:1002C000D7006530D8009830D90021006608A0001A
:1002D000A10120082000DA00210021082000DB0015
:1002E00021006508A200A30122082000DC002100F3
:1002F00023082000DD0021006408A400A5012408D3
:100300002000DE00210025082000DF008731E227E1
:10031000803180309231922280312000A001003063
:100320009331DE238031B7302000A00093316F235A
:1003300080319331B7238031200020082104031D30
:10034000A229A3299929E929B7302000D7007C30B8
:10035000D8009830D90021006608A000A10120082B
:100360002000DA00210021082000DB0021006508C0
:10037000A200A30122082000DC00210023082000A5
:10038000DD0021006408A400A50124082000DE008F
:10039000210025082000DF008731E22780318030EE
:1003A0009231922280312000A00100309331DE236F
:1003B0008031B7302000A00093316F23803193311A
:1003C000B7238031200020082104031DE829E929F2
:1003D000DF29A630D700BE30D8009830D900873149
:1003E000E2278031C0309231922280312000A0017A
:1003F00008309331DE238031A6302000A0009331F5
:100400006F2380319331B7238031200020082104ED
:10041000031D0B2A0C2A022A80309231922280314D
:1004200004302000A00000309331DE2380319D2E67
:100430006103031D1C2A1D2A632AB7302000D70040
:100440006530D8009830D90021006608A000A101CD
:1004500020082000DA00210021082000DB00210014
:100460006508A200A30122082000DC002100230867
:100470002000DD0021006408A400A501240820005C
:10048000DE00210025082000DF008731E2278031CF
:1004900080309231922280312000A00100309331CF
:1004A000DE238031B7302000A00093316F238031EC
:1004B0009331B7238031200020082104031D612AD5
:1004C000622A582AA82AB7302000D7007C30D800EA
:1004D0009830D90021006608A000A1012008200062
:1004E000DA00210021082000DB0021006508A200BD
:1004F000A30122082000DC00210023082000DD00E9
:1005000021006408A400A50124082000DE002100C9
:1005100025082000DF008731E227803180309231CA
:10052000922280312000A00100309331DE238031FF
:10053000B7302000A00093316F2380319331B7236F
:100540008031200020082104031DA72AA82A9E2A02
:10055000A630D700BE30D8009830D9008731E227C6
:100560008031C0309231922280312000A0010830C9
:100570009331DE238031A6302000A00093316F2319
:1005800080319331B7238031200020082104031DDE
:10059000CA2ACB2AC12A8030923192228031073078
:1005A0002000A00000309331DE2380319D2E6103B6
:1005B000031DDB2ADC2A0B2BB7302000D700653067
:1005C000D8009830D9000C30DA000030DB00003061
:1005D000DC00DD000030DE00DF008731E227803103
:1005E00080309231922280312000A001003093317E
:1005F000DE238031B7302000A00093316F2380319B
:100600009331B7238031200020082104031D092BDA
:100610000A2B002B392BB7302000D7007C30D800B4
:100620009830D9000C30DA000030DB000030DC00FC
:10063000DD000030DE00DF008731E22780318030CE
:100640009231922280312000A00100309331DE23CC
:100650008031B7302000A00093316F238031933177
:10066000B7238031200020082104031D382B392BAB
:100670002F2BA630D700BE30D8009830D900873154
:10068000E2278031C0309231922280312000A001D7
:1006900008309331DE238031A6302000A000933152
:1006A0006F2380319331B72380312000200821044B
:1006B000031D5B2B5C2B522B8030923192228031B8
:1006C0000B302000A00000309331DE2380319D2EBE
:1006D0006103031D6C2B6D2BB32BB7302000D700AB
:1006E0006530D8009830D90021006608A000A1012B
:1006F00020082000DA00210021082000DB00210072
:100700006508A200A30122082000DC0021002308C4
:100710002000DD0021006408A400A50124082000B9
:10072000DE00210025082000DF008731E22780312C
:1007300080309231922280312000A001003093312C
:10074000DE238031B7302000A00093316F23803149
:100750009331B7238031200020082104031DB12BE1
:10076000B22BA82BF82BB7302000D7007C30D80054
:100770009830D90021006608A000A10120082000BF
:10078000DA00210021082000DB0021006508A2001A
:10079000A30122082000DC00210023082000DD0046
:1007A00021006408A400A50124082000DE00210027
:1007B00025082000DF008731E22780318030923128
:1007C000922280312000A00100309331DE2380315D
:1007D000B7302000A00093316F2380319331B723CD
:1007E0008031200020082104031DF72BF82BEE2B6D
:1007F000A630D7009330D8009830D90021006B087C
:10080000A000A10120082000DA002100210820001A
:10081000DB008731E2278031C03092319222803173
:100820002000A00108309331DE238031A630200063
:10083000A00093316F2380319331B72380312000A2
:1008400020082104031D252C262C1C2C80309231DD
:10085000922280310C302000A00000309331DE2342
:1008600080319D2E6103031D362C372C7D2CB73033
:100870002000D7006530D8009830D90021006608E4
:10088000A000A10120082000DA002100210820009A
:10089000DB0021006508A200A30122082000DC0083
:1008A000210023082000DD0021006408A400A50128
:1008B00024082000DE00210025082000DF00873109
:1008C000E227803180309231922280312000A001D5
:1008D00000309331DE238031B7302000A000933107
:1008E0006F2380319331B723803120002008210409
:1008F000031D7B2C7C2C722CC22CB7302000D7001F
:100900007C30D8009830D90021006608A000A101F1
:1009100020082000DA00210021082000DB0021004F
:100920006508A200A30122082000DC0021002308A2
:100930002000DD0021006408A400A5012408200097
:10094000DE00210025082000DF008731E22780310A
:1009500080309231922280312000A001003093310A
:10096000DE238031B7302000A00093316F23803127
:100970009331B7238031200020082104031DC12CAE
:10098000C22CB82CA630D7004E30D8009830D900F1
:1009900021006A08A000A10120082000DA0021003F
:1009A00021082000DB008731E2278031C0309231FE
:1009B000922280312000A00108309331DE23803163
:1009C000A6302000A00093316F2380319331B723EC
:1009D0008031200020082104031DEF2CF02CE62C90
:1009E00080309231922280310D302000A000003002
:1009F0009331DE2380319D2E6103031D002D012DD7
:100A0000472DB7302000D7006530D8009830D90086
:100A100021006608A000A10120082000DA002100C2
:100A200021082000DB0021006508A200A3012208A4
:100A30002000DC00210023082000DD0021006408E4
:100A4000A400A50124082000DE00210025082000C4
:100A5000DF008731E227803180309231922280316D
:100A60002000A00100309331DE238031B730200018
:100A7000A00093316F2380319331B7238031200060
:100A800020082104031D452D462D3C2D8C2DB7300B
:100A90002000D7007C30D8009830D90021006608AB
:100AA000A000A10120082000DA0021002108200078
:100AB000DB0021006508A200A30122082000DC0061
:100AC000210023082000DD0021006408A400A50106
:100AD00024082000DE00210025082000DF008731E7
:100AE000E227803180309231922280312000A001B3
:100AF00000309331DE238031B7302000A0009331E5
:100B00006F2380319331B7238031200020082104E6
:100B1000031D8B2D8C2D822DA630D700C130D8001F
:100B20009830D9008731E2278031C030923192224B
:100B300080312000A00108309331DE238031A630BF
:100B40002000A00093316F2380319331B72380318F
:100B5000200020082104031DAE2DAF2DA52D8030CF
:100B60009231922280310E302000A000003093316B
:100B7000DE2380319D2E6103031DBF2DC02D062E67
:100B8000B7302000D7006530D8009830D900210058
:100B90006608A000A10120082000DA002100210839
:100BA0002000DB0021006508A200A301220820002C
:100BB000DC00210023082000DD0021006408A400DF
:100BC000A50124082000DE00210025082000DF0008
:100BD0008731E227803180309231922280312000AB
:100BE000A00100309331DE238031B7302000A00017
:100BF00093316F2380319331B72380312000200857
:100C00002104031D042E052EFB2D4B2EB730200092
:100C1000D7007C30D8009830D90021006608A000A9
:100C2000A10120082000DA00210021082000DB00BB
:100C300021006508A200A30122082000DC00210099
:100C400023082000DD0021006408A400A501240879
:100C50002000DE00210025082000DF008731E22788
:100C6000803180309231922280312000A00100300A
:100C70009331DE238031B7302000A00093316F2301
:100C800080319331B7238031200020082104031DD7
:100C90004A2E4B2E412EA630D700C130D8009830B6
:100CA000D9008731E2278031C030923192228031E1
:100CB0002000A00108309331DE238031A6302000CF
:100CC000A00093316F2380319331B723803120000E
:100CD00020082104031D6D2E6E2E642E803092316B
:100CE000922280310F302000A00000309331DE23AB
:100CF00080319D2E7A082100A000A1012108003A30
:100D00000319832E9D2E2008003A03199A28013AD0
:100D100003195929033A0319182A013A0319D72A42
:100D2000073A0319682B013A0319322C033A0319C5
:100D3000FC2C013A0319BB2D9D2E0800F80023005E
:100D40000F0C890C0139F40011081F397404031DBC
:100D5000AA2EAB2E9F2E11141118AF2EB02EAC2E32
:100D60000F0C890C0139F40011081F397404031D9C
:100D7000BA2EBB2EB02E4E309531FA258631230087
:100D80000F0C890C0139F40011081F397404031D7C
:100D9000CA2ECB2EBF2E7808FA389531FA25863127
:100DA00023000F0C890C0139F40011081F39740459
:100DB000031DDB2EDC2ED02E7808FE389531FA2567
:100DC000863123000F0C890C0139F40011081F39FA
:100DD0007404031DEC2EED2EE12E0000230091146F
:100DE0009118F32EF42EF02E0F0C890C0139F4001B
:100DF00011081F397404031DFE2EFF2EF42E4F30F0
:100E00009531FA25863123000F0C890C0139F40045
:100E100011081F397404031D0E2F0F2F032F943157
:100E20000A248631F60023000F0C890C0139F400E6
:100E300011081F397404031D1E2F1F2F132F911625
:100E40001116111A242F252F212F91149118292FB3
:100E50002A2F262F0F0C890C0139F40011081F3995
:100E60007404031D342F352F2A2F4E309531FA2567
:100E7000863123000F0C890C0139F40011081F3949
:100E80007404031D442F452F392F7808FA38953103
:100E9000FA25863123000F0C890C0139F400110862
:100EA0001F397404031D552F562F4A2F7808FE381A
:100EB0009531FA25863123000F0C890C0139F40095
:100EC00011081F397404031D662F672F5B2F000064
:100ED0002300911491186D2F6E2F6A2F0F0C890C1F
:100EE0000139F40011081F397404031D782F792F7C
:100EF0006E2F4F309531FA25863123000F0C890C67
:100F00000139F40011081F397404031D882F892F3B
:100F10007D2F94310A248631F70023000F0C890CB1
:100F20000139F40011081F397404031D982F992FFB
:100F30008D2F91161116111A9E2F9F2F9B2F9114F2
:100F40009118A32FA42FA02F0F0C890C0139F400A6
:100F500011081F397404031DAE2FAF2FA42F4E307C
:100F60009531FA25863123000F0C890C0139F400E4
:100F700011081F397404031DBE2FBF2FB32F78082B
:100F8000FA389531FA25863123000F0C890C013986
:100F9000F40011081F397404031DCF2FD02FC42F64
:100FA00011151119D42FD52FD12F7708F400043043
:100FB000F436890BD82F0F307405F5007608F03918
:100FC000750408005A302000E0005708E100E201F3
:100FD000E301E401EA01EB016130CF000030D00011
:100FE0005908D2005808D1006030D30094317A24D7
:100FF00087312000570863078600870181010800B8
:101000002100D401D5010800210052085304031D1A
:101010000A280B28132853082000AB00210052088F
:101020002000AA001C285208FF3E2000AA00FF3022
:101030002100533D2000AB006C1C1F2820282E28C7
:101040002708F600F7017608F2007708F300260873
:10105000F5002508F4009631962688312000AB1B58
:101060003228332834283628AA01AB01A801A90167
:101070004A282030F2000030F30020002608F50056
:101080002508F40096319626883101302000A80703
:101090000030A93D2908803AF6002B08803A7602F4
:1010A000031D54282A082802031C572858283928C9
:1010B00020006C185C285D286B282708F600F701D3
:1010C0007608F2007708F3002608F5002508F400FA
:1010D000963196268831080001302000B6002100A4
:1010E00053082000B800210052082000B7001F302C
:1010F000B9000030BA002200DE01AB28FF30B9078A
:10110000FF30BA3D39083F3E8600013087000A3083
:10111000F2000030F3003508F5003408F400953192
:10112000052588317208303E81002000B601FF306D
:10113000B707FF30B83D0A30F2000030F300350841
:10114000F5003408F4009531372588317308200004
:10115000B5007208B400200039083A040319B12818
:10116000B228CF2834083504031DB728B8287E28B4
:101170003608031DBC28BD287E283808803AF900AF
:1011800080307902031DC62801303702031CC928AC
:10119000CA28CF282000EC18CE28CF287E2820008F
:1011A0003308AC003208AB0039083F3EAD003808C8
:1011B000AF003708AE009531B425883108004130C2
:1011C000F900EE30890BE228F90BE22800323030CA
:1011D0009531712588313430953171258831A630AB
:1011E000890BF02800323030953171258831073075
:1011F000F9007D30890BFA28F90BFA28000030300D
:101200009531712588313430953171258831A6307A
:10121000890B082900323030953171258831213011
:10122000890B102900003030953171258831343018
:10123000953171258831A630890B1C290032303058
:101240009531712588312130890B24290000203007
:101250009531712588312430953171258831A6303A
:10126000890B3029003220309531712588310730C3
:10127000F9007D30890B3A29F90B3A290000F40175
:1012800028308A317A228831F40106308A317A2274
:101290008831F4010F308A317A228831F40101302B
:1012A0008A317A2288310330F9009830890B562927
:1012B000F90B562908007B03031D5F296029D929F2
:1012C000B7291830F2000030F30021006608013E13
:1012D000F400003003180130F500963145268931BD
:1012E00072082100E600D9293C30F2000030F300FA
:1012F00021006508013EF400003003180130F500BC
:1013000096314526893172082100E500D9293C3003
:10131000F2000030F30021006408013EF4000030C8
:1013200003180130F50096314526893172082100F5
:10133000E400D9293330F2000030F30021006B08BB
:10134000013EF400003003180130F50096314526C7
:10135000893172082100EB00D92921006A08013E79
:101360000339EA00D92901302100E106D9297A0898
:10137000F800F9017908003A0319BF29D92978083A
:10138000003A03196129013A03197429033A031930
:101390008729013A0319D929073A03199A29013AE9
:1013A0000319AD29033A0319B329013A0319D929BD
:1013B000D929080000302300A7000030A600003023
:1013C000A5000030A40094312424893193310523F1
:1013D00089318831DF20893193315D23893193311F
:1013E000932389319331122389315030F200123026
:1013F000F3009231742289319631EF2689315C30C5
:10140000F2001230F30092317A228931923168224F
:1014100089317208730403190E2A0F2A152A923192
:101420003D22893194315D24893192316E22893196
:101430007208730403191D2A1E2A242A88310020E9
:10144000893189315B2189319231E1228931003A38
:1014500003192B2A2C2A062A9431402489319231EF
:10146000CD22893175082300A3007408A2007308F7
:10147000A1007208A000240820022100CA00230055
:101480002508213B2100CB0023002608223B210018
:10149000CC0023002708233B2100CD004D08031D6D
:1014A0005C2A4C08031D5C2A4B08031D5C2A05308E
:1014B0004A0203185C2A5D2A662A230027082604AC
:1014C00025042404031D652A662A722A23002308A2
:1014D000A7002208A6002108A5002008A400923138
:1014E000992289319331A523893163000000062AAE
:1014F00080314C28F6007608F039F7007608F500C0
:101500000430F535890B812A7508F039F80023007D
:101510000F0C890C0139F50011081F397504031DE2
:10152000922A932A872A11141118972A982A942A02
:101530000F0C890C0139F50011081F397504031DC2
:10154000A22AA32A982A4E309531FA258A312300FF
:101550000F0C890C0139F50011081F397504031DA2
:10156000B22AB32AA72A7708740408389531FA25D5
:101570008A3123000F0C890C0139F50011081F393D
:101580007504031DC42AC52AB92A770874040C38C7
:101590009531FA258A3123000F0C890C0139F500A9
:1015A00011081F397504031DD62AD72ACB2A00003B
:1015B0007708740408389531FA258A3123000F0C16
:1015C000890C0139F50011081F397504031DE92A3A
:1015D000EA2ADE2A7808740408389531FA258A3117
:1015E00023000F0C890C0139F50011081F3975040F
:1015F000031DFB2AFC2AF02A780874040C38953164
:10160000FA258A3123000F0C890C0139F5001108E5
:101610001F397504031D0D2B0E2B022B00007808BB
:10162000740408389531FA258A3123000F0C890C8F
:101630000139F50011081F397504031D202B212BDA
:10164000152B11151119252B262B222B1030890B48
:10165000272B0032080001302000B900B51B312BC8
:10166000332B0130342B0030BC0021005308200004
:10167000BB00210052082000BA003C080319412B8E
:10168000422B562BFF30BA07FF30BB3D3C08031DF1
:101690004A2B4B2B502B2B30B7000030B800542B6B
:1016A0002D30B7000030B8003708BC001F30BD0037
:1016B0000030BE002200DE01912BFF30BD07FF305D
:1016C000BE3D3D083F3E8600013087000A30F200F3
:1016D0000030F3003508F5003408F4009631452653
:1016E0008B317308F9007208F800933181238B3134
:1016F0007808303E81002000B901FF30BA07FF3082
:10170000BB3D0A30F2000030F3003508F500340824
:10171000F400973149278B3173082000B500720817
:10172000B40020003E08803AB60080303602031D27
:101730009B2B01303D02031C9E2B9F2BBD2B2000B9
:1017400034083504031DA52BA62B5D2B3908031D7A
:10175000AA2BAB2B5D2B3B08803AB60080303602BB
:10176000031DB42B01303A02031CB72BB82BBD2B41
:101770002000EC18BC2BBD2B5D2B20003C0803196E
:10178000C22BC32BCE2BFF30BD07FF30BE3D3D0823
:101790003F3E8600013087003C0881003308AC00E2
:1017A0003208AB003D083F3EAD003B08AF003A08B1
:1017B000AE009531B4258B31080023000F0C890C45
:1017C0000139F40011081F397404031DE82BE92BBB
:1017D000DD2B11141118ED2BEE2BEA2B0F0C890CBD
:1017E0000139F40011081F397404031DF82BF92B7B
:1017F000EE2B9A309531FA258B3123000F0C890C92
:101800000139F40011081F397404031D082C092C38
:10181000FD2B01309531FA258B3123000F0C890CFB
:101820000139F40011081F397404031D182C192CF8
:101830000D2C911491181D2C1E2C1A2C0F0C890C98
:101840000139F40011081F397404031D282C292CB8
:101850001E2C9B309531FA258B3123000F0C890CFF
:101860000139F40011081F397404031D382C392C78
:101870002D2C94310A248B31F50023000F0C890C98
:101880000139F40011081F397404031D482C492C38
:101890003D2C91161116111A4E2C4F2C4B2C0F0C5F
:1018A000890C0139F40011081F397404031D592CE7
:1018B0005A2C4F2C111511195E2C5F2C5B2C751FA7
:1018C000622C632CDD2B0F0C890C0139F4001108FC
:1018D0001F397404031D6D2C6E2C632C1114111808
:1018E000722C732C6F2C0F0C890C0139F400110829
:1018F0001F397404031D7D2C7E2C732C9A30953176
:10190000FA258B3123000F0C890C0139F4001108E2
:101910001F397404031D8D2C8E2C822C00309531C0
:10192000FA258B3123000F0C890C0139F4001108C2
:101930001F397404031D9D2C9E2C922C9114911818
:10194000A22CA32C9F2C0F0C890C0139F400110838
:101950001F397404031DAD2CAE2CA32C9B30953184
:10196000FA258B3123000F0C890C0139F400110882
:101970001F397404031DBD2CBE2CB22C94310A24D3
:101980008B31F50023000F0C890C0139F40011088C
:101990001F397404031DCD2CCE2CC22C91161116A8
:1019A000111AD32CD42CD02C0F0C890C0139F40033
:1019B00011081F397404031DDE2CDF2CD42C1115E3
:1019C0001119E32CE42CE02C7508080020004108D4
:1019D00086008701403FC300413FC40043088400A4
:1019E000440885001200253A031DF72CF82CF92D28
:1019F0004108860087010130810741310318810ABF
:101A00002100D201D30100302000EC00FF30220081
:101A1000BD00FF30BE002000C8012B2DEC14410892
:101A2000860087010130810741310318810A2B2D7F
:101A30000130C8002B2D410886008701403FC300BC
:101A4000413FC40043088400440885000008303A40
:101A500003190E2D182D480803192F2D302D1B2D7D
:101A60004108F8004208F9009731A4278C31790821
:101A70002100D3007808D200D31F3F2D402D482DE0
:101A800020006C142100D209D309D20A0319D30A09
:101A90002000410886008701403FC300413FC40049
:101AA00043088400440885001200633A031D592D41
:101AB0005A2D762D4108860087010130810741317A
:101AC0000318810A42088600870101088400850105
:101AD000023081070008C7004008A6003F08A500A3
:101AE0004708A700883104208C31132E4108860056
:101AF0008701403FCD00413FCE004D0884004E0895
:101B000085001200643A0319862D872D912D4D080A
:101B100084004E0885001200693A031D902D912D16
:101B2000B62D420886008701010884008501023035
:101B30008107003FC900013FCA004D08013EC300B4
:101B400000304E3DC4004108860087014308C03F75
:101B50004408C13F4008B3003F08B2004A08B5003E
:101B60004908B4008B312B238C31132E4D0884008F
:101B70004E0885001200753A031DBF2DC02DEF2DB4
:101B80004208860087010108840085010230810730
:101B9000003FC900013FCA004D08013EC3000030AC
:101BA0004E3DC4004108860087014308C03F4408F9
:101BB000C13FE62D4008B3003F08B2004A08B50017
:101BC0004908B40088316C208C31132E4D088400F4
:101BD0004E0885000008753A0319DA2DEF2D200014
:101BE0004108860087010130810741310318810ACD
:101BF000132E410886008701403FC300413FC400C7
:101C000043088400440885000008C500C601450853
:101C1000F2004608F3004008F5003F08F400963152
:101C200096268C31EF2D0800B7302000D700C13048
:101C3000D8009830D9008731E2278E31A6302000B5
:101C4000D700C130D8009830D9008731E2278E31D3
:101C5000C030923192228E312000A00108309331A1
:101C6000DE238E31A6302000A00093316F238E3109
:101C70009331B7238E31200020082104031D412E0B
:101C8000422E382E210060085E07A000A101A10DA0
:101C90005F082007C8000030213DC9006103031D13
:101CA000522E532E802F48084904031D582E592EBA
:101CB0009F2EB7302000D7002030D8009830D900B0
:101CC00021006608A000A10120082000DA00210000
:101CD00021082000DB0021006508A200A3012208E2
:101CE0002000DC00210023082000DD002100640822
:101CF000A400A50124082000DE0021002508200002
:101D0000DF008731E2278E318030923192228E318E
:101D10002000A00100309331DE238E31B730200047
:101D2000A00093316F238E319331B7238E31200081
:101D300020082104031D9D2E9E2E942EC52F600386
:101D4000031DA32EA42EE92EB7302000D700D230D9
:101D5000D8009830D90021006608A000A101200811
:101D60002000DA00210021082000DB0021006508A6
:101D7000A200A30122082000DC002100230820008B
:101D8000DD0021006408A400A50124082000DE0075
:101D9000210025082000DF008731E2278E318030C6
:101DA000923192228E312000A00100309331DE2347
:101DB0008E31B7302000A00093316F238E319331E4
:101DC000B7238E31200020082104031DE82EE92EC0
:101DD000DF2E21005F03031DEE2EEF2E342FB730D0
:101DE0002000D700F830D8009830D90021006608CC
:101DF000A000A10120082000DA0021002108200015
:101E0000DB0021006508A200A30122082000DC00FD
:101E1000210023082000DD0021006408A400A501A2
:101E200024082000DE00210025082000DF00873183
:101E3000E2278E318030923192228E312000A00133
:101E400000309331DE238E31B7302000A000933173
:101E50006F238E319331B7238E3120002008210467
:101E6000031D332F342F2A2F21005E03031D392F2A
:101E70003A2FC52FB7302000D700E530D800983072
:101E8000D90021006608A000A10120082000DA0086
:101E9000210021082000DB0021006508A200A30129
:101EA00022082000DC00210023082000DD002100A2
:101EB0006408A400A50124082000DE0021002508F4
:101EC0002000DF008731E2278E318030923192226C
:101ED0008E312000A00100309331DE238E31B730E7
:101EE0002000A00093316F238E319331B7238E31C0
:101EF000200020082104031D7E2F7F2F752FC52F62
:101F0000B7302000D7003730D8009830D9002100F2
:101F10006608A000A10120082000DA0021002108A5
:101F20002000DB0021006508A200A3012208200098
:101F3000DC00210023082000DD0021006408A4004B
:101F4000A50124082000DE00210025082000DF0074
:101F50008731E2278E318030923192228E312000FB
:101F6000A00100309331DE238E31B7302000A00075
:101F700093316F238E319331B7238E3120002008A7
:101F80002104031DC42FC52FBB2FA6302000D7006E
:101F9000A930D8009830D90021006308A000A10121
:101FA00020082000DA00210021082000DB002100A9
:101FB0006208A200A30122082000DC0021002308FF
:101FC0002000DD008731E2278E31C030923192222D
:101FD0008E312000A00108309331DE238E31A630EF
:101FE0002000A00093316F238E319331B7238E31BF
:101FF000200020082104031DFE2FFF2FF52F0800CD
:10246C00080008000800080024000E1408002100D1
:10247C00D601D70108002100DE01DF01E0010800D0
:10248C00310096019030950008000134013402347B
:10249C0014340C3401302100D6000030D700080071
:1024AC002E000C109231F8229231080001302100DC
:1024BC00D4000030D500080073082200E600720832
:1024CC00E500080021005708F3005608F200080048
:1024DC0021005508F3005408F2000800730822008C
:1024EC00E0007208DF00080073082200E8007208A0
:1024FC00E700080073082200E2007208E1000800FF
:10250C0073082200E4007208E300080064008001F4
:10251C000131890B8D2A0034F900F40179088A31D4
:10252C007A22923108008B31DD2392312100E300B5
:10253C004130E20008002F009601970198019901A3
:10254C009A019B010800F900F401F40A79088A3118
:10255C007A22923108003E00D51EB52AB62AB92A35
:10256C0093311F2392310800623031008D008F01AE
:10257C009101023093009201080001302100CE0736
:10258C000030CF3DD03DD13D0130E70008002100A7
:10259C005108F5005008F4004F08F3004E08F20003
:1025AC000800803023008F00083090009101033028
:1025BC008D0090120800210067080319E62AE72A0B
:1025CC00EA2AE7010130EB2A0030080080302900AC
:1025DC00980099019A019B019D019C01970196011C
:1025EC009501080022005F0860040319FE2AFF2AE7
:1025FC00042B60088A005F080A00933108008030C1
:10260C0023008F0008309000910103308D0090164C
:10261C0020009315131608002E000C100B143630E6
:10262C00F2001230F3009231742293312E00161402
:10263C0008002200670868040319252B262B2B2B76
:10264C0068088A0067080A0093313E00D51208001A
:10265C002E008C122200610862040319362B372BD2
:10266C003C2B62088A0061080A00933108002E0096
:10267C0011102200630864040319452B462B4B2BC5
:10268C0064088A0063080A009331080024000E1DB8
:10269C00502B512B582B0E1071088D0070088C008C
:1026AC000E145C2B71088D0070088C0008003E0025
:1026BC00B813200091139613C330F2001230F300BC
:1026CC0092316222933192313A2293318B170B174C
:1026DC000800742B21089231A92293312000200884
:1026EC0086008701A00A0108A1002108031D7F2B89
:1026FC00802B702B0800F91B842B852B862B922B9F
:10270C0078092000A0007909A100A00A0319A10AE8
:10271C002008F8002108F90008002100E101E4017B
:10272C00E501E6011430EB000230EA00FB01FA018E
:10273C008831DF2093318E311426933108007B08C9
:10274C00031DA92BAA2BAE2B8E3114269331B62B3D
:10275C007B03031DB22BB32BB62B80317520933129
:10276C000800003086319E26933180390319BF2B27
:10277C00C02BC62B01302000A0000030A100C92BBB
:10278C002000A001A1010800B73020009F00FF30FD
:10279C009D009C012E008C1296163830F2001230DF
:1027AC00F300923180229331803020009E0008008B
:1027BC002000A10021080319E42BE52BE82BC030E5
:1027CC00A200EA2B8030A20020080F392204A200BC
:1027DC00220892319222933108002E001010210011
:1027EC005908F1005808F00093314C239331220022
:1027FC00650866040319032C042C092C66088A004E
:10280C0065080A00943108000F3023001005F2000F
:10281C00083072060319132C142C1D2C0F301005C4
:10282C00F2000B307206031D1C2C1D2C1E2C911556
:10283C000F1C212C222C1E2C0C0808009231A122DA
:10284C0094319231D72294319631EF2694319231D2
:10285C00BA2294319231EC22943193311223943177
:10286C009431DB2494319331CA2394319231462232
:10287C009431080001302100E4073C306402031C51
:10288C00482C492C5C2CE4010130E5073C306502F6
:10289C00031C512C522C5C2CE5010130E60718303E
:1028AC006602031C5A2C5B2C5C2CE601080092314E
:1028BC00412294317B08031D642C652C692C01305A
:1028CC00FB00FA01792C7B03031D6D2C6E2C792CEB
:1028DC007A08013EFA0008307A02031C762C772C19
:1028EC00792CFB01FA01080020005208D60051088F
:1028FC00D5008B2C5008C0004F08BF005530C100CC
:10290C005308C2008C31E624943120005508840011
:10291C00560885001200031D942C952C802CCF0199
:10292C00D0010800F601F701721C9D2C9E2CA22CE4
:10293C007408F6077508F73D0130F435F50D890B71
:10294C00A32C0130F336F20C890BA82C72087304FB
:10295C00031DB12CB22C9A2C7708F3007608F200E8
:10296C0008002000A901AA01CE2C2808F600F701C6
:10297C007608F2007708F3002708F5002608F40023
:10298C0096319626943101302000A9070030AA3DDB
:10299C00250829078600013087000108A8002808AF
:1029AC00031DD92CDA2CBB2C080024008F019001BC
:1029BC000430910086308D00E8308C002E00101011
:1029CC0024000D082100D90024000C082100D80097
:1029DC002E001A140230F2000030F3009231622201
:1029EC0094312E0011101B143930F2001230F30008
:1029FC00923186229431073024008E000800720830
:102A0C00730403190A2D0B2D322D0130F600152DF0
:102A1C000130F235F30D890B0F2D0130F607F31F42
:102A2C00182D192D0E2D73087502031D1F2D7208FC
:102A3C007402031C222D232D272D7208F402730817
:102A4C00F53B0130F336F20C890B282D0130F602E0
:102A5C00031D312D322D192D7508F3007408F20069
:102A6C000800F701F8017208730403193E2D3F2D7D
:102A7C006C2D0130F600492D0130F235F30D890B28
:102A8C00432D0130F607F31F4C2D4D2D422D0130F7
:102A9C00F735F80D890B4E2D73087502031D582D53
:102AAC0072087402031C5B2D5C2D612D7208F402FC
:102ABC007308F53B77140130F336F20C890B622D59
:102ACC000130F602031D6B2D6C2D4D2D7808F30093
:102ADC007708F2000800F50023000F0C890C01396F
:102AEC00F40011081F397404031D7D2D7E2D722DE9
:102AFC0011141118822D832D7F2D0F0C890C013987
:102B0C00F40011081F397404031D8D2D8E2D832D97
:102B1C004E309531FA25953123000F0C890C013973
:102B2C00F40011081F397404031D9D2D9E2D922D48
:102B3C0075089531FA25953123000F0C890C013954
:102B4C00F40011081F397404031DAD2DAE2DA22DF8
:102B5C0011151119B22DB32DAF2D080020006C1CCE
:102B6C00B82DB92DC22D2D08A5002C08A7002B08B7
:102B7C00A6009431B72495312000AF1FC62DC72D68
:102B8C00C92DAE01AF01B001B101DD2D2030F20035
:102B9C000030F30020002C08F5002B08F4009631CF
:102BAC009626953101302000B0070030B13D310838
:102BBC00803AF8002F08803A7802031DE72D2E0882
:102BCC003002031CEA2DEB2DCC2D20006C18EF2DC0
:102BDC00F02DF92D2D08A5002C08A7002B08A60018
:102BEC009431B72495310800F300730823008C004E
:102BFC00901F012E022E032E442E0F301005F200D2
:102C0C000830720603190B2E0C2E222E0F301005D5
:102C1C00F2000B3072060319142E152E222E1016EC
:102C2C002E000F1C1A2E1B2E162E23000F191F2ED2
:102C3C00202E442E0F08442E0F301005F2000830C1
:102C4C00720603192A2E2B2E342E0F301005F2008B
:102C5C000B307206031D332E342E442E0F18372ED4
:102C6C00382E342E0F0C890C0139F20011081F3943
:102C7C007204031D422E432E382E11080800F70152
:102C8C00F51F492E4A2E512EF409F509F40A0319A1
:102C9C00F50A0130F700F31F542E552E5A2EF20967
:102CAC00F309F20A0319F30A7208730403195F2E6D
:102CBC00602E872E0130F6006A2E0130F235F30DAE
:102CCC00890B642E0130F607F31F6D2E6E2E632ECA
:102CDC0073087502031D742E72087402031C772E80
:102CEC00782E7C2E7208F4027308F53B0130F33613
:102CFC00F20C890B7D2E0130F602031D862E872ED9
:102D0C006E2E770803198B2E8C2E912EF409F50953
:102D1C00F40A0319F50A7508F3007408F2000800A8
:102D2C007408750403199B2E9C2EA22E740875042E
:102D3C00031DA12EA22EA72E7208803103209631DE
:102D4C00EE2E740886008701493116000104031920
:102D5C00B02EB12ED02E7408860087014931403F29
:102D6C002000A000413FA100740886008701423179
:102D7C00403FA200413FA3002308803AA400210851
:102D8C00803A2402031DCC2E200822020318CF2ED9
:102D9C00D02EEE2E74088600870142317408840010
:102DAC0075088500003F2000A000013FA100403FB6
:102DBC0020078400413F213D850072088000740883
:102DCC008600870142310130810741310318810AA5
:102DDC00080020009A01990196019701980107308B
:102DEC009500FF309100FF309200FF309300FF30D0
:102DFC009400FF303E00D900C430CE00EF30C30049
:102E0C000730E400FF30B800DA01E501C401B90174
:102E1C001830CF00E601BA01C501D001DB01FF304B
:102E2C00BB00FF30C600FF30D100FF30DC000730A4
:102E3C00E700FF30BC00FF30C700FF30D200FF308E
:102E4C00DD000730E800D512D416D3123730F2006B
:102E5C001230F30092317A2296312E0016160C3075
:102E6C003D0090001330C50014303E00A30010301C
:102E7C003D00A90015303E00A40011303D00AA0011
:102E8C001430C6000800F701F31F4D2F4E2F552F9D
:102E9C00F209F309F20A0319F30A0130F700F51FDE
:102EAC00582F592F602FF409F509F40A0319F50A64
:102EBC000130F706F801F901720873040319672F42
:102ECC00682F952F0130F600722F0130F235F30D7B
:102EDC00890B6C2F0130F607F31F752F762F6B2F94
:102EEC000130F835F90D890B772F73087502031D26
:102EFC00812F72087402031C842F852F8A2F72086D
:102F0C00F4027308F53B78140130F336F20C890B9C
:102F1C008B2F0130F602031D942F952F762F7708F7
:102F2C000319992F9A2F9F2FF809F909F80A0319F9
:102F3C00F90A7908F3007808F20008002000A401CF
:102F4C00A501780886008701403FA000413FA10001
:102F5C00200884002108850012002A3A031DB72F8F
:102F6C00B82FE72F7808860087010130810741319F
:102F7C000318810A790886008701010884008501FD
:102F8C0002308107003FA400013FA500FB2F25085C
:102F9C00F3002408F2000A30F4000030F5009431FC
:102FAC0098249731200023087207A4000030733D49
:102FBC00A50078088600870101308107413103188C
:102FCC00810A780886008701403FA000413FA1009C
:102FDC0020088400210885000008D03EA3000A3098
:102FEC002302031CFA2FFB2FCD2F2508F9002408F0
:102FFC00F80008000034003400340034003400348D
:10300C000034003400340034003400340034003414
:10301C000034003400340034003400340034003404
:10302C0000340034003400340034003400340034F4
:10303C000034003425343034323475343A34253489
:10304C003034323475343A342534303432347534C7
:10305C0020342034203420342034203441342034A3
:10306C00003425343034323475343A342534303429
:10307C00323475343A3425343034323475342034A7
:10308C002034203420342034203461342034003473
:10309C002034203420342034203420342034203484
:1030AC002034203420342034203420342034203474
:1030BC004C342534303432346434203400342534E8
:1030CC003034323475343A34253430343234753447
:1030DC003A342534303432347534203420342034AE
:1030EC00433454344C344134523400342534303469
:1030FC00323475343A3425343034323475343A340D
:10310C002534303432347534203420342034433474
:10311C0054344C3461345234003425343034323429
:10312C0064342034203420342034203420342034AF
:10313C0020342034203420342034203420342034E3
:10314C002034203400342534303432346434203488
:10315C0043342034203420342034203420342034A0
:10316C00203420344C34203425346334203400345F
:10317C0020342034203420342034203420342034A3
:10318C002034203420342034203420342034203493
:10319C002034203420340034253430343234753427
:1031AC003A3425343034323475343A3425343034AE
:1031BC0032347534203443344134203400342534D3
:1031CC003034323475343A34253430343234753446
:1031DC003A34253430343234753420344C34413460
:1031EC002034003425343034323475343A342534B8
:1031FC003034323475343A34253430343234753416
:0A320C0020345434413420340034DF
:020000040001F9
:08000000FF3FFF3FFF3FFF3F00
:0A000E00EC3FFF3F9F3FFF3FFF3F25
:00000001FF
