:1000000080314C28080008007E14803100308600C2
:10001000003087002E00161C0E280F2817280C1CF5
:100020001228132817289F31582780314A28961EF6
:100030001A281B2823288C1E1E281F2823289031AD
:100040002F2080314A28161E262827282F280C1EEC
:100050002A282B282F289F31AD2780314A280B1FB3
:10006000322833284A281A1C362837283F28101CE3
:100070003A283B283F288731E72780314A281B1C34
:10008000422843284A28111C462847284A289031EC
:100090003E2080317E10090080314E284D30840092
:1000A0009F30850021001200E8001200E9001200D4
:1000B000EA001200EB001200EC00FA01FB01200044
:1000C000EC01CE308400003085001A3090310020E1
:1000D000803120308400013085003F309031002095
:1000E00080317E1020009631AF2EB7302000D7002F
:1000F0006530D8009830D90021006608A000A10121
:1001000020082000DA00210021082000DB00210067
:100110006508A200A30122082000DC0021002308BA
:100120002000DD0021006408A400A50124082000AF
:10013000DE00210025082000DF0091315A218031A6
:1001400080309F318E2780312000A001003088311F
:1001500000208031B7302000A00090317020803125
:100160009031A6208031200020082104031DB928E9
:10017000BA28B028A630D700BC30D8009830D900B3
:1001800091315A218031C0309F318E27803120003B
:10019000A0010830883100208031A6302000A00066
:1001A0009031702080319031A620803120002008CD
:1001B0002104031DDC28DD28D32880309F318E27C1
:1001C000803104302000A0000030883100208031D0
:1001D000E42F6103031DED28EE283429B7302000F9
:1001E000D7004E30D8009830D90021006608A00012
:1001F000A10120082000DA00210021082000DB00F6
:1002000021006508A200A30122082000DC002100D3
:1002100023082000DD0021006408A400A5012408B3
:100220002000DE00210025082000DF0091315A2146
:10023000803180309F318E2780312000A001003036
:10024000883100208031B7302000A000903170202C
:1002500080319031A6208031200020082104031D28
:100260003229332929297929B7302000D700653070
:10027000D8009830D90021006608A000A10120080C
:100280002000DA00210021082000DB0021006508A1
:10029000A200A30122082000DC0021002308200086
:1002A000DD0021006408A400A50124082000DE0070
:1002B000210025082000DF0091315A218031803053
:1002C0009F318E2780312000A0010030883100202E
:1002D0008031B7302000A000903170208031903103
:1002E000A6208031200020082104031D78297929C7
:1002F0006F29A630D700BC30D8009830D900913192
:100300005A218031C0309F318E2780312000A001DA
:100310000830883100208031A6302000A0009031C4
:10032000702080319031A6208031200020082104E7
:10033000031D9B299C29922980309F318E27803173
:1003400007302000A0000030883100208031E42FE9
:100350006103031DAC29AD29F329B7302000D70074
:100360004E30D8009830D90021006C08A000A101BF
:1003700020082000DA00210021082000DB002100F5
:100380005C08A200A30122082000DC002100230851
:100390002000DD0021005D08A400A5012408200044
:1003A000DE00210025082000DF0091315A21803134
:1003B00080309F318E2780312000A00100308831AD
:1003C00000208031B7302000A000903170208031B3
:1003D0009031A6208031200020082104031DF1293E
:1003E000F229E829382AB7302000D7006530D80034
:1003F0009830D90021006C08A000A101200820003D
:10040000DA00210021082000DB0021005C08A200A6
:10041000A30122082000DC00210023082000DD00C9
:1004200021005D08A400A50124082000DE002100B1
:1004300025082000DF0091315A21803180309F3122
:100440008E2780312000A0010030883100208031CB
:10045000B7302000A0009031702080319031A6206C
:100460008031200020082104031D372A382A2E2A33
:10047000A630D700BC30D8009830D90091315A212D
:100480008031C0309F318E2780312000A00108309C
:10049000883100208031A6302000A00090317020EB
:1004A00080319031A6208031200020082104031DD6
:1004B0005A2A5B2A512A80309F318E2780310B3097
:1004C0002000A0000030883100208031E42F61033B
:1004D000031D6B2A6C2AB22AB7302000D7004E3099
:1004E000D8009830D90021006C08A000A101200894
:1004F0002000DA00210021082000DB0021005C0838
:10050000A200A30122082000DC0021002308200013
:10051000DD0021005D08A400A50124082000DE0004
:10052000210025082000DF0091315A2180318030E0
:100530009F318E2780312000A001003088310020BB
:100540008031B7302000A000903170208031903190
:10055000A6208031200020082104031DB02AB12AE2
:10056000A72AF72AB7302000D7006530D800983086
:10057000D90021006C08A000A10120082000DA00A9
:10058000210021082000DB0021005C08A200A3015B
:1005900022082000DC00210023082000DD002100CB
:1005A0005D08A400A50124082000DE002100250824
:1005B0002000DF0091315A21803180309F318E2719
:1005C00080312000A0010030883100208031B73018
:1005D0002000A0009031702080319031A620803121
:1005E000200020082104031DF62AF72AED2AA63050
:1005F000D700BC30D8009830D90091315A218031D1
:10060000C0309F318E2780312000A0010830883112
:1006100000208031A6302000A00090317020803171
:100620009031A6208031200020082104031D192BC1
:100630001A2B102B80309F318E2780312000A00193
:10064000A00A0030883100208031E42F6103031DAF
:100650002A2B2B2B712BB7302000D7004E30D8001F
:100660009830D90021006C08A000A10120082000CA
:10067000DA00210021082000DB0021005C08A20034
:10068000A30122082000DC00210023082000DD0057
:1006900021005D08A400A50124082000DE0021003F
:1006A00025082000DF0091315A21803180309F31B0
:1006B0008E2780312000A001003088310020803159
:1006C000B7302000A0009031702080319031A620FA
:1006D0008031200020082104031D6F2B702B662B16
:1006E000B62BB7302000D7006530D8009830D9003D
:1006F00021006C08A000A10120082000DA002100E0
:1007000021082000DB0021005C08A200A3012208D0
:100710002000DC00210023082000DD0021005D080E
:10072000A400A50124082000DE00210025082000E7
:10073000DF0091315A21803180309F318E27803106
:100740002000A0010030883100208031B730200027
:10075000A0009031702080319031A620803120009F
:1007600020082104031DB52BB62BAC2BA630D700D7
:10077000BC30D8009830D90091315A218031C03036
:100780009F318E2780312000A00108308831002061
:100790008031A6302000A00090317020803190314F
:1007A000A6208031200020082104031DD82BD92B3E
:1007B000CF2B80309F318E27803104302000A00065
:1007C0000030883100208031E42F6103031DE92BC4
:1007D000EA2B302CB7302000D7004E30D8009830AC
:1007E000D90021006C08A000A10120082000DA0037
:1007F000210021082000DB0021005C08A200A301E9
:1008000022082000DC00210023082000DD00210058
:100810005D08A400A50124082000DE0021002508B1
:100820002000DF0091315A21803180309F318E27A6
:1008300080312000A0010030883100208031B730A5
:100840002000A0009031702080319031A6208031AE
:10085000200020082104031D2E2C2F2C252C752C64
:10086000B7302000D7006530D8009830D90021007B
:100870006C08A000A10120082000DA002100210856
:100880002000DB0021005C08A200A3012208200058
:10089000DC00210023082000DD0021005D08A40009
:1008A000A50124082000DE00210025082000DF002B
:1008B00091315A21803180309F318E278031200044
:1008C000A0010030883100208031B7302000A00026
:1008D0009031702080319031A62080312000200896
:1008E0002104031D742C752C6B2CA630D700BC3052
:1008F000D8009830D90091315A218031C0309F31D1
:100900008E2780312000A0010830883100208031FE
:10091000A6302000A0009031702080319031A620B8
:100920008031200020082104031D972C982C8E2C48
:1009300080309F318E27803107302000A0000030AA
:10094000883100208031E42F6103031DA82CA92CDD
:10095000EF2CB7302000D7004E30D8009830D900A7
:1009600021006608A000A10120082000DA00210073
:1009700021082000DB0021006508A200A301220855
:100980002000DC00210023082000DD002100640895
:10099000A400A50124082000DE0021002508200075
:1009A000DF0091315A21803180309F318E27803194
:1009B0002000A0010030883100208031B7302000B5
:1009C000A0009031702080319031A620803120002D
:1009D00020082104031DED2CEE2CE42C342DB7301F
:1009E0002000D7006530D8009830D9002100660873
:1009F000A000A10120082000DA0021002108200029
:100A0000DB0021006508A200A30122082000DC0011
:100A1000210023082000DD0021006408A400A501B6
:100A200024082000DE00210025082000DF0091318D
:100A30005A21803180309F318E2780312000A001E3
:100A40000030883100208031B7302000A000903184
:100A5000702080319031A6208031200020082104B0
:100A6000031D332D342D2A2DA630D7007C30D8001D
:100A70009830D90021006B08A000A10120082000B7
:100A8000DA00210021082000DB0091315A21803159
:100A9000C0309F318E2780312000A001083088317E
:100AA00000208031A6302000A000903170208031DD
:100AB0009031A6208031200020082104031D612DE3
:100AC000622D582D80309F318E2780310C302000D0
:100AD000A0000030883100208031E42F6103031D25
:100AE000722D732DB92DB7302000D7004E30D800AD
:100AF0009830D90021006608A000A101200820003C
:100B0000DA00210021082000DB0021006508A20096
:100B1000A30122082000DC00210023082000DD00C2
:100B200021006408A400A50124082000DE002100A3
:100B300025082000DF0091315A21803180309F311B
:100B40008E2780312000A0010030883100208031C4
:100B5000B7302000A0009031702080319031A62065
:100B60008031200020082104031DB72DB82DAE2DA3
:100B7000FE2DB7302000D7006530D8009830D9005E
:100B800021006608A000A10120082000DA00210051
:100B900021082000DB0021006508A200A301220833
:100BA0002000DC00210023082000DD002100640873
:100BB000A400A50124082000DE0021002508200053
:100BC000DF0091315A21803180309F318E27803172
:100BD0002000A0010030883100208031B730200093
:100BE000A0009031702080319031A620803120000B
:100BF00020082104031DFD2DFE2DF42DA630D70065
:100C0000A730D8009830D90021006A08A000A101BF
:100C100020082000DA00210021082000DB009131AB
:100C20005A218031C0309F318E2780312000A001B1
:100C30000830883100208031A6302000A00090319B
:100C4000702080319031A6208031200020082104BE
:100C5000031D2B2E2C2E222E80309F318E2780318B
:100C60000D302000A0000030883100208031E42FBA
:100C70006103031D3C2E3D2E832EB7302000D7008C
:100C80004E30D8009830D90021006608A000A1019C
:100C900020082000DA00210021082000DB002100CC
:100CA0006508A200A30122082000DC00210023081F
:100CB0002000DD0021006408A400A5012408200014
:100CC000DE00210025082000DF0091315A2180310B
:100CD00080309F318E2780312000A0010030883184
:100CE00000208031B7302000A0009031702080318A
:100CF0009031A6208031200020082104031D812E80
:100D0000822E782EC82EB7302000D7006530D8004C
:100D10009830D90021006608A000A1012008200019
:100D2000DA00210021082000DB0021006508A20074
:100D3000A30122082000DC00210023082000DD00A0
:100D400021006408A400A50124082000DE00210081
:100D500025082000DF0091315A21803180309F31F9
:100D60008E2780312000A0010030883100208031A2
:100D7000B7302000A0009031702080319031A62043
:100D80008031200020082104031DC72EC82EBE2E4E
:100D9000A630D700BF30D8009830D90091315A2101
:100DA0008031C0309F318E2780312000A001083073
:100DB000883100208031A6302000A00090317020C2
:100DC00080319031A6208031200020082104031DAD
:100DD000EA2EEB2EE12E80309F318E2780310E30AF
:100DE0002000A0000030883100208031E42F610312
:100DF000031DFB2EFC2E422FB7302000D7004E30B3
:100E0000D8009830D90021006608A000A101200870
:100E10002000DA00210021082000DB002100650805
:100E2000A200A30122082000DC00210023082000EA
:100E3000DD0021006408A400A50124082000DE00D4
:100E4000210025082000DF0091315A2180318030B7
:100E50009F318E2780312000A00100308831002092
:100E60008031B7302000A000903170208031903167
:100E7000A6208031200020082104031D402F412F8F
:100E8000372F872FB7302000D7006530D800983033
:100E9000D90021006608A000A10120082000DA0086
:100EA000210021082000DB0021006508A200A30129
:100EB00022082000DC00210023082000DD002100A2
:100EC0006408A400A50124082000DE0021002508F4
:100ED0002000DF0091315A21803180309F318E27F0
:100EE00080312000A0010030883100208031B730EF
:100EF0002000A0009031702080319031A6208031F8
:100F0000200020082104031D862F872F7D2FA63067
:100F1000D700BF30D8009830D90091315A218031A4
:100F2000C0309F318E2780312000A00108308831E9
:100F300000208031A6302000A00090317020803148
:100F40009031A6208031200020082104031DA92F04
:100F5000AA2FA02F80309F318E2780310F302000A4
:100F6000A0000030883100208031E42F2100670884
:100F7000A000A1012108003A0319BF2FE42F200887
:100F8000003A8A310319952A8031013A0319E52F75
:100F9000033A0319E928013A0319A829073A031962
:100FA000A42C013A03196E2D033A0319382E013A85
:100FB0000319F72E0E3A0319672A033A0319262B51
:100FC000013A0319E52BE42F08008B31552B2E0035
:100FD000101021005908F1005808F00090314D2000
:100FE00087312200650866040319F72FF82FFD2FBB
:100FF00066088A0065080A008731080008000800B2
:101000002000A10021080319062807280A28C0305B
:10101000A2000C288030A20020080F392204A20070
:1010200022089F318E278831080001302000B90046
:10103000B51B1B281D2801301E280030BC002100D4
:1010400053082000BB00210052082000BA003C08D1
:1010500003192B282C284028FF30BA07FF30BB3D4E
:101060003C08031D342835283A282B30B7000030BF
:10107000B8003E282D30B7000030B8003708BC005B
:101080001F30BD000030BE002200DE017B28FF3093
:10109000BD07FF30BE3D3D083F3E86000130870062
:1010A0000A30F2000030F3003508F5003408F4008F
:1010B00093319D2388317308F9007208F80090314C
:1010C000822088317808303E81002000B901FF304D
:1010D000BA07FF30BB3D0A30F2000030F30035089C
:1010E000F5003408F4009431A124883173082000FD
:1010F000B5007208B40020003E08803AB600803087
:101100003602031D852801303D02031C88288928EA
:10111000A728200034083504031D8F28902847286D
:101120003908031D9428952847283B08803AB600C3
:1011300080303602031D9E2801303A02031CA1288C
:10114000A228A7282000EC18A628A72847282000B6
:101150003C080319AC28AD28B828FF30BD07FF3084
:10116000BE3D3D083F3E8600013087003C088100BF
:101170003308AC003208AB003D083F3EAD003B08F1
:10118000AF003A08AE009231C422883108007A03D9
:10119000031DCB28CC28822956291830F2000030B4
:1011A000F3006608013EF400003003180130F5003A
:1011B00093319D23883172082100E60089293C3053
:1011C000F2000030F3006508013EF400003003181F
:1011D0000130F50093319D23883172082100E5002C
:1011E00089293C30F2000030F3006408013EF4002D
:1011F000003003180130F50093319D2388317208C7
:101200002100E40089290930E70089291830F2001B
:101210000030F3006C08013EF40000300318013088
:10122000F50093319D23883172082100EC00892953
:101230003C30F2000030F3005C08013EF400003066
:1012400003180130F50093319D2388317208210085
:10125000DC0089293C30F2000030F3005D08013EDB
:10126000F400003003180130F50093319D238831DC
:1012700072082100DD0089293330F2000030F300CC
:101280006B08013EF400003003180130F500933183
:101290009D23883172082100EB0089296A08013EEC
:1012A0000339EA0089290130E1068929210067080C
:1012B000F800F9017908003A03195F2989297808AB
:1012C000003A0319CD28013A0319DF28033A03191C
:1012D000F128013A03190329073A03193C29013A75
:1012E00003194E29033A03195329013A031989298D
:1012F0000E3A03190629033A03191829013A03196A
:101300002A2989297A08031D8629872989290230F3
:10131000FA00080023000F0C890C0139F4001108B1
:101320001F397404031D952996298A29111411184F
:101330009A299B2997290F0C890C0139F40011086F
:101340001F397404031DA529A6299B299A309331BE
:101350005223893123000F0C890C0139F400110844
:101360001F397404031DB529B629AA290130933108
:101370005223893123000F0C890C0139F400110824
:101380001F397404031DC529C629BA29911491185F
:10139000CA29CB29C7290F0C890C0139F40011087F
:1013A0001F397404031DD529D629CB299B309331CD
:1013B0005223893123000F0C890C0139F4001108E4
:1013C0001F397404031DE529E629DA299031CD205F
:1013D0008931F50023000F0C890C0139F400110844
:1013E0001F397404031DF529F629EA2991161116EF
:1013F000111AFB29FC29F8290F0C890C0139F4007A
:1014000011081F397404031D062A072AFC29111527
:1014100011190B2A0C2A082A751F0F2A102A8A294B
:101420000F0C890C0139F40011081F397404031DD5
:101430001A2A1B2A102A111411181F2A202A1C2AC2
:101440000F0C890C0139F40011081F397404031DB5
:101450002A2A2B2A202A9A309331522389312300B9
:101460000F0C890C0139F40011081F397404031D95
:101470003A2A3B2A2F2A0030933152238931230004
:101480000F0C890C0139F40011081F397404031D75
:101490004A2A4B2A3F2A911491184F2A502A4C2A43
:1014A0000F0C890C0139F40011081F397404031D55
:1014B0005A2A5B2A502A9B309331522389312300C8
:1014C0000F0C890C0139F40011081F397404031D35
:1014D0006A2A6B2A5F2A9031CD208931F5002300DA
:1014E0000F0C890C0139F40011081F397404031D15
:1014F0007A2A7B2A6F2A91161116111A802A812ABC
:101500007D2A0F0C890C0139F40011081F3974046D
:10151000031D8B2A8C2A812A11151119902A912AD0
:101520008D2A750808008731B62F6103031D992A9B
:101530009A2AE02AB7302000D7004E30D8009830E1
:10154000D90021006608A000A10120082000DA00CF
:10155000210021082000DB0021006508A200A30172
:1015600022082000DC00210023082000DD002100EB
:101570006408A400A50124082000DE00210025083D
:101580002000DF0091315A218A3180309F318E272F
:101590008A312000A0010030883100208A31B73024
:1015A0002000A000903170208A319031A6208A312D
:1015B000200020082104031DDE2ADF2AD52A252B3E
:1015C000B7302000D7006530D8009830D90021000E
:1015D0006608A000A10120082000DA0021002108EF
:1015E0002000DB0021006508A200A30122082000E2
:1015F000DC00210023082000DD0021006408A40095
:10160000A50124082000DE00210025082000DF00BD
:1016100091315A218A3180309F318E278A312000C2
:10162000A0010030883100208A31B7302000A000AE
:10163000903170208A319031A6208A312000200814
:101640002104031D242B252B1B2BA630D700BF30D4
:10165000D8009830D90091315A218A31C0309F3159
:101660008E278A312000A0010830883100208A317D
:10167000A6302000A000903170208A319031A62041
:101680008A31200020082104031D472B482B3E2BC4
:1016900080309F318E278A312000A001A00A0030BF
:1016A000883100208A318731E42F6103031D592BD3
:1016B0005B2B80317528B7302000D7004E30D80022
:1016C0009830D90021006608A000A1012008200060
:1016D000DA00210021082000DB0021006508A200BB
:1016E000A30122082000DC00210023082000DD00E7
:1016F00021006408A400A50124082000DE002100C8
:1017000025082000DF0091315A218A3180309F3135
:101710008E278A312000A0010030883100208A31D4
:10172000B7302000A000903170208A319031A6207F
:101730008A31200020082104031D9F2BA02B962B0B
:101740008031BA282000410886008701403FC3004D
:10175000413FC40043088400440885001200253A34
:10176000031DB32BB42BB52C410886008701013033
:10177000810741310318810A2100D201D3010030D1
:101780002000EC00FF302200BD00FF30BE00200032
:10179000C801E72BEC14410886008701013081075E
:1017A00041310318810AE72B0130C800E72B4108BB
:1017B00086008701403FC300413FC40043088400C6
:1017C000440885000008303A0319CA2BD42B480876
:1017D0000319EB2BEC2BD72B4108F8004208F9003A
:1017E0009431FC248B3179082100D3007808D20091
:1017F000D31FFB2BFC2B042C20006C142100D209DE
:10180000D309D20A0319D30A2000410886008701B0
:10181000403FC300413FC4004308840044088500A2
:101820001200633A031D152C162C322C4108860039
:1018300087010130810741310318810A420886007F
:101840008701010884008501023081070008C70074
:101850004008A6003F08A5004708A7009531582575
:101860008B31CF2C410886008701403FCD00413F9E
:10187000CE004D0884004E0885001200643A03191A
:10188000422C432C4D2C4D0884004E08850012003C
:10189000693A031D4C2C4D2C722C4208860087019E
:1018A00001088400850102308107003FC900013F23
:1018B000CA004D08013EC30000304E3DC40041083F
:1018C000860087014308C03F4408C13F4008B30079
:1018D0003F08B2004A08B5004908B4008831152015
:1018E0008B31CF2C4D0884004E0885001200753ACC
:1018F000031D7B2C7C2CAB2C420886008701010841
:101900008400850102308107003FC900013FCA0001
:101910004D08013EC30000304E3DC4004108860022
:1019200087014308C03F4408C13FA22C4008B300D0
:101930003F08B2004A08B5004908B4009531C025F7
:101940008B31CF2C4D0884004E0885000008753A75
:101950000319962CAB2C200041088600870101302A
:10196000810741310318810ACF2C41088600870185
:10197000403FC300413FC400430884004408850041
:101980000008C500C6014508F2004608F3004008FB
:10199000F5003F08F4009331EE238B31AB2C0800A7
:1019A000F80023000F0C890C0139F40011081F39CD
:1019B0007404031DDC2CDD2CD12C11141118E12C26
:1019C000E22CDE2C0F0C890C0139F40011081F39B0
:1019D0007404031DEC2CED2CE22C4E309331522379
:1019E0008C3123000F0C890C0139F40011081F39C8
:1019F0007404031DFC2CFD2CF12C7808FA3893316B
:101A000052238C3123000F0C890C0139F40011088A
:101A10001F397404031D0D2D0E2D022D7808FE387C
:101A2000933152238C3123000F0C890C0139F400BF
:101A300011081F397404031D1E2D1F2D132D0000C6
:101A4000230091149118252D262D222D0F0C890C81
:101A50000139F40011081F397404031D302D312D94
:101A6000262D4F30933152238C3123000F0C890CDB
:101A70000139F40011081F397404031D402D412D54
:101A8000352D9031CD208C31F60023000F0C890CC0
:101A90000139F40011081F397404031D502D512D14
:101AA000452D91161116111A562D572D532D91149F
:101AB00091185B2D5C2D582D0F0C890C0139F40009
:101AC00011081F397404031D662D672D5C2D4E30DF
:101AD000933152238C3123000F0C890C0139F4000F
:101AE00011081F397404031D762D772D6B2D78088E
:101AF000FA38933152238C3123000F0C890C0139B1
:101B0000F40011081F397404031D872D882D7C2DC6
:101B10007808FE38933152238C3123000F0C890C46
:101B20000139F40011081F397404031D982D992DF3
:101B30008D2D00002300911491189F2DA02D9C2D18
:101B40000F0C890C0139F40011081F397404031DAE
:101B5000AA2DAB2DA02D4F30933152238C31230071
:101B60000F0C890C0139F40011081F397404031D8E
:101B7000BA2DBB2DAF2D9031CD208C31F700230035
:101B80000F0C890C0139F40011081F397404031D6E
:101B9000CA2DCB2DBF2D91161116111AD02DD12D76
:101BA000CD2D91149118D52DD62DD22D0F0C890C39
:101BB0000139F40011081F397404031DE02DE12DD3
:101BC000D62D4E30933152238C3123000F0C890CCB
:101BD0000139F40011081F397404031DF02DF12D93
:101BE000E52D7808FA38933152238C3123000F0CFD
:101BF000890C0139F40011081F397404031D012EEA
:101C0000022EF62D11151119062E072E032E770818
:101C1000F4000430F436890B0A2E0F307405F500F9
:101C20007608F03975040800B7302000D700BF30BF
:101C3000D8009830D90091315A218E31A630200039
:101C4000D700BF30D8009830D90091315A218E3159
:101C5000C0309F318E278E312000A001083088319E
:101C600000208E31A6302000A000903170208E31EF
:101C70009031A6208E31200020082104031D412E22
:101C8000422E382E210060085E07A000A101A10DA0
:101C90005F082007C8000030213DC9006103031D13
:101CA000522E532E802F48084904031D582E592EBA
:101CB0009F2EB7302000D7002030D8009830D900B0
:101CC00021006608A000A10120082000DA00210000
:101CD00021082000DB0021006508A200A3012208E2
:101CE0002000DC00210023082000DD002100640822
:101CF000A400A50124082000DE0021002508200002
:101D0000DF0091315A218E3180309F318E278E3104
:101D10002000A0010030883100208E31B730200033
:101D2000A000903170208E319031A6208E3120009D
:101D300020082104031D9D2E9E2E942EC52F600386
:101D4000031DA32EA42EE92EB7302000D700D030DB
:101D5000D8009830D90021006608A000A101200811
:101D60002000DA00210021082000DB0021006508A6
:101D7000A200A30122082000DC002100230820008B
:101D8000DD0021006408A400A50124082000DE0075
:101D9000210025082000DF0091315A218E3180304A
:101DA0009F318E278E312000A00100308831002025
:101DB0008E31B7302000A000903170208E319031EC
:101DC000A6208E31200020082104031DE82EE92ED4
:101DD000DF2E21005F03031DEE2EEF2E342FB730D0
:101DE0002000D700F630D8009830D90021006608CE
:101DF000A000A10120082000DA0021002108200015
:101E0000DB0021006508A200A30122082000DC00FD
:101E1000210023082000DD0021006408A400A501A2
:101E200024082000DE00210025082000DF00913179
:101E30005A218E3180309F318E278E312000A001B3
:101E40000030883100208E31B7302000A000903162
:101E500070208E319031A6208E3120002008210480
:101E6000031D332F342F2A2F21005E03031D392F2A
:101E70003A2FC52FB7302000D700E330D800983074
:101E8000D90021006608A000A10120082000DA0086
:101E9000210021082000DB0021006508A200A30129
:101EA00022082000DC00210023082000DD002100A2
:101EB0006408A400A50124082000DE0021002508F4
:101EC0002000DF0091315A218E3180309F318E27E2
:101ED0008E312000A0010030883100208E31B730D3
:101EE0002000A000903170208E319031A6208E31DC
:101EF000200020082104031D7E2F7F2F752FC52F62
:101F0000B7302000D7003730D8009830D9002100F2
:101F10006608A000A10120082000DA0021002108A5
:101F20002000DB0021006508A200A3012208200098
:101F3000DC00210023082000DD0021006408A4004B
:101F4000A50124082000DE00210025082000DF0074
:101F500091315A218E3180309F318E278E31200071
:101F6000A0010030883100208E31B7302000A00061
:101F7000903170208E319031A6208E3120002008C3
:101F80002104031DC42FC52FBB2FA6302000D7006E
:101F90009230D8009830D90021006308A000A10138
:101FA00020082000DA00210021082000DB002100A9
:101FB0006208A200A30122082000DC0021002308FF
:101FC0002000DD0091315A218E31C0309F318E27A3
:101FD0008E312000A0010830883100208E31A630DB
:101FE0002000A000903170208E319031A6208E31DB
:101FF000200020082104031DFE2FFF2FF52F0800CD
:10200000640080010131890B0128003480302300F5
:102010008F0008309000910103308D009016200051
:102020009315131608002E000C100B143630F20016
:102030001F30F3009F31762790312E0016140800D0
:102040002200670868040319262827282C28680816
:102050008A0067080A0090313E00D51208002E0061
:102060008C122200610862040319372838283D28A1
:1020700062088A0061080A00903108002E001110E1
:102080002200630864040319462847284C28640882
:102090008A0063080A009031080024000E1D5128B0
:1020A000522859280E1071088D0070088C000E14EB
:1020B0005D2871088D0070088C0008003E00B81380
:1020C000200091139613BF30F2001F30F3009F31B0
:1020D000642790319F31382790318B170B170800F8
:1020E000752821089F31A5279031200020088600FF
:1020F0008701A00A0108A1002108031D802881286A
:1021000071280800F91B85288628872893287809D4
:102110002000A0007909A100A00A0319A10A200843
:10212000F8002108F90008002100E101E401E501BF
:10213000E6011430EB000230EA00FA01E7019631C3
:10214000332690318E3114269031080000308C31C6
:10215000D024903180390319AE28AF28B52801303A
:102160002000A0000030A100B8282000A001A1019B
:102170000800B73020009F00FF309D009C012E001A
:102180008C1296160230F2000030F3009F31822745
:102190009031803020009E0008000F302300100591
:1021A000F200083072060319D628D728E0280F302D
:1021B0001005F2000B307206031DDF28E028E1282D
:1021C00091150F1CE428E528E1280C0808009F3130
:1021D0009D2790319F31DD279031943147249031F4
:1021E0009F31B62790319F31E727903190311320EE
:1021F00090319131BB2190319031B92090319F3194
:102200004827903108007A08031D072908290C295E
:102210008E31142691311E297A03031D10291129AC
:1022200015298A31932291311E2902307A06031D25
:102230001A291B291E2993310A23913108000130E4
:102240002100E4073C306402031C272928293B298C
:10225000E4010130E5073C306502031C30293129D7
:102260003B29E5010130E60718306602031C3929D5
:102270003A293B29E601080020005208D6005108FF
:10228000D5004D295008C0004F08BF005530C1008F
:102290005308C2008B31A2239131200055088400DD
:1022A000560885001200031D562957294229CF01DF
:1022B000D00108005A302000E0005708E100E20198
:1022C000E301E401EA01EB016130CF000030D0000E
:1022D0005908D2005808D1006030D30091313C2118
:1022E00091312000570863078600870181010800AB
:1022F000F601F701721C7D297E2982297408F607F0
:102300007508F73D0130F435F50D890B832901304F
:10231000F336F20C890B882972087304031D912986
:1023200092297A297708F3007608F2000800200045
:10233000A901AA01AE292808F600F7017608F200E3
:102340007708F3002708F5002608F4009331EE2300
:10235000913101302000A9070030AA3D2508290746
:102360008600013087000108A8002808031DB9294C
:10237000BA299B29080024008F01900104309100A4
:1023800086308D00E8308C002E00101024000D08DF
:102390002100D90024000C082100D8002E001A14B6
:1023A000FF30F2000730F3009F31642791312E0097
:1023B00011101B140330F2000030F3009F31882706
:1023C0009131073024008E0008009F31432791315E
:1023D0007A08031DEC29ED29F2290130FA002100C9
:1023E000E701142A7A03031DF629F7290D2A210093
:1023F0006708013EE70008306706031D002A012A2E
:10240000042AFA01E701142A0C306702031C092A86
:102410000A2A142A0430E700142A02307A06031D1F
:10242000122A132A142AFA010800720873040319E5
:102430001A2A1B2A422A0130F600252A0130F235D9
:10244000F30D890B1F2A0130F607F31F282A292ACA
:102450001E2A73087502031D2F2A72087402031CBA
:10246000322A332A372A7208F4027308F53B013006
:10247000F336F20C890B382A0130F602031D412A8B
:10248000422A292A7508F3007408F2000800F701AF
:10249000F8017208730403194E2A4F2A7C2A01306E
:1024A000F600592A0130F235F30D890B532A013019
:1024B000F607F31F5C2A5D2A522A0130F735F80D22
:1024C000890B5E2A73087502031D682A720874025C
:1024D000031C6B2A6C2A712A7208F4027308F53BFC
:1024E00077140130F336F20C890B722A0130F602B0
:1024F000031D7B2A7C2A5D2A7808F3007708F20006
:102500000800F50023000F0C890C0139F4001108B4
:102510001F397404031D8D2A8E2A822A1114111862
:10252000922A932A8F2A0F0C890C0139F400110882
:102530001F397404031D9D2A9E2A932A4E3093311D
:102540005223923123000F0C890C0139F400110839
:102550001F397404031DAD2AAE2AA22A75089331CF
:102560005223923123000F0C890C0139F400110819
:102570001F397404031DBD2ABE2AB22A1115111970
:10258000C22AC32ABF2A080020006C1CC82AC92AF4
:10259000D22A2D08A5002C08A7002B08A6009131EF
:1025A000972192312000AF1FD62AD72AD92AAE010F
:1025B000AF01B001B101ED2A2030F2000030F3008C
:1025C00020002C08F5002B08F4009331EE23923103
:1025D00001302000B0070030B13D3108803AF800EA
:1025E0002F08803A7802031DF72A2E083002031CB8
:1025F000FA2AFB2ADC2A20006C18FF2A002B092B60
:102600002D08A5002C08A7002B08A60091319721C2
:1026100092310800A0302000D7000930D80099304E
:10262000D90091315A21933180309F318E279331D7
:102630002000A0010030883100209331A03020001C
:10264000A0009031702093319031A620933120006A
:1026500020082104031D2D2B2E2B242BB130D70055
:102660001930D8009930D90091315A219331C030B6
:102670009F318E2793312000A0010830883100203F
:102680009331B1302000A00090317020933190310F
:10269000A6209331200020082104031D502B512B2C
:1026A000472B0800F300730823008C00901F592B60
:1026B0005A2B5B2B9C2B0F301005F2000830720652
:1026C0000319632B642B7A2B0F301005F2000B30AB
:1026D000720603196C2B6D2B7A2B10162E000F1C13
:1026E000722B732B6E2B23000F19772B782B9C2BBF
:1026F0000F089C2B0F301005F200083072060319EA
:10270000822B832B8C2B0F301005F2000B307206BE
:10271000031D8B2B8C2B9C2B0F188F2B902B8C2B12
:102720000F0C890C0139F20011081F397204031DC6
:102730009A2B9B2B902B11080800F701F51FA12B5A
:10274000A22BA92BF409F509F40A0319F50A0130A3
:10275000F700F31FAC2BAD2BB22BF209F309F20AF1
:102760000319F30A720873040319B72BB82BDF2B74
:102770000130F600C22B0130F235F30D890BBC2B72
:102780000130F607F31FC52BC62BBB2B7308750250
:10279000031DCC2B72087402031CCF2BD02BD42B1F
:1027A0007208F4027308F53B0130F336F20C890B22
:1027B000D52B0130F602031DDE2BDF2BC62B77084D
:1027C0000319E32BE42BE92BF409F509F40A0319A7
:1027D000F50A7508F3007408F2000800740875041F
:1027E0000319F32BF42BFA2B74087504031DF92B32
:1027F000FA2BFF2B72088731FE279331462C740881
:10280000860087014931160001040319082C092CA0
:10281000282C7408860087014931403F2000A00021
:10282000413FA1007408860087014231403FA20069
:10283000413FA3002308803AA4002108803A2402E3
:10284000031D242C200822020318272C282C462C98
:102850007408860087014231740884007508850079
:10286000003F2000A000013FA100403F200784005E
:10287000413F213D85007208800074088600870171
:1028800042310130810741310318810A08002000DC
:102890009A01990196019701980107309500FF3040
:1028A0009100FF309200FF309300FF309400FF3022
:1028B0003E00D900C430CE00EF30C3000730E40042
:1028C000FF30B800DA01E501C401B9011830CF00CA
:1028D000E601BA01C501D001DB01FF30BB00FF30CA
:1028E000C600FF30D100FF30DC000730E700FF30CA
:1028F000BC00FF30C700FF30D200FF30DD000730E2
:10290000E800D512D416D3123730F2001F30F3008E
:102910009F317C2794312E0016160C303D0090001C
:102920001330C50014303E00A30010303D00A90054
:1029300015303E00A40011303D00AA001430C6003E
:102940000800F701F31FA52CA62CAD2CF209F30902
:10295000F20A0319F30A0130F700F51FB02CB12C6D
:10296000B82CF409F509F40A0319F50A0130F70641
:10297000F801F901720873040319BF2CC02CED2C67
:102980000130F600CA2C0130F235F30D890BC42C4E
:102990000130F607F31FCD2CCE2CC32C0130F835B7
:1029A000F90D890BCF2C73087502031DD92C720801
:1029B0007402031CDC2CDD2CE22C7208F402730878
:1029C000F53B78140130F336F20C890BE32C01301F
:1029D000F602031DEC2CED2CCE2C77080319F12CFC
:1029E000F22CF72CF809F909F80A0319F90A790801
:1029F000F3007808F20008002000A401A50178087F
:102A000086008701403FA000413FA10020088400CC
:102A10002108850012002A3A031D0F2D102D3F2D8D
:102A20007808860087010130810741310318810A47
:102A3000790886008701010884008501023081073A
:102A4000003FA400013FA500532D2508F3002408F2
:102A5000F2000A30F4000030F50091317821943111
:102A6000200023087207A4000030733DA5007808F9
:102A7000860087010130810741310318810A7808F7
:102A800086008701403FA000413FA100200884004C
:102A9000210885000008D03EA3000A302302031C51
:102AA000522D532D252D2508F9002408F800080083
:102AB000210052085304031D5E2D5F2D672D53081E
:102AC0002000AB00210052082000AA00702D5208FF
:102AD000FF3E2000AA00FF302100533D2000AB0044
:102AE0006C1C732D742D822D2708F600F7017608D3
:102AF000F2007708F3002608F5002508F40093316A
:102B0000EE2395312000AB1B862D872D882D8A2D35
:102B1000AA01AB01A801A9019E2D2030F2000030CE
:102B2000F30020002608F5002508F4009331EE2379
:102B3000953101302000A8070030A93D2908803ACE
:102B4000F6002B08803A7602031DA82D2A082802D9
:102B5000031CAB2DAC2D8D2D20006C18B02DB12D8C
:102B6000BF2D2708F600F7017608F2007708F3007A
:102B70002608F5002508F4009331EE23953108006E
:102B800001302000B600210053082000B8002100C9
:102B900052082000B7001F30B9000030BA002200F0
:102BA000DE01FF2DFF30B907FF30BA3D39083F3E47
:102BB0008600013087000A30F2000030F30035084B
:102BC000F5003408F4009231152295317208303E38
:102BD00081002000B601FF30B707FF30B83D0A3052
:102BE000F2000030F3003508F5003408F4009231AB
:102BF0004722953173082000B5007208B400200008
:102C000039083A040319052E062E232E34083504FC
:102C1000031D0B2E0C2ED22D3608031D102E112E47
:102C2000D22D3808803AF90080307902031D1A2E1F
:102C300001303702031C1D2E1E2E232E2000EC18FF
:102C4000222E232ED22D20003308AC003208AB00F8
:102C500039083F3EAD003808AF003708AE0092316A
:102C6000C422953108004130F900EE30890B362E30
:102C7000F90B362E003230309231812296313430C9
:102C8000923181229631A630890B442E00323030A9
:102C90009231812296310730F9007D30890B4E2E1A
:102CA000F90B4E2E000030309231812296313430B3
:102CB000923181229631A630890B5C2E0032303061
:102CC0009231812296312130890B642E0000303000
:102CD0009231812296313430923181229631A63060
:102CE000890B702E003230309231812296312130A2
:102CF000890B782E000020309231812296312430C9
:102D0000923181229631A630890B842E00322030F8
:102D10009231812296310730F9007D30890B8E2E59
:102D2000F90B8E2E0000F401283097314F27963191
:102D3000F401063097314F279631F4010F30973167
:102D40004F279631F401013097314F2796310330E8
:102D5000F9009830890BAA2EF90BAA2E0800003032
:102D60002300A7000030A6000030A5000030A4001A
:102D70009031E720963190310620963196313326F6
:102D8000963190315E209631903194209631903179
:102D9000132096315230F2001F30F3009F31762716
:102DA00096319431472496315E30F2001F30F300A3
:102DB0009F317C2796319F316A27963172087304C0
:102DC0000319E32EE42EEA2E9F313B2796319131F1
:102DD000E52196319F3170279631720873040319EB
:102DE000F22EF32EF92E9F313F2796318831C720DE
:102DF00096319F31C9279631003A0319002F012FD0
:102E0000DB2E91311F2196319F31D32796317508E2
:102E10002300A3007408A2007308A1007208A00098
:102E2000240820022100CA0023002508213B21009C
:102E3000CB0023002608223B2100CC0023002708DA
:102E4000233B2100CD004D08031D312F4C08031DED
:102E5000312F4B08031D312F05304A020318312F43
:102E6000322F3B2F23002708260425042404031DAA
:102E70003A2F3B2F472F23002308A7002208A60044
:102E80002108A5002008A4009F3195279631913193
:102E90000321963163000000DB2E80314C28F600C0
:102EA0007608F039F7007608F5000430F535890B1F
:102EB000562F7508F039F80023000F0C890C0139E2
:102EC000F50011081F397504031D672F682F5C2F4B
:102ED000111411186C2F6D2F692F0F0C890C0139EB
:102EE000F50011081F397504031D772F782F6D2FFA
:102EF0004E3093315223973123000F0C890C013946
:102F0000F50011081F397504031D872F882F7C2FAA
:102F100077087404083893315223973123000F0C3B
:102F2000890C0139F50011081F397504031D992F0B
:102F30009A2F8E2F770874040C38933152239731CF
:102F400023000F0C890C0139F50011081F39750495
:102F5000031DAB2FAC2FA02F000077087404083896
:102F600093315223973123000F0C890C0139F5005E
:102F700011081F397504031DBE2FBF2FB32F78080A
:102F80007404083893315223973123000F0C890CB5
:102F90000139F50011081F397504031DD02FD12FF9
:102FA000C52F780874040C389331522397312300CD
:102FB0000F0C890C0139F50011081F397504031D28
:102FC000E22FE32FD72F00007808740408389331DC
:102FD0005223973123000F0C890C0139F500110899
:102FE0001F397504031DF52FF62FEA2F111511193E
:102FF000FA2FFB2FF72F1030890BFC2F003208001F
:103000000034003400340034003400340034003420
:103010000034003400340034003400340034003410
:103020000034003400340034003400340034003400
:1030300000340034003400340034003400340034F0
:1030400025343034323475343A3425343034323423
:1030500075343A34253430343234753420342034E5
:1030600020342034203420344134203400342534BA
:103070003034323475343A342534303432347534A3
:103080003A3425343034323475342034203420340A
:10309000203420342034613420340034253430345A
:1030A000323475343A3425343034323475343A3469
:1030B00025343034323475342034203420344334D1
:1030C00054344C34413452340034253430343234A6
:1030D00075343A3425343034323475343A34253446
:1030E0003034323475342034203420344334543472
:1030F0004C34613452340034253430343234643446
:1031000020344334203420342034203420342034FC
:10311000203420342034203420342034203420340F
:103120002034003425343034323464342034433491
:1031300020342034203420342034203420342034EF
:1031400020344C342034253463342034003420348B
:1031500020342034203420342034203420342034CF
:1031600020342034203420344C342034253430347E
:10317000313464342034003420342034203420347A
:10318000203420342034203420342034203420349F
:1031900020342034203420342034203420340034AF
:1031A00025343034323475343A34253430343234C2
:1031B00075343A3425343034323475342034433461
:1031C00041342034003425343034323475343A34C8
:1031D00025343034323475343A3425343034323492
:1031E000753420344C3441342034003425343034A8
:1031F000323475343A3425343034323475343A3418
:10320000253430343234753420345434413420344D
:103210000034203420342034453445345034523482
:103220004F344D34203420342034203420342034A2
:1032300000342034203420345234653463346F3405
:1032400072346434733420342034203420342034F5
:02325000003448
:103E6C000800080024000E1408002100D601D70118
:103E7C0008002100D401D50108002100DE01DF017A
:103E8C00E0010800310096019030950008000134E3
:103E9C000134023414340C3401302100D6000030CB
:103EAC00D70008002E000C109F31F3279F3108001B
:103EBC0001302100D4000030D50008007308220026
:103ECC00E6007208E500080021005708F3005608C8
:103EDC00F200080021005508F3005408F200080015
:103EEC0073082200E0007208DF000800730822004B
:103EFC00E8007208E700080073082200E20072086C
:103F0C00E100080073082200E4007208E3000800D6
:103F1C00F900F401790897314F279F310800893156
:103F2C008A219F312100E3004130E20008002F007C
:103F3C0096019701980199019A019B010800F900DB
:103F4C00F401F40A790897314F279F3108003E009D
:103F5C00D51EB12FB22FB52F903120209F310800E4
:103F6C00623031008D008F0191010230930092017B
:103F7C00080001302100CE070030CF3DD03DD13DAF
:103F8C000130FB0008007B080319CD2FCE2FD12F59
:103F9C00FB010130D22F0030080021005108F50040
:103FAC005008F4004F08F3004E08F200080080306F
:103FBC0023008F0008309000910103308D00901287
:103FCC00080080302900980099019A019B019D01FD
:103FDC009C01970196019501080022005F0860047E
:103FEC000319F92FFA2FFF2F60088A005F080A00C7
:043FFC009F310800E9
:020000040001F9
:08000000FF3FFF3FFF3FFF3F00
:0A000E00EC3FFF3F9F3FFF3FFF3F25
:00000001FF
