:1000000080314C28013401347E1480310030860068
:10001000003087002E00161C0E280F2817280C1CF5
:100020001228132817288931042180314A28961E66
:100030001A281B2823288C1E1E281F2823288931B4
:10004000CA2180314A28161E262827282F280C1E50
:100050002A282B282F288931452180314A280B1F37
:10006000322833284A281A1C362837283F28101CE3
:100070003A283B283F288A315D2280314A281B1CC0
:10008000422843284A28111C462847284A288931F3
:10009000D92180317E10090080314E282200803124
:1000A00002208031ED00803103208031EE00FA0122
:1000B000FB012100ED012030840001308500333048
:1000C000893128218031A03084000130850026301C
:1000D0008931282180317E1020008231BF2A200002
:1000E000410886008701403FC300413FC4004308E8
:1000F0008400440885001200253A031D80288128C9
:100100008F2941088600870101308107413103189A
:10011000810A2200C301C4010030FA00FF3023002D
:10012000A000FF30A1002000C801B328FA14410844
:10013000860087010130810741310318810AB32805
:100140000130C800B328410886008701403FC30042
:10015000413FC40043088400440885000008303A49
:1001600003199628A02848080319B728B828A328F7
:100170004108F8004208F900873193278031790857
:100180002200C4007808C300C41FC728C828CE288E
:100190007A14C309C409C30A0319C40A2000410818
:1001A00086008701403FC300413FC40043088400EC
:1001B000440885001200633A031DDF28E028012966
:1001C0004108860087010130810741310318810A07
:1001D00042088600870101088400850102308107FA
:1001E0000008C7004008A6003F08A5004708A70070
:1001F0008E319D26803120002608C0002508BF00D2
:10020000B529410886008701403FCD00413FCE001F
:100210004D0884004E0885001200643A0319112924
:1002200012291C294D0884004E0885001200693AE5
:10023000031D1B291C294629420886008701010845
:100240008400850102308107003FC900013FCA00D8
:100250004D08013EC30000304E3DC40041088600F9
:1002600087014308C03F4408C13F4008B3003F082E
:10027000B2004A08B5004908B40084317F248031B7
:1002800020003308C0003208BF00B5294D088400A3
:100290004E0885001200753A031D4F295029842904
:1002A0004208860087010108840085010230810729
:1002B000003FC900013FCA004D08013EC3000030A5
:1002C0004E3DC4004108860087014308C03F4408F2
:1002D000C13F7B294008B3003F08B2004A08B5007F
:1002E0004908B4008F310C27803120003308C0004A
:1002F0003208BF00B5294D0884004E08850000086B
:10030000753A03196A29842941088600870101305A
:10031000810741310318810ABF01C001B529410895
:1003200086008701403FC300413FC400430884006A
:10033000440885000008C500C6014508F2004608CB
:10034000F3004008F5003F08F4008D318F2580311F
:1003500020004108860087010130810741310318E0
:10036000810A0130BF000030C000080023000F0CDC
:10037000890C0139F40011081F397404031DC129C7
:10038000C229B62911141118C629C729C3290F0C6F
:10039000890C0139F40011081F397404031DD12997
:1003A000D229C7299A308C31A024813123000F0C27
:1003B000890C0139F40011081F397404031DE12967
:1003C000E229D62901308C31A024813123000F0C81
:1003D000890C0139F40011081F397404031DF12937
:1003E000F229E62991149118F629F729F3290F0C1F
:1003F000890C0139F40011081F397404031D012A06
:10040000022AF7299B308C31A024813123000F0C64
:10041000890C0139F40011081F397404031D112AD5
:10042000122A062A8A318C228131F50023000F0C12
:10043000890C0139F40011081F397404031D212AA5
:10044000222A162A91161116111A272A282A242A36
:100450000F0C890C0139F40011081F397404031DB5
:10046000322A332A282A11151119372A382A342A10
:10047000751F3B2A3C2AB6290F0C890C0139F40060
:1004800011081F397404031D462A472A3C2A1114F7
:1004900011184B2A4C2A482A0F0C890C0139F400F8
:1004A00011081F397404031D562A572A4C2A9A3002
:1004B0008C31A024813123000F0C890C0139F40008
:1004C00011081F397404031D662A672A5B2A00304D
:1004D0008C31A024813123000F0C890C0139F400E8
:1004E00011081F397404031D762A772A6B2A911488
:1004F00091187B2A7C2A782A0F0C890C0139F40088
:1005000011081F397404031D862A872A7C2A9B3010
:100510008C31A024813123000F0C890C0139F400A7
:1005200011081F397404031D962A972A8B2A8A31D1
:100530008C228131F50023000F0C890C0139F40065
:1005400011081F397404031DA62AA72A9B2A911695
:100550001116111AAC2AAD2AA92A0F0C890C0139DF
:10056000F40011081F397404031DB72AB82AAD2AF4
:1005700011151119BC2ABD2AB92A750808000030C6
:100580002200EC000030EB000030EA000030E9000F
:100590008A31A62282318931A12182318F3184278B
:1005A00082318931E82182318A310C228231F23064
:1005B000F2000830F3008931102182318931AE21F7
:1005C0008231F630F2000830F30089311621823191
:1005D0008D31E825823189314E21823172037304D5
:1005E000031DF32AF42A092B8831EC2082312000E4
:1005F000160D160D01392100E9000130E906E90C5C
:10060000E90C20001608210069067F3969062000E0
:10061000960089315721823172037304031D112B17
:10062000122B272B8831EF2082312000160D160D5A
:1006300001392100E9000130E906E90CE90C20004C
:100640001608210069067F39690620009600893165
:100650007D218231003A03192E2B2F2BEB2A893171
:100660006921823175082200E8007408E7007308E8
:10067000E6007208E5008B31EB2382312200690825
:1006800065022100E90022006A08663B2100EA00B9
:1006900022006B08673B2100EB0022006C08683BDE
:1006A0002100EC006C08031D602B6B08031D602B00
:1006B0006A08031D602B053069020318602B612B4B
:1006C0006A2B22006C086B046A046904031D692B01
:1006D0006A2B9A2B22006808EC006708EB0066087A
:1006E000EA006508E9008131B62182312200E40088
:1006F000C03089312E21823153302000D700643040
:10070000D8009030D900220064082100E900EA01F5
:1007100069082000DA0021006A082000DB008B3124
:100720001C23823153302000A0000130A1008A3107
:100730003322823163000000EB2A80314C280330E1
:100740007B060319A42BA52BAB2B20302100E10045
:100750000030E200B02B5E302100E1000030E2000A
:100760006108DE0004307B060319B72BB82BBD2BC4
:100770002030E3000030E400C12B5E30E3000030A5
:10078000E4006308DF0005307B060319C82BC92B82
:10079000CE2B2030E5000030E600D22B5E30E500A5
:1007A0000030E6006508E00022004E08031DD92B4A
:1007B000DA2BE02B61302100E7000030E800E52B68
:1007C00041302100E7000030E800BC302000D700B5
:1007D0001130D8000030D9003B30DA009030DB0017
:1007E000220051082100B000B10130082000DC00D7
:1007F000210031082000DD00220050082100B20055
:10080000B30132082000DE00210033082000DF00A1
:1008100022004F082100B400B50134082000E00098
:10082000210035082000E10021005E08B600B70174
:1008300036082000E200210037082000E3002100F4
:100840005F08B800B90138082000E4002100390829
:100850002000E50021006008BA00BB013A08200032
:10086000E60021003B082000E70021006808200086
:10087000E900210067082000E80086318A268331DC
:10088000CD302000D7001130D8000030D9005530CD
:10089000DA009030DB0022004A082100B000B101EC
:1008A00030082000DC00210031082000DD0022009B
:1008B00049082100B200B30132082000DE00210007
:1008C00033082000DF0086318A2683318030893169
:1008D0002E218331BC302000A0000030A1008A31DD
:1008E00033228331C03089312E218331CD30200035
:1008F000A0000030A1008A3133228331080001308A
:100900002000B900B51B852C872C0130882C0030C5
:10091000BC00220044082000BB0022004308200045
:10092000BA003C080319952C962CAA2CFF30BA0764
:10093000FF30BB3D3C08031D9E2C9F2CA42C2B306C
:10094000B7000030B800A82C2D30B7000030B80038
:100950003708BC001F30BD000030BE002300C501B9
:10096000E62CFF302000BD07FF30BE3D3D08A63E0F
:100970008600013087000A30F2000030F3003508AD
:10098000F5003408F4008C31EB2484317308F9004D
:100990007208F8008931FA2184317808303E8100EC
:1009A0002000B901FF30BA07FF30BB3D0A30F2002A
:1009B0000030F3003508F5003408F4008E3142268B
:1009C000843173082000B5007208B40020003E088E
:1009D000803AB60080303602031DF02C01303D0213
:1009E000031CF32CF42C112D200034083504031DB6
:1009F000FA2CFB2CB12C3908031DFF2C002DB12C37
:100A00003B08803AB60080303602031D092D0130C4
:100A10003A02031C0C2D0D2D112DFA18102D112D3D
:100A2000B12C20003C080319162D172D222DFF3064
:100A3000BD07FF30BE3D3D08A63E86000130870061
:100A40003C0881003308AC003208AB003D08A63EEC
:100A5000AD003B08AF003A08AE008D313C25843133
:100A600020002C08B3002B08B2000800F60076081E
:100A7000F039F7007608F5000430F535890B3D2D87
:100A80007508F039F80023000F0C890C0139F500C6
:100A900011081F397504031D4E2D4F2D432D1114C0
:100AA0001118532D542D502D0F0C890C0139F500C0
:100AB00011081F397504031D5E2D5F2D542D4E3016
:100AC0008C31A024853123000F0C890C0139F500ED
:100AD00011081F397504031D6E2D6F2D632D7708C6
:100AE000740408388C31A024853123000F0C890C44
:100AF0000139F50011081F397504031D802D812D62
:100B0000752D770874040C388C31A02485312300AE
:100B10000F0C890C0139F50011081F397504031DEC
:100B2000922D932D872D00007708740408388C319E
:100B3000A024853123000F0C890C0139F500110820
:100B40001F397504031DA52DA62D9A2D7808740450
:100B500008388C31A024853123000F0C890C013911
:100B6000F50011081F397504031DB72DB82DAC2DE4
:100B7000780874040C388C31A024853123000F0CC4
:100B8000890C0139F50011081F397504031DC92DA1
:100B9000CA2DBE2D00007808740408388C31A024BA
:100BA000853123000F0C890C0139F50011081F391C
:100BB0007504031DDC2DDD2DD12D11151119E12D2D
:100BC000E22DDE2D1030890BE32D003208002200CB
:100BD0004E08031DEC2DED2DF32D61302100C700D3
:100BE0000030C800F82D41302100C7000030C80097
:100BF00022004B08031DFD2DFE2D042E2030210068
:100C0000C9000030CA00092E4C302100C900003054
:100C1000CA0022004C08031D0E2E0F2E152E203068
:100C20002100CB000030CC001A2E54302100CB0024
:100C30000030CC0022004D08031D1F2E202E262E32
:100C400020302100CD000030CE002B2E433021007B
:100C5000CD000030CE00B6302000D7001130D800D3
:100C60000030D9002030DA009030DB00220051083B
:100C70002100B000B10130082000DC002100310863
:100C80002000DD00220050082100B200B30132082C
:100C90002000DE00210033082000DF0022004F0882
:100CA0002100B400B50134082000E000210035081F
:100CB0002000E10021004E082000E30021004D0843
:100CC0002000E20021004C082000E50021004B0834
:100CD0002000E40021004A082000E7002100490824
:100CE0002000E600210048082000E9002100470814
:100CF0002000E80086318A268531803089312E2116
:100D00008531B6302000A0000030A1008A313322A6
:100D10008531080080302000590200300319580244
:100D2000031C932E942E9A2E4B302300A2000030E9
:100D3000A300122F5C302100A400200057082100DE
:100D4000A500A60100302000590202300319580204
:100D5000031CAB2EAC2EB82E5808FF3E2100AE006F
:100D6000FF302000593D2100AF00A701A801C12E8E
:100D700001302100AE000030AF000130A70000308C
:100D8000A800A5302000CF000030D0005B08D200C2
:100D90005A08D100A430D3008B318A238631200039
:100DA00050082100A30020004F082100A2002000CD
:100DB000580859040319DD2EDE2E122F2100A31B23
:100DC000E22EE32E122F20005808FF3EEA00FF30EB
:100DD000593DEB0021002308803A2000EC006B080D
:100DE000803A6C02031DF72E6A0821002202031CC0
:100DF000FA2EFB2E062F20005808FF3E2100A000EF
:100E0000FF302000593D2100A1000B2F21002308B5
:100E1000A1002208A000200057082100200786001A
:100E200087018101080021006D03031D182F192F70
:100E3000922F702F1830F2000030F300220051087A
:100E4000013EF400003003180130F5008C31EB2432
:100E5000873172082200D100922F3C30F20000301E
:100E6000F30022005008013EF40000300318013066
:100E7000F5008C31EB24873172082200D000922FCC
:100E80003C30F2000030F30022004F08013EF40035
:100E9000003003180130F5008C31EB2487317208E3
:100EA0002200CF00922F3330F2000030F3002200F6
:100EB0004A08013EF400003003180130F5008C317F
:100EC000EB24873172082200CA00922F22004908C1
:100ED000013E0339C900922F01302200CE06922F25
:100EE0007B08F800F9017908003A0319782F922F4E
:100EF0007808003A03191A2F013A03192D2F033AE3
:100F00000319402F013A0319922F073A0319532F5F
:100F1000013A0319662F033A03196C2F013A03199A
:100F2000922F922F08002000A401A50178088600C6
:100F30008701403FA000413FA10020088400210814
:100F4000850012002A3A031DA62FA72FD62F780856
:100F5000860087010130810741310318810A790831
:100F60008600870101088400850102308107003F67
:100F7000A400013FA500EA2F2508F3002408F20091
:100F80000A30F4000030F5008A31FD22873120005C
:100F900023087207A4000030733DA500780886007E
:100FA00087010130810741310318810A78088600E2
:100FB0008701403FA000413FA10020088400210894
:100FC00085000008D03EA3000A302302031CE92F4D
:100FD000EA2FBC2F2508F9002408F8000800240097
:100FE0000E1DF32FF42FFB2F0E1071088D007008CB
:100FF0008C000E14FF2F71088D0070088C00080003
:1011C60008000800080008000800080024000E14A3
:1011D60008002200C80108002200C70108000130EB
:1011E6002200C800080001302200C70008003100B4
:1011F60096019030950008002200CB01CC01CD016C
:1012060008002E000C1089319421893108007308DA
:101216002300CD007208CC00080073082300C70025
:101226007208C600080073082300CF007208CE00BB
:10123600080073082300C9007208C8000800730874
:101246002300CB007208CA00080064008001013147
:10125600890B29290034F900F401790885313625EE
:10126600893108002F0096019701980199019A018A
:101276009B010800F900F401F40A79088531362546
:10128600893108003E00D51E49294A294D29893150
:10129600BB218931080022004808F400F5017408D2
:1012A600F2007508F300080022004708F400F50173
:1012B6007408F2007508F3000800623031008D00F2
:1012C6008F0191010230930092010800220040082C
:1012D600F5003F08F4003E08F3003D08F200080060
:1012E600803023008F0008309000910103308D007C
:1012F60090120800220052080319822983298629A0
:10130600D20101308729003008008030290098007A
:1013160099019A019B019D019C01970196019501F6
:10132600080023004608470403199A299B29A02987
:1013360047088A0046080A008931080080302300E1
:101346008F0008309000910103308D009016200028
:101356009315131608002E000C100B14E330F20040
:101366000830F3008931102189312E001614080047
:1013760023004E084F040319C129C229C7294F0863
:101386008A004E080A0089313E00D51208002E0058
:101396008C122300480849040319D229D329D829D5
:1013A60049088A0048080A00893108002E001110F1
:1013B60023004A084B040319E129E229E7294B08CF
:1013C6008A004A080A00893108003E00B813200046
:1013D600911396137430F2000A30F30089310A2112
:1013E60089318831E92089318B170B170800F91BE1
:1013F600FD29FE29FF290B2A78092000A00079097A
:10140600A100A00A0319A10A2008F8002108F90082
:1014160008002200CE01CF01D001D1011430CA004C
:101426000230C9002100ED01FB018F3184278A318A
:101436008531E7258A310800B73020009F00FF304C
:101446009D009C012E008C129616E530F2000830A5
:10145600F30089311C218A31803020009E0008006B
:10146600382A220889313D218A3120002108870047
:1014760020088600A00A0319A10A0108A200220872
:10148600031D462A472A342A08007208F4004D2A0A
:101496000130F20772088600013087000108031D3B
:1014A600552A562A4B2A74087202F200F301F21BDF
:1014B600F30308002E00101022004608F10045082C
:1014C600F0008731EF278A3123004C084D040319B9
:1014D6006D2A6E2A732A4D088A004C080A008A3142
:1014E600080001302200BD070030BE3DBF3DC03DB3
:1014F6000130D2002000160D160D0139F000013022
:10150600F006F00CF00C160870067F39700696008F
:1015160008000F3023001005F20008307206031988
:10152600952A962A9F2A0F301005F2000B30720674
:10153600031D9E2A9F2AA02A91150F1CA32AA42ABE
:10154600A02A0C080800893135218A318931732196
:101556008A318D31E8258A31893160218A31893194
:1015660088218A318931AE218A318B3160238A31D3
:101576008A311F228A318831FA208A3108000130E7
:101586002200CF073C304F02031CCA2ACB2ADE2A90
:10159600CF010130D0073C305002031CD32AD42A95
:1015A600DE2AD0010130D10718305102031CDC2A93
:1015B600DD2ADE2AD10108008831FF208A31210088
:1015C6006D08031DE72AE82AEC2A0130ED00FB012D
:1015D600FC2A6D03031DF02AF12AFC2A7B08013E32
:1015E600FB0008307B02031CF92AFA2AFC2AED01CB
:1015F600FB010800F601F701721C022B032B072BD7
:101606007408F6077508F73D0130F435F50D890BBA
:10161600082B0130F336F20C890B0D2B720873047C
:10162600031D162B172BFF2A7708F3007608F20006
:1016360008005A302000DC005708DD000130DE00CB
:10164600DF01E001E601E7015D30CF000030D000A8
:101656005908D2005808D1005C30D3008B318A2358
:101666008B31200057085F07860001308700810113
:1016760008002000A901AA01532B2808F600F7014B
:101686007608F2007708F3002708F5002608F4002C
:101696008D318F258B3101302000A9070030AA3DFE
:1016A600250829078600013087000108A8002808B8
:1016B600031D5E2B5F2B402B080024008F01900139
:1016C6000430910086308D00E8308C002E0010101A
:1016D60024000D082200C60024000C082200C500C4
:1016E6002E001A14E730F2000830F30089310A217F
:1016F6008B312E0011101B14E630F2000830F30077
:10170600893122218B31073024008E000800200009
:101716005208D6005108D5002200C101C201A62BED
:101726005008C0004F08BF005530C1005308C20022
:1017360080316F208B3120003F082200C107200036
:1017460040082200C23D2000550884005608850046
:101756001200031DAF2BB02B932B22004208200052
:10176600D000220041082000CF0008007208730450
:101776000319BE2BBF2BE62B0130F600C92B013017
:10178600F235F30D890BC32B0130F607F31FCC2B73
:10179600CD2BC22B73087502031DD32B720874025E
:1017A600031CD62BD72BDB2B7208F4027308F53BF0
:1017B6000130F336F20C890BDC2B0130F602031DE7
:1017C600E52BE62BCD2B7508F3007408F200080014
:1017D6008A31C2228B3120000D0E0139ED000E0E2A
:1017E600890C0139EE0022006E08031DFB2BFC2B31
:1017F600FF2B8A31DF228B3122006D08031D042C5A
:10180600052C082C873113278B3120006D08220008
:10181600EE0020006E082200ED0021006D08031D79
:10182600152C162C1A2C8531E7258B31222C6D03AD
:10183600031D1E2C1F2C222C83319F238B31080065
:10184600F701F8017208730403192A2C2B2C582C63
:101856000130F600352C0130F235F30D890B2F2CB3
:101866000130F607F31F382C392C2E2C0130F735B2
:10187600F80D890B3A2C73087502031D442C720867
:101886007402031C472C482C4D2C7208F402730872
:10189600F53B77140130F336F20C890B4E2C0130F0
:1018A600F602031D572C582C392C7808F3007708BC
:1018B600F2000800F50023000F0C890C0139F40032
:1018C60011081F397404031D692C6A2C5E2C11142F
:1018D60011186E2C6F2C6B2C0F0C890C0139F4002F
:1018E60011081F397404031D792C7A2C6F2C4E3085
:1018F6008C31A0248C3123000F0C890C0139F400A3
:1019060011081F397404031D892C8A2C7E2C750836
:101916008C31A0248C3123000F0C890C0139F40082
:1019260011081F397404031D992C9A2C8E2C11153D
:1019360011199E2C9F2C9B2C0800F3007308230082
:101946008C00901FA72CA82CA92CEA2C0F30100570
:10195600F200083072060319B12CB22CC82C0F30D5
:101966001005F2000B3072060319BA2CBB2CC82CDA
:1019760010162E000F1CC02CC12CBC2C23000F19D6
:10198600C52CC62CEA2C0F08EA2C0F301005F200E5
:10199600083072060319D02CD12CDA2C0F30100522
:1019A600F2000B307206031DD92CDA2CEA2C0F1824
:1019B600DD2CDE2CDA2C0F0C890C0139F200110813
:1019C6001F397204031DE82CE92CDE2C11080800CF
:1019D600F701F51FEF2CF02CF72CF409F509F40AA2
:1019E6000319F50A0130F700F31FFA2CFB2C002D22
:1019F600F209F309F20A0319F30A720873040319C8
:101A0600052D062D2D2D0130F600102D0130F23555
:101A1600F30D890B0A2D0130F607F31F132D142D34
:101A2600092D73087502031D1A2D72087402031C12
:101A36001D2D1E2D222D7208F4027308F53B013070
:101A4600F336F20C890B232D0130F602031D2C2DE3
:101A56002D2D142D77080319312D322D372DF4092C
:101A6600F509F40A0319F50A7508F3007408F2007B
:101A760008007A1C3F2D402D4A2D20002D08A50078
:101A86002C08A7002B08A6008B313C238D312000A3
:101A9600AF1F4E2D4F2D512DAE01AF01B001B1013B
:101AA600652D2030F2000030F30020002C08F500F0
:101AB6002B08F4008D318F258D3101302000B007C1
:101AC6000030B13D3108803AF8002F08803A78029C
:101AD600031D6F2D2E083002031C722D732D542DFD
:101AE6007A18762D772D812D20002D08A5002C083B
:101AF600A7002B08A6008B313C238D3120002D0832
:101B0600F2008A3148228D3120002E087207AB0080
:101B16002F08733DAC000800740875040319942D52
:101B2600952D9B2D74087504031D9A2D9B2DA02DB4
:101B360072088831E8208D31E72D74088600870108
:101B46004931160001040319A92DAA2DC92D7408BF
:101B5600860087014931403F2000A000413FA10097
:101B66007408860087014231403FA200413FA3002E
:101B76002308803AA4002108803A2402031DC52DBB
:101B8600200822020318C82DC92DE72D74088600E7
:101B9600870142317408840075088500003F2000E3
:101BA600A000013FA100403F20078400413F213DA6
:101BB6008500720880007408860087014231013072
:101BC600810741310318810A080020009A01990112
:101BD60096019701980107309500FF309100FF307C
:101BE6009200FF309300FF309400FF303E00D90092
:101BF600C430CE00EF30C3000730E400FF30B80039
:101C0600DA01E501C401B9011830CF00E601BA01D5
:101C1600C501D001DB01FF30BB00FF30C600FF303D
:101C2600D100FF30DC000730E700FF30BC00FF309A
:101C3600C700FF30D200FF30DD000730E800D512C4
:101C4600D416D312E430F2000830F300893116219D
:101C56008D312E0016160C303D0090001330C50055
:101C660014303E00A30010303D00A90015303E00A0
:101C7600A40011303D00AA001430C6000800F70188
:101C8600F31F462E472E4E2EF209F309F20A0319C8
:101C9600F30A0130F700F51F512E522E592EF40982
:101CA600F509F40A0319F50A0130F706F801F901F6
:101CB600720873040319602E612E8E2E0130F60011
:101CC6006B2E0130F235F30D890B652E0130F607C8
:101CD600F31F6E2E6F2E642E0130F835F90D890B29
:101CE600702E73087502031D7A2E72087402031C87
:101CF6007D2E7E2E832E7208F4027308F53B78142F
:101D06000130F336F20C890B842E0130F602031DE6
:101D16008D2E8E2E6F2E77080319922E932E982EC7
:101D2600F809F909F80A0319F90A7908F300780895
:101D3600F2000800220043084404031DA32EA42E2B
:101D4600AC2E44082000AB00220043082000AA0065
:101D5600B52E4308FF3E2000AA00FF302200443D76
:101D66002000AB007A1CB82EB92EC72E2708F60025
:101D7600F7017608F2007708F3002608F500250833
:101D8600F4008D318F258E312000AB1BCB2ECC2E4F
:101D9600CD2ECF2EAA01AB01A801A901E32E20303A
:101DA600F2000030F30020002608F5002508F400B4
:101DB6008D318F258E3101302000A8070030A93DD6
:101DC6002908803AF6002B08803A7602031DED2E8C
:101DD6002A082802031CF02EF12ED22E7A18F42E91
:101DE600F52E042F20002708F600F7017608F200EA
:101DF6007708F3002608F5002508F4008D318F25B5
:101E06008E3120002808013EA5000030293DA6009D
:101E1600080001302000B600220044082000B80067
:101E2600220043082000B7001F30B9000030BA0076
:101E36002300C5014C2FFF302000B907FF30BA3D03
:101E46003908A63E8600013087000A30F2000030CD
:101E5600F3003508F5003408F4008B31B9238F31CF
:101E66007208303E81002000B601FF30B707FF3010
:101E7600B83D0A30F2000030F3003508F5003408AA
:101E8600F4008C3123248F3173082000B5007208CA
:101E9600B400200039083A040319522F532F6F2F2C
:101EA60034083504031D582F592F1E2F3608031DDD
:101EB6005D2F5E2F1E2F3808803AF9008030790298
:101EC600031D672F01303702031C6A2F6B2F6F2FFC
:101ED600FA186E2F6F2F1E2F20003308AC00320821
:101EE600AB003908A63EAD003808AF003708AE0093
:101EF6008D313C258F3120002C08B3002B08B20011
:101F060008004130F900EE30890B872FF90B872F37
:101F1600003230308C315D248F3134308C315D2489
:101F26008F31A630890B952F003230308C315D24ED
:101F36008F310730F9007D30890B9F2FF90B9F2FCA
:101F4600000030308C315D248F3134308C315D248B
:101F56008F31A630890BAD2F003230308C315D24A5
:101F66008F312130890BB52F000030308C315D2444
:101F76008F3134308C315D248F31A630890BC12FDF
:101F8600003230308C315D248F312130890BC92FDE
:101F9600000020308C315D248F3124308C315D245B
:101FA6008F31A630890BD52F003220308C315D243D
:101FB6008F310730F9007D30890BDF2FF90BDF2FCA
:101FC6000000F4012830853136258F31F4010630C2
:101FD600853136258F31F4010F30853136258F3125
:101FE600F4010130853136258F310330F900983000
:101FF600890BFB2FF90BFB2F08000034003400344B
:10200600003400340034003400340034003400342A
:10201600003400340034003400340034003400341A
:10202600003400340034003400340034003400340A
:102036000034003400340034003425343034323473
:1020460075343A3425343034323475343A342534E0
:1020560030343234753420342534633425346334D3
:10206600253463342034203425346334203400345A
:1020760025343034323475343A34253430343234FD
:1020860075343A34253430343234753420342534BA
:10209600633425346334253463342034253463347F
:1020A60052340034253430343234753420344334D9
:1020B6002034203420344C342034203425347534F4
:1020C600003425343034323464342034433400341C
:020000040001F9
:08000000FF3FFF3FFF3FFF3F00
:0A000E00EC3FFF3F9F3FFF3FFF3F25
:00000001FF
