:1000000080314028080008007E14803100308600CE
:10001000003087002E00161C0E280F2817280C1CF5
:100020001228132817289431DC2480313E28161E0C
:100030001A281B2823280C1E1E281F282328953128
:100040002F2580313E280B1F262827283E281A1CE2
:100050002A282B283328101C2E282F2833289631A5
:10006000DE2680313E281B1C362837283E28111CEE
:100070003A283B283E289531FF2580317E10090023
:100080008031422812308400953085002100120012
:10009000E3001200E4001200E5001200E600120086
:1000A000E7001200E800FA01FB01A03084000030F4
:1000B0008500333095310C258031203084000130AB
:1000C00085001D3095310C2580317E1020008F3148
:1000D0002B2FF80023000F0C890C0139F4001108B4
:1000E0001F397404031D752876286A281114111805
:1000F0007A287B2877280F0C890C0139F400110825
:100100001F397404031D852886287B284E308931C9
:10011000DB21803123000F0C890C0139F400110818
:100120001F397404031D952896288A287808FA3800
:100130008931DB21803123000F0C890C0139F40057
:1001400011081F397404031DA628A7289B287808C6
:10015000FE388931DB21803123000F0C890C0139F5
:10016000F40011081F397404031DB728B828AC28FF
:100170000000230091149118BE28BF28BB280F0C43
:10018000890C0139F40011081F397404031DC928B2
:10019000CA28BF284F308931DB21803123000F0C62
:1001A000890C0139F40011081F397404031DD92882
:1001B000DA28CE28973125278031F60023000F0C4E
:1001C000890C0139F40011081F397404031DE92852
:1001D000EA28DE2891161116111AEF28F028EC28CB
:1001E00091149118F428F528F1280F0C890C013985
:1001F000F40011081F397404031DFF280029F52895
:100200004E308931DB21803123000F0C890C0139FC
:10021000F40011081F397404031D0F291029042943
:100220007808FA388931DB21803123000F0C890CE2
:100230000139F40011081F397404031D20292129F4
:1002400015297808FE388931DB21803123000F0C15
:10025000890C0139F40011081F397404031D312978
:1002600032292629000023009114911838293929B0
:1002700035290F0C890C0139F40011081F39740459
:10028000031D4329442939294F308931DB2180312D
:1002900023000F0C890C0139F40011081F39740474
:1002A000031D532954294829973125278031F70008
:1002B00023000F0C890C0139F40011081F39740454
:1002C000031D63296429582991161116111A6929E9
:1002D0006A296629911491186E296F296B290F0CD0
:1002E000890C0139F40011081F397404031D7929A0
:1002F0007A296F294E308931DB21803123000F0CA0
:10030000890C0139F40011081F397404031D89296F
:100310008A297E297808FA388931DB218031230047
:100320000F0C890C0139F40011081F397404031DE6
:100330009A299B298F29111511199F29A0299C29D8
:100340007708F4000430F436890BA3290F307405C4
:10035000F5007608F039750408003F30F200873167
:10036000EB2781312E30F2008731EB2781317B087A
:100370002000D2007A08D30021003A082000D400DF
:10038000033021003C060319C629C729D9290930A1
:100390003C060319CC29CD29D9290A303C0603197A
:1003A000D229D329D9290B303C06031DD829D929B4
:1003B000E42965082000D200210031082000D30084
:1003C000210032082000D4003F302000A80052084D
:1003D000A9008831D32081313A302000C100423059
:1003E000A8005308A9008831D32081313A30200079
:1003F000C4004530A8005408A9008831D3208131B9
:1004000043302000CA005430CB004C30CC002100D7
:100410003708031D0C2A0D2A132A61302000D00052
:100420000030D100182A41302000D0000030D10027
:100430005008CD005230CE002E30A80021006408B4
:100440002000A9008831D320813120302000B00065
:100450004330B1004C30BB0021006308303E200027
:10046000BD0080309531182581312000A001003079
:100470009631C92681313F302000A0000030A10014
:1004800097310C278131963179268131200020085F
:100490002104031D4C2A4D2A432AC03095311825CA
:1004A00081312000A00108309631C92681312E30DB
:1004B0002000A0000030A10097310C278131963137
:1004C00079268131200020082104031D682A692A29
:1004D0005F2A8030953118258131BB2AA001A00AFE
:1004E00000309631C9268131E82A0430A00000305E
:1004F0009631C9268131E82A0730A00000309631B4
:10050000C9268131E82A0B30A00000309631C92677
:100510008131E82AA001A00A00309631C926813134
:10052000E82A0430A00000309631C9268131E82A3B
:100530000730A00000309631C9268131E82A0C30FE
:10054000A00000309631C9268131E82A0D30A00084
:1005500000309631C9268131E82A0E30A0000030E3
:100560009631C9268131E82A0F30A000003096313B
:10057000C9268131E82A21003C082000AC00AD01E9
:100580002D08003A0319C52AE82A2C08003A031955
:100590006E2A013A0319752A033A03197C2A013A93
:1005A0000319832A073A03199F2A013A0319A62A35
:1005B000033A0319AD2A013A0319B42A0E3A031972
:1005C0008A2A033A0319912A013A0319982AE82A38
:1005D00008005830F4005A30F50097315A2782311C
:1005E000A53020005806F130031959060319F92ADD
:1005F000FA2A322B8B31E32382312000E101DF0123
:100600005F0895318A2582312000E1070130DF073C
:100610000B305F02031C0D2B0E2B002B0E30DB006A
:100620000030DC005C08F3005B08F20095317E25A9
:1006300082312000E1070130DB070030DC3D003073
:100640005C02223003195B02031C272B282B122B80
:10065000A530F600F130F7006108F80097313F2728
:100660008231F22BE101E001600895318A25823167
:100670002000E1070130E0070B306002031C412B32
:10068000422B342B0E30DD000030DE005E08F3001C
:100690005D08F20095317E2582312000E1070130AE
:1006A000DD070030DE3D00305E02223003195D02BE
:1006B000031C5B2B5C2B462B5A0861060319612B2C
:1006C000622B682B8B31E32382319731CB27823128
:1006D000003095318A2582312100E80001309531C2
:1006E0008A2582312100E700023095318A25823146
:1006F0002100E600033095318A2582312100B700C0
:10070000043095318A2582312100E500053095318C
:100710008A2582312100B100063095318A25823147
:100720002100B200073095318A2582312100E40092
:10073000083095318A2582312100E3000930953156
:100740008A258231FB000A3095318A258231FA00F0
:100750002100BA010E302000A0000030A100BF30FF
:10076000A200C030A300C130A400C230A500C33035
:10077000A60089319621823113302000A00000307C
:10078000A100C430A200C530A300C630A400C73009
:10079000A500C830A600893196218231183020008A
:1007A000A0000030A100C930A200CA30A300CB30A5
:1007B000A400CC30A500CD30A6008931962182312D
:1007C0001D302000A0000030A100CE30A200CF30AC
:1007D000A300D030A400D130A500D230A6008931CA
:1007E000962182319431CC2482312100AF01AE01B7
:1007F000AD01AC019531412582312100B001BD012F
:10080000BC01BB018C31A92482318E315726823143
:1008100008002100B0013D03031D0F2C102C002DFA
:10082000D42C1830F2000030F3007B08013EF400B5
:10083000003003180130F5008A3126228431720815
:10084000FB007B08F9000930963142268431242DC3
:100850003C30F2000030F3007A08013EF400003032
:1008600003180130F5008A31262284317208FA001B
:100870007A08F9000A30963142268431242D3C3022
:10088000F2000030F30021003A08013EF40000308D
:1008900003180130F5008A312622843172082100C4
:1008A000BA00242D09302100BC00242D1830F2009C
:1008B0000030F30021006508013EF4000030031809
:1008C0000130F5008A312622843172082100E500CA
:1008D0006508F9000430963142268431242D3C30DD
:1008E000F2000030F30021003108013EF400003036
:1008F00003180130F5008A31262284317208210064
:10090000B1003108F9000530963142268431242D9A
:100910003C30F2000030F30021003208013EF400C8
:10092000003003180130F5008A3126228431720824
:100930002100B2003208F900063096314226843197
:10094000242D3330F2000030F30021006408013E12
:10095000F400003003180130F5008A31262284317A
:1009600072082100E4006408F9000730963142263D
:100970008431242D21006308013E0339E30063081C
:10098000F9000830963142268431242D01302100AF
:10099000B7063708F9000330963142268431242DFA
:1009A0008D31AB258431242D3C082000AB00AC01F7
:1009B0002C08003A0319DD2C242D2B08003A0319CA
:1009C000112C013A0319282C033A03193F2C013A40
:1009D0000319522C073A0319A12C013A0319BA2C16
:1009E000033A0319C62C013A0319D02C0E3A031905
:1009F000562C033A03196F2C013A0319882C242D25
:100A00003D08031D042D052D0B2D0230BD000130C6
:100A1000BB00B301242D02303D06031D102D112D06
:100A2000242D02303B06031D162D172D1B2DBD0155
:100A3000BB01B301242D3B03031D1F2D202D242DAD
:100A40000230BB000230B30708002C30F2008731BF
:100A5000EB2785313D30F2008731EB2785312C3093
:100A60002000A8000530F2002100330896316626E8
:100A70008531BF3E8600870101082000A90088312A
:100A8000D32085313A302000AE002F30A800053049
:100A9000F20021003308963166268531C03E86007B
:100AA000870101082000A9008831D32085313A3020
:100AB0002000B1003230A8000530F20021003308D8
:100AC000963166268531C13E8600870101082000E7
:100AD000A9008831D320853120302000B400353082
:100AE000A8000530F20021003308963166268531D2
:100AF000C23E8600870101082000A9008831D3206A
:100B0000853143302000B7000530F2002100330862
:100B1000963166268531C33E860087010108303E46
:100B20002000BB004C30BA003D30A8000530F20078
:100B300021003308963166268531C43E8600870140
:100B400001082000A9008831D32085313A302000E7
:100B5000BF004030A8000530F20021003308963174
:100B600066268531C53E8600870101082000A90060
:100B70008831D32085313A302000C2004330A800AC
:100B80000530F20021003308963166268531C63ED5
:100B90008600870101082000A9008831D320853113
:100BA00020302000C5004630A8000530F2002100AA
:100BB0003308963166268531C73E860087010108D5
:100BC0002000A9008831D320853143302000C8009F
:100BD0000530F20021003308963166268531C83E83
:100BE000860087010108303E2000CC004C30CB004D
:100BF00080309531182585312000A00100309631D4
:100C0000C92685312C302000A0000030A10097318A
:100C10000C27853196317926853120002008210462
:100C2000031D132E142E0A2EC03095311825853140
:100C30002000A00108309631C92685313D302000C2
:100C4000A0000030A10097310C278531963179261C
:100C50008531200020082104031D2F2E302E262E42
:100C6000080023000F0C890C0139F40011081F390A
:100C70007404031D3C2E3D2E312E11141118412EEB
:100C8000422E3E2E0F0C890C0139F40011081F3939
:100C90007404031D4C2E4D2E422E9A308931DB21D7
:100CA000863123000F0C890C0139F40011081F391B
:100CB0007404031D5C2E5D2E512E01308931DB2121
:100CC000863123000F0C890C0139F40011081F39FB
:100CD0007404031D6C2E6D2E612E91149118712ECB
:100CE000722E6E2E0F0C890C0139F40011081F3979
:100CF0007404031D7C2E7D2E722E9B308931DB21E6
:100D0000863123000F0C890C0139F40011081F39BA
:100D10007404031D8C2E8D2E812E9731252786314C
:100D2000F50023000F0C890C0139F40011081F395C
:100D30007404031D9C2E9D2E912E91161116111ACE
:100D4000A22EA32E9F2E0F0C890C0139F40011083E
:100D50001F397404031DAD2EAE2EA32E11151119CB
:100D6000B22EB32EAF2E751FB62EB72E312E0F0C0E
:100D7000890C0139F40011081F397404031DC12EB8
:100D8000C22EB72E11141118C62EC72EC32E0F0C4B
:100D9000890C0139F40011081F397404031DD12E88
:100DA000D22EC72E9A308931DB21863123000F0CD9
:100DB000890C0139F40011081F397404031DE12E58
:100DC000E22ED62E00308931DB21863123000F0C34
:100DD000890C0139F40011081F397404031DF12E28
:100DE000F22EE62E91149118F62EF72EF32E0F0CFC
:100DF000890C0139F40011081F397404031D012FF7
:100E0000022FF72E9B308931DB21863123000F0C16
:100E1000890C0139F40011081F397404031D112FC6
:100E2000122F062F973125278631F50023000F0C4E
:100E3000890C0139F40011081F397404031D212F96
:100E4000222F162F91161116111A272F282F242F13
:100E50000F0C890C0139F40011081F397404031DAB
:100E6000322F332F282F11151119372F382F342FE8
:100E700075080800F6007608F039F7007608F500E6
:100E80000430F535890B412F7508F039F80023003F
:100E90000F0C890C0139F50011081F397504031D69
:100EA000522F532F472F11141118572F582F542FEB
:100EB0000F0C890C0139F50011081F397504031D49
:100EC000622F632F582F4E308931DB218731230069
:100ED0000F0C890C0139F50011081F397504031D29
:100EE000722F732F672F7708740408388931DB213C
:100EF000873123000F0C890C0139F50011081F39C7
:100F00007504031D842F852F792F770874040C38FE
:100F10008931DB21873123000F0C890C0139F50061
:100F200011081F397504031D962F972F8B2F000072
:100F30007708740408388931DB21873123000F0CCE
:100F4000890C0139F50011081F397504031DA92FFB
:100F5000AA2F9E2F7808740408388931DB21873145
:100F600023000F0C890C0139F50011081F39750495
:100F7000031DBB2FBC2FB02F780874040C388931A7
:100F8000DB21873123000F0C890C0139F500110892
:100F90001F397504031DCD2FCE2FC22F00007808F6
:100FA000740408388931DB21873123000F0C890C48
:100FB0000139F50011081F397504031DE02FE12FD9
:100FC000D52F11151119E52FE62FE22F1030890BBF
:100FD000E72F00320800F3017208730786008701CB
:100FE000203081000130F30710307302031CF92F09
:100FF000FA2FEC2F7208103E86008701810108004D
:10100000080008000B0D0B0D0139F50073083000C6
:101010009B0072089A0074089C001E171E158B1303
:1010200055309F00AA309F009E149E18182819283A
:1010300015281E11750C031C8B1303188B17080041
:1010400001302100BA073C303A02031C2828292825
:101050005628BA010130FA073C307A02031C3128C5
:1010600032285028FA017A08F9000A3096314226CF
:1010700088310130FB0718307B02031C40284128CF
:101080004928FB017B08F900093096314226883156
:1010900056287B08F90009309631422688315628B7
:1010A0007A08F9000A3096314226883108009431D6
:1010B000CC2488312100B0013D08031D602861283F
:1010C00065280130BD00BC0194283D03031D69283B
:1010D0006A287C283C08893111218831F5000730C5
:1010E00021003C06031D752876287928BD01BC0126
:1010F00094287508BC00942802303D06031D812801
:10110000822894283B03031D862887288B28BD014D
:10111000BB01B301942802303B06031D902891289F
:1011200094280130BB00B301080020002508F3001B
:101130002408F2002608F4008831022088312000BB
:101140002408013EF2000030253DF3002708F4009A
:1011500088310220883120002408023EF20000304D
:10116000253DF3002808F400883102208831200052
:101170002408033EF2000030253DF3002908F40066
:1011800088310220883120002408043EF20000301B
:10119000253DF3002A08F400883102208831973178
:1011A000CB27883108000A30F2000030F30020001D
:1011B0002908F800F9017808F4007908F5008A3167
:1011C0002622883172082000AB000A30A0000030CF
:1011D000A1006430F2000030F3002908F800F901A2
:1011E0007808F4007908F5008A3126228831200039
:1011F0002B087202A2000030733BA3008A31CC227C
:10120000883120002008AA002808860087012A08C3
:10121000303E8100280A860087012B08303E81007D
:101220000800F400272901305229023052290330E6
:1012300052290430522905305229063052290730EC
:101240005229003052290A3052290B305229740891
:10125000F200F3017308003A03192F2921297208BB
:10126000003A03191329013A03191529033A0319FE
:101270001729013A03191929073A03191B29013AB9
:1012800003191D29033A03191F29013A03192129BA
:101290000E3A03192329033A03192529013A0319A0
:1012A000192921290800F50023000F0C890C0139A8
:1012B000F40011081F397404031D5F2960295429A3
:1012C000111411186429652961290F0C890C013941
:1012D000F40011081F397404031D6F297029652952
:1012E0004E308931DB21893123000F0C890C013903
:1012F000F40011081F397404031D7F298029742903
:1013000075088931DB21893123000F0C890C0139E3
:10131000F40011081F397404031D8F2990298429B2
:1013200011151119942995299129080020002208E6
:10133000860087012108F3002008F20095317E2500
:101340008931810020002308860087012008013EA2
:10135000F2000030213DF30095317E258931810076
:1013600020002408860087012008023EF200003099
:10137000213DF30095317E2589318100200025082B
:10138000860087012008033EF2000030213DF30073
:1013900095317E258931810020002608860087014D
:1013A0002008043EF2000030213DF30095317E25F7
:1013B000893181000800F300730823008C00901F1E
:1013C000E229E329E429252A0F301005F20008302C
:1013D00072060319EC29ED29032A0F301005F200DB
:1013E0000B3072060319F529F629032A10162E0070
:1013F0000F1CFB29FC29F72923000F19002A012AB9
:10140000252A0F08252A0F301005F2000830720631
:1014100003190B2A0C2A152A0F301005F2000B3085
:101420007206031D142A152A252A0F18182A192AAC
:10143000152A0F0C890C0139F20011081F397204AA
:10144000031D232A242A192A11080800F701F51F71
:101450002A2A2B2A322AF409F509F40A0319F50A73
:101460000130F700F31F352A362A3B2AF209F30927
:10147000F20A0319F30A720873040319402A412A75
:10148000682A0130F6004B2A0130F235F30D890B42
:10149000452A0130F607F31F4E2A4F2A442A7308C3
:1014A0007502031D552A72087402031C582A592A12
:1014B0005D2A7208F4027308F53B0130F336F20C32
:1014C000890B5E2A0130F602031D672A682A4F2A1B
:1014D000770803196C2A6D2A722AF409F509F40AAF
:1014E0000319F50A7508F3007408F20008002100DA
:1014F00039086402031C7D2A7F2A0130802A0030CB
:10150000F60063083802031C862A882A0130892ADB
:101510000030F700760803198E2A8F2A922A2000BD
:101520009616942A2000961277080319982A992A69
:101530009B2A16169C2A161221003708031DA12A81
:10154000A22AA72A7608AF007708AE00CB2A760831
:101550000319AB2AAC2AB62A2F08031DB02AB12AD8
:10156000B62A0130B50096318C268A3177080319E6
:10157000BA2ABB2AC62A21002E08031DC02AC12A66
:10158000C62A0130B40096318C268A3176082100B3
:10159000AF007708AE0008002000A501A11FD12AE6
:1015A000D22AD92AA009A109A00A0319A10A013047
:1015B000A500A31FDC2ADD2AE42AA209A309A20AA6
:1015C0000319A30A0130A506A601A70120082104DA
:1015D0000319EB2AEC2A192B0130A400F62A01305A
:1015E000A035A10D890BF02A0130A407A11FF92A0B
:1015F000FA2AEF2A0130A635A70D890BFB2A21080C
:101600002302031D052B20082202031C082B092B93
:101610000E2B2008A2022108A33B26140130A1367C
:10162000A00C890B0F2B0130A402031D182B192BC2
:10163000FA2A250803191D2B1E2B232BA609A709FF
:10164000A60A0319A70A2708A1002608A000080077
:1016500021003908420203182E2B2F2B3F2B39086B
:10166000C2007B08BF007A08C0003A08C100013000
:101670002000AB000030AC008D3125258B312100DE
:10168000470839020318452B462B562B3908C7004B
:101690007B08C4007A08C5003A08C6000230200062
:1016A000AB000030AC008D3125258B31210038088E
:1016B0004D0203185C2B5D2B6D2B3808CD007B0889
:1016C000C9007A08CA003A08CB0003302000AB00FA
:1016D0000030AC008D3125258B31210052083802B5
:1016E0000318732B742B842B3808D2007B08CE0090
:1016F0007A08CF003A08D00004302000AB00003058
:10170000AC008D3125258B31080020009A0199010C
:10171000960197019801073095000F309100FF3036
:101720009200FF309300FF309400FF303E00D9005C
:10173000C430CE00EF30C3000730E400AF30B80053
:10174000DA01E501C401B9011830CF00E601BA01A0
:10175000C501D001DB01FF30BB00FF30C600FF3008
:10176000D100FF30DC000730E700FF30BC00FF3065
:10177000C700FF30D200FF30DD000730E800D5128F
:10178000D416D3120130F2000830F3009531002551
:101790008B312E0016160C303D0090001330C50022
:1017A00014303E00A30010303D00A90015303E006B
:1017B000A4000E30960011303D00AA0004309100C4
:1017C0001430C600080005302100E8000330E700AF
:1017D0000A30E600B7010C30E500B101B201143067
:1017E000E4000230E300FB01FA01BA016808F900E5
:1017F0000030963142268B3121006708F900013014
:10180000963142268B3121006608F900023096316C
:1018100042268B3121003708F900033096314226E9
:101820008B3121006508F9000430963142268B3156
:1018300021003108F9000530963142268B31210014
:101840003208F9000630963142268B3121006408B7
:10185000F9000730963142268B3121006308F900E8
:101860000830963142268B318D31AB258B312100EA
:10187000C201C301FF30C7000330C800CC01CD0155
:10188000FF30D1000330D20008002100300866028A
:1018900003184B2C4C2C4E2CB001BD0196311F2649
:1018A0008C312000D8017B0821006506031D592CCE
:1018B0005A2C692C7A083106031D5F2C602C692C88
:1018C0003A083206031D652C662C692C0130200075
:1018D000D80020005808D90021003708031D712CBA
:1018E000722C772C200059082100AD00892C200093
:1018F000590803197C2C7D2C722C21002D08031D06
:10190000822C832C722C0130B60096318C268C31BF
:10191000722C3D08031D8D2C8E2C922C8E31572657
:101920008C31A82C3D03031D962C972C9D2C013047
:10193000B0078131AD218C31A82C02303D06031D4A
:10194000A22CA32CA82C0130B007853125258C3181
:1019500008004130F900EE30890BAC2CF90BAC2CAF
:1019600000323030893153218C3134308931532168
:101970008C31A630890BBA2C00323030893153219A
:101980008C310730F9007D30890BC42CF90BC42C45
:1019900000003030893153218C313430893153216A
:1019A0008C31A630890BD22C003230308931532152
:1019B0008C312130890BDA2C0000303089315321F1
:1019C0008C313430893153218C31A630890BE62C8F
:1019D00000323030893153218C312130890BEE2C8B
:1019E00000002030893153218C312430893153213A
:1019F0008C31A630890BFA2C0032203089315321EA
:101A00008C310730F9007D30890B042DF90B042D42
:101A10000000F401283087313A278C31F401063078
:101A200087313A278C31F4010F3087313A278C31D6
:101A3000F401013087313A278C310330F9009830B6
:101A4000890B202DF90B202D0800962D0E30A400B7
:101A50000030A50021003F082000A600210040081A
:101A60002000A700210041082000A8002100420812
:101A70002000A900210043082000AA0088319520F9
:101A80008D31AA2D1330A4000030A5002100440898
:101A90002000A600210045082000A70021004608DC
:101AA0002000A800210047082000A90021004808C4
:101AB0002000AA00883195208D31AA2D1830A4006D
:101AC0000030A500210049082000A60021004A0896
:101AD0002000A70021004B082000A80021004C088E
:101AE0002000A90021004D082000AA00883195207F
:101AF0008D31AA2D1D30A4000030A50021004E0814
:101B00002000A60021004F082000A7002100500857
:101B10002000A800210051082000A900210052083F
:101B20002000AA00883195208D31AA2D20002C0894
:101B3000003A03199C2DAA2D2B08013A0319262DD2
:101B4000033A0319422D013A03195E2D073A03198E
:101B50007A2DAA2D0800F9010530F2007908963196
:101B600066268D31BF3E8600870181010530F20077
:101B70007908963166268D31C03E86008701810145
:101B80000530F2007908963166268D31C13E860017
:101B9000870181010530F2007908963166268D3182
:101BA000C23E8600870181010530F2007908963136
:101BB00066268D31C33E8600870181010130F90719
:101BC00004307902031CE52DE62DAC2D0E302000EB
:101BD000A4000030A50021003F082000A60021003D
:101BE00040082000A700210041082000A800210093
:101BF00042082000A900210043082000AA008831E3
:101C000095208D3113302000A4000030A500210064
:101C100044082000A600210045082000A70021005C
:101C200046082000A800210047082000A900210044
:101C300048082000AA00883195208D3118302000F6
:101C4000A4000030A500210049082000A6002100C2
:101C50004A082000A70021004B082000A80021000E
:101C60004C082000A90021004D082000AA0088315E
:101C700095208D311D302000A4000030A5002100EA
:101C80004E082000A60021004F082000A7002100D8
:101C900050082000A800210051082000A9002100C0
:101CA00052082000AA00883195208D3108003F306D
:101CB000F2008731EB278E312E30F2008731EB278F
:101CC0008E313F302000A8007B08A9008831D32046
:101CD0008E313A302000C1004230A8007A08A900B5
:101CE0008831D3208E313A302000C4004530A8001E
:101CF00021003A082000A9008831D3208E312030FD
:101D00002000C70021003608031D872E882E8E2E46
:101D100020302000D0000030D100932E433020002E
:101D2000D0000030D1005008C80021003508031D44
:101D30009A2E9B2EA12E20302000D2000030D300FE
:101D4000A62E54302000D2000030D3005208C90023
:101D500021003408031DAD2EAE2EB42E20302000FD
:101D6000D4000030D500B92E4C302000D400003013
:101D7000D5005408CA0021003708031DC02EC12E0B
:101D8000C72E61302000D6000030D700CC2E413065
:101D90002000D6000030D7005608CD002E30A80015
:101DA000210039082000A9008831D3208E3120304D
:101DB0002000B0004330B1004C30BB000A30F200CC
:101DC0000030F300210038082000AC00AD012C08E1
:101DD000F4002D08F5008A3126228E317208303E3B
:101DE0002000BD008030953118258E312000A001E3
:101DF00000309631C9268E313F302000A0000030DF
:101E0000A10097310C278E31963179268E31200032
:101E100020082104031D0D2F0E2F042FC0309531F3
:101E200018258E312000A00108309631C9268E3148
:101E30002E302000A0000030A10097310C278E31F9
:101E4000963179268E31200020082104031D292F88
:101E50002A2F202F080000302100E2000030E1008E
:101E60000030E0000030DF0097317C278F31953162
:101E7000BB258F318C31A9248F31803095311825C5
:101E80008F312000A00100309631C9268F312030DB
:101E90002000A0009830A10097310C278F31963197
:101EA00079268F31200020082104031D582F592F37
:101EB0004F2F8231E9228F31963130268F31953183
:101EC000C8258F31D630F2001430F3009431FA2453
:101ED0008F318B3185238F31E230F2001430F300E3
:101EE000953100258F319431EE248F3172087304BF
:101EF00003197B2F7C2F822F9431C4248F3188319A
:101F000057208F319431F4248F31720873040319F0
:101F10008A2F8B2F912F9431C8248F31843109243B
:101F20008F31953168258F31003A0319982F992FF9
:101F3000732F03102000961F03140318A02FA32F44
:101F400020009617A52F20009613883120208F316E
:101F5000953154258F3175082100DE007408DD00AD
:101F60007308DC007208DB0068082000E200E3016F
:101F7000E401E50121005F085B022000E60021008A
:101F800060085C3B2000E700210061085D3B200009
:101F9000E800210062085E3B2000E9006508690254
:101FA000031DDC2F64086802031DDC2F6308670231
:101FB000031DDC2F620866020318DF2FE02FE92FD4
:101FC00021006208610460045F04031DE82FE92F0B
:101FD000F82F21005E08E2005D08E1005C08E000E7
:101FE0005B08DF009531E2258F318A3177228F310E
:101FF0008C3145248F3163000000732F80314028DD
:10297C0024000E14080027008E1708002100A60161
:10298C00A70108002100A401A50108002100B40141
:10299C00B501B60108003100960190309500080091
:1029AC0001302100A6000030A70008002E000C10FA
:1029BC009531AE259431080001302100A40000307F
:1029CC00A500080073082100D8007208D700080081
:1029DC0021002708F3002608F20008002100250832
:1029EC00F3002408F200080073082100D4007208D8
:1029FC00D300080073082100DA007208D90008001F
:102A0C0073082100D6007208D5000800640080010C
:102A1C000131890B0D2D0034023414340C340A347A
:102A2C0003340534F900F401790887313A279531DC
:102A3C0008002F0096019701980199019A019B01BA
:102A4C000800F900F401F40A790887313A27953126
:102A5C0008003E00D51E332D342D372D9531F02531
:102A6C0095310800623031008D008F0191010230E8
:102A7C009300920108000030F200F3009631B42666
:102A8C00953127008E13080001302100A00700307B
:102A9C00A13DA23DA33D0130BE000800210023084A
:102AAC00F5002208F4002108F3002008F2000800C9
:102ABC00803023008F0008309000910103308D008E
:102ACC009012080021003E0803196D2D6E2D712DFA
:102ADC00BE010130722D0030080020009F01FF3034
:102AEC009D009C012E008C12803020009E0008005E
:102AFC00730830009B0072089A001E171E14000009
:102B0C00000030001C080800F4007408033EF200BA
:102B1C00003003180130F30095317E259531080003
:102B2C00803027008E008D0140308C0024001F085F
:102B3C00F33904389F00080080302900980099016F
:102B4C009A019B019D019C0197019601950108003A
:102B5C002100530854040319B42DB52DBA2D540873
:102B6C008A0053080A0095310800803023008F003A
:102B7C0008309000910103308D00901620009315C1
:102B8C00131608002E000C100B140030F200083045
:102B9C00F3009431FA2495312E00161408000130FC
:102BAC00250090008F0191018D018C012E00901059
:102BBC00803025008E0008008631312695312100A9
:102BCC00B9009631A02695312100B8008B3128230D
:102BDC0095310800210059085A040319F62DF72DD8
:102BEC00FC2D5A088A0059080A0095313E00D5126E
:102BFC0008002E0011102100550856040319072E49
:102C0C00082E0D2E56088A0055080A009631080029
:102C1C0024000E1D122E132E1A2E0E1071088D006C
:102C2C0070088C000E141E2E71088D0070088C001C
:102C3C00080021002C08031D242E252E262E2F2EB5
:102C4C000130AC02031D2B2E2C2E2F2E953141253D
:102C5C00963108003E00B8132000911396134A30A9
:102C6C00F2001530F3009431E82496319431BE24EF
:102C7C0096318B170B1708002000A4002408033E84
:102C8C00F200003003180130F3007908F4008831A9
:102C9C00022096319731CB2796310800F400740846
:102CAC0021009E0093171313131400002100131816
:102CBC00602E612E5C2E0D08F3000C08F20008004B
:102CCC00F400F301741C6B2E6C2E6E2E7208F3073D
:102CDC000310F20D0310F40C7408031D762E772EDE
:102CEC00682E7308080000308031692096318039D5
:102CFC000319812E822E882E01302000A000003076
:102D0C00A1008B2E2000A001A101080021002C089D
:102D1C000319912E922E932E9F2E0330AC0000306F
:102D2C00F2000230F3009631B42696319431C1246E
:102D3C009631080000309631542696317308F6000F
:102D4C007208F5007608F70004307702031CAF2EEA
:102D5C00B02EB22E0330F700770808007308F50088
:102D6C007208F400F536F40CF536F40C74082700F0
:102D7C008D0072080339F4000630F435890BC32E2C
:102D8C0074088C0008002000A10021080319CF2E24
:102D9C00D02ED32EC030A200D52E8030A200200819
:102DAC000F392204A200220895311825963108000B
:102DBC002E00101021002908F1002808F00096318F
:102DCC000E2696312100570858040319EE2EEF2ECB
:102DDC00F42E58088A0057080A0096310800220081
:102DEC008E018F0190019101920193018D012100BF
:102DFC009E019B019C0194019501960197019A01FA
:102E0C0099019801843093009D010800112F24082A
:102E1C0095312725973120002108A3002008A20016
:102E2C00A00A0319A10A22088400230885000008BF
:102E3C00A4002408031D232F242F0D2F08000F306E
:102E4C0023001005F2000830720603192E2F2F2FC5
:102E5C00382F0F301005F2000B307206031D372F80
:102E6C00382F392F91150F1C3C2F3D2F392F0C0863
:102E7C0008000030F200F3007608F40088310220DC
:102E8C0097310130F2000030F3007708F4008831FC
:102E9C00022097310230F2000030F3007808F40081
:102EAC0088310220973108000030F200F300953190
:102EBC007E259731F6000130F2000030F300953199
:102ECC007E259731F7007408860087017608C03F8D
:102EDC007708C13F7508860087010230F200003088
:102EEC00F30095317E2597318100080095311F251F
:102EFC00973195315E2597318B31852397319531FB
:102F0C00382597319531962597319631F52697319D
:102F1C009531A22597319531D52597319731A12738
:102F2C0097319531C8259731953173259731943167
:102F3C00D1249731080024008F01900104309100B6
:102F4C0086308D00E8308C002E00101024000D0807
:102F5C002100A90024000C082100A8002E001A143E
:102F6C000330F2000030F3009431E82497312E0046
:102F7C0011101B140230F2000030F30095310625BD
:102F8C009731073024008E0008002000A001A30117
:102F9C00230895318A2597312000A0070130A3071B
:102FAC000B302302031CDB2FDC2FCE2F0E30A100A5
:102FBC000030A2002208F3002108F20095317E2592
:102FCC0097312000A0070130A1070030A23D00304E
:102FDC002202223003192102031CF52FF62FE02FB9
:102FEC00A530F600F130F7002008F80097313F27A4
:102FFC0097310800003400340034003400340034BD
:10300C000034003400340034003400340034003414
:10301C000034003400340034003400340034003404
:10302C0000340034003400340034003400340034F4
:10303C000034003441346E347434653473342034C9
:10304C0064346F34203449344E34493454340034AD
:020000040001F9
:08000000FF3FFF3FFF3FFF3F00
:0A000E00EC3FFF3F9F3FFF3FFF3F25
:00000001FF
