:1000000080314028080008007E14803100308600CE
:10001000003087002E00161C0E280F2817280C1CF5
:100020001228132817289431B32480313E28161E35
:100030001A281B2823280C1E1E281F282328943129
:10004000FF2480313E280B1F262827283E281A1C13
:100050002A282B283328101C2E282F2833289631A5
:10006000B82680313E281B1C362837283E28111C14
:100070003A283B283E289531C32580317E1009005F
:1000800080314228E930840094308500210012003C
:10009000E3001200E4001200E5001200E600120086
:1000A000E7001200E800FA01FB01A03084000030F4
:1000B000850033309431E3248031203084000130D6
:1000C00085001D309431E32480317E1020008E3174
:1000D0005A2EF80023000F0C890C0139F400110886
:1000E0001F397404031D752876286A281114111805
:1000F0007A287B2877280F0C890C0139F400110825
:100100001F397404031D852886287B284E308931C9
:10011000C321803123000F0C890C0139F400110830
:100120001F397404031D952896288A287808FA3800
:100130008931C321803123000F0C890C0139F4006F
:1001400011081F397404031DA628A7289B287808C6
:10015000FE388931C321803123000F0C890C01390D
:10016000F40011081F397404031DB728B828AC28FF
:100170000000230091149118BE28BF28BB280F0C43
:10018000890C0139F40011081F397404031DC928B2
:10019000CA28BF284F308931C321803123000F0C7A
:1001A000890C0139F40011081F397404031DD92882
:1001B000DA28CE289631FF268031F60023000F0C76
:1001C000890C0139F40011081F397404031DE92852
:1001D000EA28DE2891161116111AEF28F028EC28CB
:1001E00091149118F428F528F1280F0C890C013985
:1001F000F40011081F397404031DFF280029F52895
:100200004E308931C321803123000F0C890C013914
:10021000F40011081F397404031D0F291029042943
:100220007808FA388931C321803123000F0C890CFA
:100230000139F40011081F397404031D20292129F4
:1002400015297808FE388931C321803123000F0C2D
:10025000890C0139F40011081F397404031D312978
:1002600032292629000023009114911838293929B0
:1002700035290F0C890C0139F40011081F39740459
:10028000031D4329442939294F308931C321803145
:1002900023000F0C890C0139F40011081F39740474
:1002A000031D5329542948299631FF268031F70030
:1002B00023000F0C890C0139F40011081F39740454
:1002C000031D63296429582991161116111A6929E9
:1002D0006A296629911491186E296F296B290F0CD0
:1002E000890C0139F40011081F397404031D7929A0
:1002F0007A296F294E308931C321803123000F0CB8
:10030000890C0139F40011081F397404031D89296F
:100310008A297E297808FA388931C321803123005F
:100320000F0C890C0139F40011081F397404031DE6
:100330009A299B298F29111511199F29A0299C29D8
:100340007708F4000430F436890BA3290F307405C4
:10035000F5007608F039750408003F30F200963158
:10036000A32681312E30F2009631A32681317B08FD
:100370002000D2007A08D30021003A082000D400DF
:10038000033021003C060319C629C729D9290930A1
:100390003C060319CC29CD29D9290A303C0603197A
:1003A000D229D329D9290B303C06031DD829D929B4
:1003B000E42965082000D200210031082000D30084
:1003C000210032082000D4003F302000A80052084D
:1003D000A9008831BB2081313A302000C100423071
:1003E000A8005308A9008831BB2081313A30200091
:1003F000C4004530A8005408A9008831BB208131D1
:1004000043302000CA005430CB004C30CC002100D7
:100410003708031D0C2A0D2A132A61302000D00052
:100420000030D100182A41302000D0000030D10027
:100430005008CD005230CE002E30A80021006408B4
:100440002000A9008831BB20813120302000B0007D
:100450004330B1004C30BB0021006308303E200027
:10046000BD0080308831002081312000A0010030A3
:1004700096318E2681313F302000A0000030A1004F
:100480009631E626813196313E26813120002008C2
:100490002104031D4C2A4D2A432AC03088310020F4
:1004A00081312000A001083096318E2681312E3016
:1004B0002000A0000030A1009631E626813196315F
:1004C0003E268131200020082104031D682A692A64
:1004D0005F2A8030883100208131BB2AA001A00A28
:1004E000003096318E268131E82A0430A000003099
:1004F00096318E268131E82A0730A00000309631EF
:100500008E268131E82A0B30A000003096318E26ED
:100510008131E82AA001A00A003096318E2681316F
:10052000E82A0430A000003096318E268131E82A76
:100530000730A000003096318E268131E82A0C3039
:10054000A000003096318E268131E82A0D30A000BF
:10055000003096318E268131E82A0E30A00000301E
:1005600096318E268131E82A0F30A0000030963176
:100570008E268131E82A21003C082000AC00AD0124
:100580002D08003A0319C52AE82A2C08003A031955
:100590006E2A013A0319752A033A03197C2A013A93
:1005A0000319832A073A03199F2A013A0319A62A35
:1005B000033A0319AD2A013A0319B42A0E3A031972
:1005C0008A2A033A0319912A013A0319982AE82A38
:1005D00008002100B0013D03031DEF2AF02AE82B9B
:1005E000BC2B1830F2000030F3007B08013EF40011
:1005F000003003180130F5008A310E228231720872
:10060000FB007B082000A3000930963118268231B8
:100610000C2C3C30F2000030F3007A08013EF4006C
:10062000003003180130F5008A310E228231720841
:10063000FA007A082000A3000A3096311826823189
:100640000C2C3C30F2000030F30021003A08013E4F
:10065000F400003003180130F5008A310E22823197
:1006600072082100BA000C2C09302100BC000C2CAF
:100670001830F2000030F30021006508013EF4005C
:10068000003003180130F5008A310E2282317208E1
:100690002100E50065082000A300043096311826EB
:1006A00082310C2C3C30F2000030F3002100310884
:1006B000013EF400003003180130F5008A310E22AB
:1006C000823172082100B10031082000A3000530FA
:1006D0009631182682310C2C3C30F2000030F300A9
:1006E00021003208013EF400003003180130F5000B
:1006F0008A310E22823172082100B20032082000B5
:10070000A30006309631182682310C2C3330F200CB
:100710000030F30021006408013EF40000300318AB
:100720000130F5008A310E22823172082100E40086
:1007300064082000A30007309631182682310C2C63
:1007400021006308013E0339E30063082000A30091
:1007500008309631182682310C2C01302100B70662
:1007600037082000A30003309631182682310C2C64
:100770008D31A92582310C2C3C082000AB00AC0146
:100780002C08003A0319C52B0C2C2B08003A03192E
:10079000F12A013A0319092B033A0319212B013AD3
:1007A0000319342B073A0319862B013A0319A02B9E
:1007B000033A0319AD2B013A0319B82B0E3A03196A
:1007C000382B033A0319522B013A03196C2B0C2CCA
:1007D0003D08031DEC2BED2BF32B0230BD00013047
:1007E000BB00B3010C2C02303D06031DF82BF92B86
:1007F0000C2C02303B06031DFE2BFF2B032CBD01EE
:10080000BB01B3010C2C3B03031D072C082C0C2C43
:100810000230BB000230B30708005830F4005A30F1
:10082000F500973137278431A43020005806F13085
:100830000319590603191D2C1E2C562C8C313C24EF
:1008400084312000E101DF015F088731F427843122
:100850002000E1070130DF070B305F02031C312C61
:10086000322C242C0E30DB000030DC005C08F3005E
:100870005B08F2009531662584312000E1070130E4
:10088000DB070030DC3D00305C02223003195B02E4
:10089000031C4B2C4C2C362CA430A300F130A400AC
:1008A0006108A500973119278431172DE101E00176
:1008B00060088731F42784312000E1070130E00728
:1008C0000B306002031C652C662C582C0E30DD00AA
:1008D0000030DE005E08F3005D08F2009531662509
:1008E00084312000E1070130DD070030DE3D0030BB
:1008F0005E02223003195D02031C7F2C802C6A2CBF
:100900005A0861060319852C862C8D2C8C313C24C9
:1009100084319731CB2784312D2D00308731F42756
:1009200084312100E80001308731F427843121002F
:10093000E70002308731F42784312100E6000330DC
:100940008731F42784312100B70004308731F42740
:1009500084312100E50005308731F42784312100FE
:10096000B10006308731F42784312100B20007300E
:100970008731F42784312100E40008308731F427DF
:1009800084312100E30009308731F4278431FB00F2
:100990000A308731F4278431FA002100BA010E3081
:1009A0002000A0000030A100BF30A200C030A30092
:1009B000C130A400C230A500C330A60089317E2119
:1009C000843113302000A0000030A100C430A20008
:1009D000C530A300C630A400C730A500C830A600AB
:1009E00089317E21843118302000A0000030A10020
:1009F000C930A200CA30A300CB30A400CC30A5007F
:100A0000CD30A60089317E2184311D302000A00028
:100A10000030A100CE30A200CF30A300D030A4001F
:100A2000D130A500D230A60089317E2184319431A5
:100A3000A32484312100AF01AE01AD01AC01953199
:100A4000112584312100B001BD01BC01BB018C31F5
:100A5000A72484318F312C27843108002C30F200F8
:100A60009631A32685313D30F2009631A32685319B
:100A70002C302000A8000530F20021003308963108
:100A80002B268531BF3E8600870101082000A90082
:100A90008831BB2085313A302000AE002F30A800CD
:100AA0000530F2002100330896312B268531C03EF7
:100AB0008600870101082000A9008831BB2085310C
:100AC0003A302000B1003230A8000530F200210099
:100AD000330896312B268531C13E860087010108F7
:100AE0002000A9008831BB20853120302000B400CF
:100AF0003530A8000530F2002100330896312B264E
:100B00008531C23E8600870101082000A900883196
:100B1000BB20853143302000B7000530F2002100B2
:100B2000330896312B268531C33E860087010108A4
:100B3000303E2000BB004C30BA003D30A8000530EC
:100B4000F2002100330896312B268531C43E860001
:100B5000870101082000A9008831BB2085313A3087
:100B60002000BF004030A8000530F200210033080B
:100B700096312B268531C53E86008701010820006D
:100B8000A9008831BB2085313A302000C2004330B3
:100B9000A8000530F2002100330896312B2685315C
:100BA000C63E8600870101082000A9008831BB20CD
:100BB000853120302000C5004630A8000530F20005
:100BC0002100330896312B268531C73E86008701E8
:100BD00001082000A9008831BB2085314330200066
:100BE000C8000530F2002100330896312B268531EC
:100BF000C83E860087010108303E2000CC004C3002
:100C0000CB0080308831002085312000A0010030E9
:100C100096318E2685312C302000A0000030A100B6
:100C20009631E626853196313E2685312000200812
:100C30002104031D1C2E1D2E132EC03088310020D0
:100C400085312000A001083096318E2685313D3057
:100C50002000A0000030A1009631E62685319631B3
:100C60003E268531200020082104031D382E392E10
:100C70002F2E080023000F0C890C0139F4001108F5
:100C80001F397404031D452E462E3A2E11141118D7
:100C90004A2E4B2E472E0F0C890C0139F4001108F7
:100CA0001F397404031D552E562E4B2E9A30893150
:100CB000C321863123000F0C890C0139F40011087F
:100CC0001F397404031D652E662E5A2E013089319A
:100CD000C321863123000F0C890C0139F40011085F
:100CE0001F397404031D752E762E6A2E91149118E7
:100CF0007A2E7B2E772E0F0C890C0139F400110807
:100D00001F397404031D852E862E7B2E9B3089315E
:100D1000C321863123000F0C890C0139F40011081E
:100D20001F397404031D952E962E8A2E9631FF26A8
:100D30008631F50023000F0C890C0139F4001108ED
:100D40001F397404031DA52EA62E9A2E9116111676
:100D5000111AAB2EAC2EA82E0F0C890C0139F40001
:100D600011081F397404031DB62EB72EAC2E1115B1
:100D70001119BB2EBC2EB82E751FBF2EC02E3A2EB9
:100D80000F0C890C0139F40011081F397404031D7C
:100D9000CA2ECB2EC02E11141118CF2ED02ECC2E31
:100DA0000F0C890C0139F40011081F397404031D5C
:100DB000DA2EDB2ED02E9A308931C32186312300E2
:100DC0000F0C890C0139F40011081F397404031D3C
:100DD000EA2EEB2EDF2E00308931C321863123002D
:100DE0000F0C890C0139F40011081F397404031D1C
:100DF000FA2EFB2EEF2E91149118FF2E002FFC2EB1
:100E00000F0C890C0139F40011081F397404031DFB
:100E10000A2F0B2F002F9B308931C32186312300ED
:100E20000F0C890C0139F40011081F397404031DDB
:100E30001A2F1B2F0F2F9631FF268631F500230026
:100E40000F0C890C0139F40011081F397404031DBB
:100E50002A2F2B2F1F2F91161116111A302F312FD9
:100E60002D2F0F0C890C0139F40011081F3974045F
:100E7000031D3B2F3C2F312F11151119402F412FEE
:100E80003D2F75080800F6007608F039F70076085F
:100E9000F5000430F535890B4A2F7508F039F80054
:100EA00023000F0C890C0139F50011081F39750456
:100EB000031D5B2F5C2F502F11141118602F612F11
:100EC0005D2F0F0C890C0139F50011081F397504CD
:100ED000031D6B2F6C2F612F4E308931C321873159
:100EE00023000F0C890C0139F50011081F39750416
:100EF000031D7B2F7C2F702F7708740408388931ED
:100F0000C321873123000F0C890C0139F50011082A
:100F10001F397504031D8D2F8E2F822F77087404BF
:100F20000C388931C321873123000F0C890C01391A
:100F3000F50011081F397504031D9F2FA02F942F52
:100F400000007708740408388931C32187312300F1
:100F50000F0C890C0139F50011081F397504031DA8
:100F6000B22FB32FA72F7808740408388931C32112
:100F7000873123000F0C890C0139F50011081F3946
:100F80007504031DC42FC52FB92F780874040C38BD
:100F90008931C321873123000F0C890C0139F500F9
:100FA00011081F397504031DD62FD72FCB2F000032
:100FB0007808740408388931C321873123000F0C65
:100FC000890C0139F50011081F397504031DE92F3B
:100FD000EA2FDE2F11151119EE2FEF2FEB2F103006
:100FE000890BF02F00320800F4007408033EF20071
:100FF000003003180130F300953166258731080071
:10100000F900F4017908873143278831080001305D
:101010002100BA073C303A02031C0F28102841284F
:10102000BA010130FA073C307A02031C182819284B
:101030003A28FA017A082000A3000A3096311826CF
:1010400088310130FB0718307B02031C282829282F
:101050003228FB017B082000A300093096311826B6
:10106000883141287B082000A300093096311826DA
:10107000883141287A082000A3000A3096311826CA
:101080008831080020002408A1002308A0002508BA
:10109000A20097315927883120002308013EA00083
:1010A0000030243DA1002608A2009731592788313D
:1010B00020002308023EA0000030243DA1002708A4
:1010C000A20097315927883120002308033EA00051
:1010D0000030243DA1002808A2009731592788310B
:1010E00020002308043EA0000030243DA100290870
:1010F000A20097315927883108009431A324883100
:101100002100B0013D08031D862887288B28013067
:10111000BD00BC01BA283D03031D8F289028A228DA
:101120003C088831F9208831F500073021003C0661
:10113000031D9B289C289F28BD01BC01BA28750867
:10114000BC00BA2802303D06031DA728A828BA28EB
:101150003B03031DAC28AD28B128BD01BB01B30181
:10116000BA2802303B06031DB628B728BA2801303A
:10117000BB00B30108000A30F2000030F300200089
:101180002908F800F9017808F4007908F5008A3197
:101190000E22883172082000AB000A30A000003017
:1011A000A1006430F2000030F3002908F800F901D2
:1011B0007808F4007908F5008A310E228831200081
:1011C0002B087202A2000030733BA3008A315F2219
:1011D000883120002008AA002808860087012A08F4
:1011E000303E8100280A860087012B08303E8100AE
:1011F0000800F4000F2901303A2902303A2903305F
:101200003A2904303A2905303A2906303A2907307C
:101210003A2900303A290A303A290B303A29740821
:10122000F200F3017308003A03191729092972081B
:10123000003A0319FB28013A0319FD28033A031960
:10124000FF28013A03190129073A03190329013A32
:1012500003190529033A03190729013A0319092932
:101260000E3A03190B29033A03190D29013A031900
:10127000012909290800F50023000F0C890C013908
:10128000F40011081F397404031D472948293C291B
:10129000111411184C294D2949290F0C890C0139B9
:1012A000F40011081F397404031D572958294D29CA
:1012B0004E308931C321893123000F0C890C01394B
:1012C000F40011081F397404031D672968295C297B
:1012D00075088931C321893123000F0C890C01392C
:1012E000F40011081F397404031D772978296C292B
:1012F000111511197C297D2979290800200022085F
:10130000860087012108F3002008F2009531662548
:101310008931810020002308860087012008013ED2
:10132000F2000030213DF3009531662589318100BE
:1013300020002408860087012008023EF2000030C9
:10134000213DF30095316625893181002000250873
:10135000860087012008033EF2000030213DF300A3
:101360009531662589318100200026088600870195
:101370002008043EF2000030213DF300953166253F
:10138000893181000800F300730823008C00901F4E
:10139000CA29CB29CC290D2A0F301005F2000830BC
:1013A00072060319D429D529EB290F301005F20054
:1013B0000B3072060319DD29DE29EB2910162E00E9
:1013C0000F1CE329E429DF2923000F19E829E92963
:1013D0000D2A0F080D2A0F301005F2000830720692
:1013E0000319F329F429FD290F301005F2000B3001
:1013F0007206031DFC29FD290D2A0F18002A012A57
:10140000FD290F0C890C0139F20011081F397204F3
:10141000031D0B2A0C2A012A11080800F701F51FE9
:10142000122A132A1A2AF409F509F40A0319F50AEB
:101430000130F700F31F1D2A1E2A232AF209F3099F
:10144000F20A0319F30A720873040319282A292AD5
:10145000502A0130F600332A0130F235F30D890BA2
:101460002D2A0130F607F31F362A372A2C2A730853
:101470007502031D3D2A72087402031C402A412A8A
:10148000452A7208F4027308F53B0130F336F20C7A
:10149000890B462A0130F602031D4F2A502A372AAB
:1014A00077080319542A552A5A2AF409F509F40A27
:1014B0000319F50A7508F3007408F200080020000B
:1014C000A501A11F642A652A6C2AA009A109A00A06
:1014D0000319A10A0130A500A31F6F2A702A772AD9
:1014E000A209A309A20A0319A30A0130A506A601AD
:1014F000A7012008210403197E2A7F2AAC2A013083
:10150000A400892A0130A035A10D890B832A01305E
:10151000A407A11F8C2A8D2A822A0130A635A70D87
:10152000890B8E2A21082302031D982A20082202F3
:10153000031C9B2A9C2AA12A2008A2022108A33B63
:1015400026140130A136A00C890BA22A0130A40276
:10155000031DAB2AAC2A8D2A25080319B02AB12A0B
:10156000B62AA609A709A60A0319A70A2708A100EF
:101570002608A00008002100390842020318C12AE9
:10158000C22AD22A3908C2007B08BF007A08C000EC
:101590003A08C10001302000AA000030AB008D31B4
:1015A00023258A312100470839020318D82AD92A6D
:1015B000E92A3908C7007B08C4007A08C5003A0840
:1015C000C60002302000AA000030AB008D31232578
:1015D0008A31210038084D020318EF2AF02A002B27
:1015E0003808CD007B08C9007A08CA003A08CB0049
:1015F00003302000AA000030AB008D3123258A3152
:101600002100520838020318062B072B172B380825
:10161000D2007B08CE007A08CF003A08D000043010
:101620002000AA000030AB008D3123258A3108004C
:1016300020009A01990196019701980107309500C1
:101640000F309100FF309200FF309300FF30940084
:10165000FF303E00D900C430CE00EF30C300073069
:10166000E400AF30B800DA01E501C401B901183077
:10167000CF00E601BA01C501D001DB01FF30BB009C
:10168000FF30C600FF30D100FF30DC000730E7003C
:10169000FF30BC00FF30C700FF30D200FF30DD005C
:1016A0000730E800D512D416D3129430F20014306B
:1016B000F3009431D7248B312E0016160C303D00E8
:1016C00090001330C50014303E00A30010303D00E0
:1016D000A90015303E00A4000E30960011303D00E8
:1016E000AA00043091001430C6000800F800780801
:1016F000F2000430F235890B7A2B7808F3000430BD
:10170000F336890B802B73087204F800780833399C
:10171000F2000230F235890B8A2B7808F300023090
:10172000F336890B902B730833397204F80078086C
:101730005539F2000130F235890B9B2B7808F30004
:101740000130F336890BA12B730855397204F80068
:10175000F401F601F701F5017808F200760AB12BE1
:10176000F236890BB02B72080319B72BB82BBA2BA2
:101770000130F5007508F2007608073C890AC12B94
:10178000F235890BC02B7208F4070130F6070030E0
:10179000F73D7708803AF20080307202031DD22BA9
:1017A00008307602031CD52BD62BAB2B740808000F
:1017B0002100300866020318DE2BDF2BE12BB0017D
:1017C000BD019531E3258B312000D8017B08210034
:1017D0006506031DEC2BED2BFC2B7A083106031D4F
:1017E000F22BF32BFC2B3A083206031DF82BF92BB6
:1017F000FC2B01302000D80020005808D90021001F
:101800003708031D042C052C0A2C20005908210040
:10181000AD001C2C2000590803190F2C102C052C8E
:1018200021002D08031D152C162C052C0130B600A7
:10183000963165268B31052C3D08031D202C212C6B
:10184000252C8F312C278B313B2C3D03031D292C5C
:101850002A2C302C0130B0078131AD218B313B2C4B
:1018600002303D06031D352C362C3B2C0130B007D1
:1018700085312E258B31080005302100E80003302A
:10188000E7000A30E600B7010C30E500B101B20113
:101890001430E4000230E300FB01FA01BA016808E9
:1018A0002000A3000030963118268C3121006708F3
:1018B0002000A3000130963118268C3121006608E3
:1018C0002000A3000230963118268C312100370801
:1018D0002000A3000330963118268C3121006508C2
:1018E0002000A3000430963118268C3121003108E5
:1018F0002000A3000530963118268C3121003208D3
:101900002000A3000630963118268C31210064088F
:101910002000A3000730963118268C31210063087F
:101920002000A3000830963118268C318D31A9256E
:101930008C312100C201C301FF30C7000330C80051
:10194000CC01CD01FF30D1000330D200080041307E
:10195000F900EE30890BAA2CF90BAA2C003230309A
:1019600089313B218C31343089313B218C31A63097
:10197000890BB82C0032303089313B218C31073053
:10198000F9007D30890BC22CF90BC22C00003030DD
:1019900089313B218C31343089313B218C31A63067
:1019A000890BD02C0032303089313B218C312130F1
:1019B000890BD82C0000303089313B218C313430F8
:1019C00089313B218C31A630890BE42C0032303038
:1019D00089313B218C312130890BEC2C00002030E7
:1019E00089313B218C31243089313B218C31A63027
:1019F000890BF82C0032203089313B218C310730A3
:101A0000F9007D30890B022DF90B022D0000F40145
:101A10002830873143278C31F40106308731432742
:101A20008C31F4010F30873143278C31F4010130C0
:101A3000873143278C310330F9009830890B1E2DF4
:101A4000F90B1E2D0800942D0E30A3000030A400C9
:101A500021003F082000A500210040082000A6002A
:101A6000210041082000A700210042082000A80012
:101A7000210043082000A900883142208D31A82D83
:101A80001330A3000030A400210044082000A5006A
:101A9000210045082000A600210046082000A700DC
:101AA000210047082000A800210048082000A900C4
:101AB000883142208D31A82D1830A3000030A400B9
:101AC000210049082000A50021004A082000A600A6
:101AD00021004B082000A70021004C082000A8008E
:101AE00021004D082000A900883142208D31A82D09
:101AF0001D30A3000030A40021004E082000A500E6
:101B000021004F082000A600210050082000A70057
:101B1000210051082000A800210052082000A9003F
:101B2000883142208D31A82D20002B08003A03195E
:101B30009A2DA82D2A08013A0319242D033A0319D6
:101B4000402D013A03195C2D073A0319782DA82D71
:101B500008002000AA010530F2002A0896312B2641
:101B60008D31BF3E8600870181010530F2002000E3
:101B70002A0896312B268D31C03E860087018101CF
:101B80000530F20020002A0896312B268D31C13E07
:101B90008600870181010530F20020002A08963175
:101BA0002B268D31C23E8600870181010530F2006F
:101BB00020002A0896312B268D31C33E86008701EE
:101BC000810101302000AA0704302A02031CE92DFC
:101BD000EA2DAB2D0E30A3000030A40021003F08F9
:101BE0002000A500210040082000A6002100410897
:101BF0002000A700210042082000A800210043087F
:101C00002000A900883142208D3113302000A3002C
:101C10000030A400210044082000A5002100450850
:101C20002000A600210046082000A7002100470848
:101C30002000A800210048082000A9008831422087
:101C40008D3118302000A3000030A4002100490885
:101C50002000A50021004A082000A60021004B0812
:101C60002000A70021004C082000A80021004D08FA
:101C70002000A900883142208D311D302000A300B2
:101C80000030A40021004E082000A50021004F08CC
:101C90002000A600210050082000A70021005108C4
:101CA0002000A800210052082000A900883142200D
:101CB0008D31080000302100E2000030E1000030EA
:101CC000E0000030DF0097317C278E3195317F2591
:101CD0008E318C31A7248E319531F4258E318030B0
:101CE000883100208E312000A001003096318E26F0
:101CF0008E3120302000A0009830A1009631E626D9
:101D00008E3196313E268E31200020082104031D9D
:101D10008A2E8B2E812E84310D248E3195318C2587
:101D20008E31AD30F2001430F3009431D1248E3175
:101D30008B3118238E31B930F2001430F300943116
:101D4000D7248E319431C5248E317208730403195F
:101D5000AA2EAB2EB12E94319B248E3188317D205A
:101D60008E319431CB248E31720873040319B92E4D
:101D7000BA2EC02E94319F248E318231E9228E31C9
:101D8000953138258E31003A0319C72EC82EA22E60
:101D900003102000961F03140318CF2ED22E20000C
:101DA0009617D42E20009613883107208E31953156
:101DB00024258E3175082100DE007408DD007308CB
:101DC000DC007208DB0068082000E200E301E401A7
:101DD000E50121005F085B022000E60021006008A9
:101DE0005C3B2000E700210061085D3B2000E8002B
:101DF000210062085E3B2000E90065086902031DBE
:101E00000B2F64086802031D0B2F63086702031D74
:101E10000B2F6208660203180E2F0F2F182F2100B8
:101E20006208610460045F04031D172F182F242F1C
:101E300021005E08E2005D08E1005C08E0005B084C
:101E4000DF009531A6258E318B31D8238E3163008A
:101E50000000A22E803140283F30F2009631A326A8
:101E60008F312E30F2009631A3268F313F30200083
:101E7000A8007B08A9008831BB208F313A302000B0
:101E8000C1004230A8007A08A9008831BB208F31F8
:101E90003A302000C4004530A80021003A08200054
:101EA000A9008831BB208F3120302000C7002100DD
:101EB0003608031D5C2F5D2F632F20302000D000DB
:101EC0000030D100682F43302000D0000030D10016
:101ED0005008C80021003508031D6F2F702F762F82
:101EE00020302000D2000030D3007B2F543020005F
:101EF000D2000030D3005208C90021003408031D6D
:101F0000822F832F892F20302000D4000030D5006D
:101F10008E2F4C302000D4000030D5005408CA0069
:101F200021003708031D952F962F9C2F613020002C
:101F3000D6000030D700A12F41302000D60000305D
:101F4000D7005608CD002E30A80021003908200007
:101F5000A9008831BB208F3120302000B0004330F1
:101F6000B1004C30BB000A30F2000030F300210019
:101F700038082000AC00AD012C08F4002D08F50055
:101F80008A310E228F317208303E2000BD00803031
:101F9000883100208F312000A001003096318E263C
:101FA0008F313F302000A0000030A1009631E6269E
:101FB0008F3196313E268F31200020082104031DE9
:101FC000E22FE32FD92FC030883100208F3120003D
:101FD000A001083096318E268F312E302000A000CF
:101FE0000030A1009631E6268F3196313E268F31A2
:101FF000200020082104031DFE2FFF2FF52F0800CD
:102926000800080024000E14080027008E1708006F
:102936002100A601A70108002100A401A5010800A5
:102946002100B401B501B6010800310096019030AE
:102956009500080001302100A6000030A7000800FD
:102966002E000C109531722594310800013021009B
:10297600A4000030A500080073082100D8007208E2
:10298600D700080021002708F3002608F2000800F7
:1029960021002508F3002408F2000800730821002E
:1029A600D4007208D300080073082100DA00720808
:1029B600D900080073082100D6007208D500080067
:1029C600640080010131890BE42C00340234143494
:1029D6000C340A34033405342F009601970198010C
:1029E60099019A019B010800F900F401F40A79089B
:1029F60087314327943108003E00D51E032D042D50
:102A0600072D9531B42594310800623031008D00D0
:102A16008F01910102309300920108000030F2000C
:102A2600F30096317926953127008E130800013080
:102A36002100A0070030A13DA23DA33D0130BE000C
:102A4600080021002308F5002208F4002108F300FD
:102A56002008F2000800803023008F000830900024
:102A6600910103308D009012080021003E080319E1
:102A76003D2D3E2D412DBE010130422D0030080076
:102A860020009F01FF309D009C012E008C1280309B
:102A960020009E000800803027008E008D01403007
:102AA6008C0024001F08F33904389F00080080308A
:102AB6002900980099019A019B019D019C019701AB
:102AC600960195010800730830009B0072089A0071
:102AD6001E171E140000000030001C08080021000C
:102AE600530854040319782D792D7E2D54088A0035
:102AF60053080A0095310800803023008F00083003
:102B06009000910103308D00901620009315131646
:102B160008002E000C100B149330F2001430F30052
:102B26009431D12495312E00161408000130250069
:102B360090008F0191018D018C012E009010803044
:102B460025008E00080086313A2695312100B9000D
:102B56009631512695312100B8008A31BB22953134
:102B66000800210059085A040319BA2DBB2DC02D9F
:102B76005A088A0059080A0095313E00D512080005
:102B86002E0011102100550856040319CB2DCC2D0B
:102B9600D12D56088A0055080A00953108002400F0
:102BA6000E1DD62DD72DDE2D0E1071088D00700846
:102BB6008C000E14E22D71088D0070088C00080040
:102BC60021002C08031DE82DE92DEA2DF32D0130F7
:102BD600AC02031DEF2DF02DF32D95311125953106
:102BE60008003E00B8132000911396131A30F20025
:102BF6001530F3009431BF249531943195249531E5
:102C06008B170B170800F400740821009E00931719
:102C160013131314000021001318122E132E0E2E58
:102C26000D08F3000C08F20008002000A400240898
:102C3600033EA000003003180130A10023088B31A9
:102C4600762396312000A200973159279631080045
:102C5600F400F301741C302E312E332E7208F30764
:102C66000310F20D0310F40C7408031D3B2E3C2ECA
:102C76002D2E730808000030803169209631803986
:102C86000319462E472E4D2E01302000A00000309D
:102C9600A100502E2000A001A101080000309631AD
:102CA600062696317308F6007208F5007608F700D6
:102CB60004307702031C602E612E632E0330F7006A
:102CC6007708080021002C0803196A2E6B2E6C2E3B
:102CD600782E0330AC000030F2000230F30096315B
:102CE6007926963194319824963108007308F500B8
:102CF6007208F400F536F40CF536F40C7408270067
:102D06008D0072080339F4000630F435890B882EDD
:102D160074088C0008002000A10021080319942ED5
:102D2600952E982EC030A2009A2E8030A200200840
:102D36000F392204A20022088831002096310800AB
:102D4600F301720873078600870120308100013085
:102D5600F30710307302031CB12EB22EA42E720894
:102D6600103E86008701810108002E001010210008
:102D76002908F1002808F0009531D2259631210066
:102D8600570858040319C82EC92ECE2E58088A0093
:102D960057080A009631080022008E018F01900123
:102DA6009101920193018D0121009E019B019C01DD
:102DB60094019501960197019A0199019801843031
:102DC60093009D010800EB2E24089431F7249631D8
:102DD60020002108A3002008A200A00A0319A10AC6
:102DE60022088400230885000008A4002408031D87
:102DF600FD2EFE2EE72E08000F3023001005F200F0
:102E0600083072060319082F092F122F0F301005EC
:102E1600F2000B307206031D112F122F132F91157E
:102E26000F1C162F172F132F0C0808000030200038
:102E3600A000A1002308A20097315927973101303D
:102E46002000A0000030A1002408A20097315927D5
:102E5600973102302000A0000030A1002508A20012
:102E660097315927973108000030F200F300953169
:102E760066259731F6000130F2000030F3009531F7
:102E860066259731F7007408860087017608C03FEB
:102E96007708C13F7508860087010230F2000030CE
:102EA600F300953166259731810008000B0D0B0D57
:102EB6000139F9002000210830009B00200020087D
:102EC60030009A002000220830009C001E171E15B4
:102ED6008B1355309F00AA309F009E149E18742FA6
:102EE600752F712F1E11790C031C8B1303188B176A
:102EF60008009431EF24973195312E2597318B3187
:102F06001823973195310825973195314E259731FC
:102F16009631CF26973195315A2597319531992596
:102F260097319731A127973195318C259731953176
:102F3600432597319431A8249731080024008F0146
:102F460090010430910086308D00E8308C002E0010
:102F5600101024000D082100A90024000C082100EF
:102F6600A8002E001A140330F2000030F30094314A
:102F7600BF2497312E0011101B140230F2000030CE
:102F8600F3009431DD249731073024008E000800C9
:102F96002000A601A90129088731F42797312000CE
:102FA600A6070130A9070B302902031CDB2FDC2FF3
:102FB600CE2F0E30A7000030A8002808F3002708FF
:102FC600F2009531662597312000A6070130A70744
:102FD6000030A83D00302802223003192702031CC6
:102FE600F52FF62FE02FA430A300F130A400260819
:102FF600A5009731192797310800003400340034B2
:10300600003400340034003400340034003400341A
:10301600003400340034003400340034003400340A
:1030260000340034003400340034003400340034FA
:103036000034003400340034003441346E347434C7
:1030460065347334203464346F34203449344E3458
:063056004934543400343B
:020000040001F9
:08000000FF3FFF3FFF3FFF3F00
:0A000E00EC3FFF3F9F3FFF3FFF3F25
:00000001FF
